{
  "_format": "hh-sol-artifact-1",
  "contractName": "MirrorInbox",
  "sourceName": "contracts/MirrorInbox.sol",
  "abi": [
    {
      "inputs": [
        {
          "internalType": "address",
          "name": "_grandWardenVault",
          "type": "address"
        },
        {
          "internalType": "address",
          "name": "_walletVault",
          "type": "address"
        },
        {
          "internalType": "address",
          "name": "_deviceRegistry",
          "type": "address"
        },
        {
          "internalType": "address",
          "name": "_atomicVaultManager",
          "type": "address"
        },
        {
          "internalType": "address",
          "name": "_recoveryManager",
          "type": "address"
        }
      ],
      "stateMutability": "nonpayable",
      "type": "constructor"
    },
    {
      "inputs": [],
      "name": "ReentrancyGuardReentrantCall",
      "type": "error"
    },
    {
      "anonymous": false,
      "inputs": [
        {
          "indexed": true,
          "internalType": "address",
          "name": "user",
          "type": "address"
        },
        {
          "indexed": true,
          "internalType": "bytes32",
          "name": "resourceId",
          "type": "bytes32"
        },
        {
          "indexed": false,
          "internalType": "address",
          "name": "grantee",
          "type": "address"
        }
      ],
      "name": "AccessGranted",
      "type": "event"
    },
    {
      "anonymous": false,
      "inputs": [
        {
          "indexed": true,
          "internalType": "address",
          "name": "user",
          "type": "address"
        },
        {
          "indexed": true,
          "internalType": "bytes32",
          "name": "resourceId",
          "type": "bytes32"
        },
        {
          "indexed": false,
          "internalType": "address",
          "name": "revokee",
          "type": "address"
        }
      ],
      "name": "AccessRevoked",
      "type": "event"
    },
    {
      "anonymous": false,
      "inputs": [
        {
          "indexed": true,
          "internalType": "address",
          "name": "user",
          "type": "address"
        },
        {
          "indexed": true,
          "internalType": "bytes32",
          "name": "vaultId",
          "type": "bytes32"
        },
        {
          "indexed": false,
          "internalType": "bytes32",
          "name": "suiTxHash",
          "type": "bytes32"
        },
        {
          "indexed": false,
          "internalType": "uint256",
          "name": "timestamp",
          "type": "uint256"
        }
      ],
      "name": "AtomicUpdateCompleted",
      "type": "event"
    },
    {
      "anonymous": false,
      "inputs": [
        {
          "indexed": true,
          "internalType": "address",
          "name": "user",
          "type": "address"
        },
        {
          "indexed": true,
          "internalType": "bytes32",
          "name": "vaultId",
          "type": "bytes32"
        },
        {
          "indexed": false,
          "internalType": "string",
          "name": "reason",
          "type": "string"
        },
        {
          "indexed": false,
          "internalType": "uint256",
          "name": "timestamp",
          "type": "uint256"
        }
      ],
      "name": "AtomicUpdateFailed",
      "type": "event"
    },
    {
      "anonymous": false,
      "inputs": [
        {
          "indexed": true,
          "internalType": "address",
          "name": "user",
          "type": "address"
        },
        {
          "indexed": true,
          "internalType": "bytes32",
          "name": "vaultId",
          "type": "bytes32"
        },
        {
          "indexed": false,
          "internalType": "string",
          "name": "walrusCID",
          "type": "string"
        },
        {
          "indexed": false,
          "internalType": "uint256",
          "name": "timestamp",
          "type": "uint256"
        }
      ],
      "name": "AtomicUpdateStarted",
      "type": "event"
    },
    {
      "anonymous": false,
      "inputs": [
        {
          "indexed": true,
          "internalType": "address",
          "name": "user",
          "type": "address"
        },
        {
          "indexed": false,
          "internalType": "string",
          "name": "blobId",
          "type": "string"
        },
        {
          "indexed": false,
          "internalType": "uint8",
          "name": "policy",
          "type": "uint8"
        },
        {
          "indexed": false,
          "internalType": "address[]",
          "name": "authorizedDevices",
          "type": "address[]"
        },
        {
          "indexed": false,
          "internalType": "uint256",
          "name": "timestamp",
          "type": "uint256"
        }
      ],
      "name": "BlobACLUpdated",
      "type": "event"
    },
    {
      "anonymous": false,
      "inputs": [
        {
          "indexed": true,
          "internalType": "address",
          "name": "user",
          "type": "address"
        },
        {
          "indexed": false,
          "internalType": "uint256",
          "name": "severity",
          "type": "uint256"
        },
        {
          "indexed": false,
          "internalType": "string",
          "name": "message",
          "type": "string"
        }
      ],
      "name": "BreachAlert",
      "type": "event"
    },
    {
      "anonymous": false,
      "inputs": [
        {
          "indexed": true,
          "internalType": "address",
          "name": "user",
          "type": "address"
        },
        {
          "indexed": true,
          "internalType": "bytes32",
          "name": "walletId",
          "type": "bytes32"
        },
        {
          "indexed": false,
          "internalType": "uint8",
          "name": "chainType",
          "type": "uint8"
        },
        {
          "indexed": false,
          "internalType": "uint256",
          "name": "newBalance",
          "type": "uint256"
        }
      ],
      "name": "ChainBalanceUpdated",
      "type": "event"
    },
    {
      "anonymous": false,
      "inputs": [
        {
          "indexed": true,
          "internalType": "string",
          "name": "contractName",
          "type": "string"
        },
        {
          "indexed": true,
          "internalType": "address",
          "name": "contractAddress",
          "type": "address"
        }
      ],
      "name": "ContractUpdated",
      "type": "event"
    },
    {
      "anonymous": false,
      "inputs": [
        {
          "indexed": true,
          "internalType": "address",
          "name": "user",
          "type": "address"
        },
        {
          "indexed": true,
          "internalType": "bytes32",
          "name": "operationId",
          "type": "bytes32"
        },
        {
          "indexed": false,
          "internalType": "bool",
          "name": "success",
          "type": "bool"
        }
      ],
      "name": "CrossChainOperationCompleted",
      "type": "event"
    },
    {
      "anonymous": false,
      "inputs": [
        {
          "indexed": true,
          "internalType": "address",
          "name": "user",
          "type": "address"
        },
        {
          "indexed": true,
          "internalType": "bytes32",
          "name": "operationId",
          "type": "bytes32"
        },
        {
          "indexed": false,
          "internalType": "uint8",
          "name": "sourceChain",
          "type": "uint8"
        },
        {
          "indexed": false,
          "internalType": "uint8",
          "name": "targetChain",
          "type": "uint8"
        }
      ],
      "name": "CrossChainOperationStarted",
      "type": "event"
    },
    {
      "anonymous": false,
      "inputs": [
        {
          "indexed": true,
          "internalType": "address",
          "name": "user",
          "type": "address"
        },
        {
          "indexed": true,
          "internalType": "bytes32",
          "name": "deviceId",
          "type": "bytes32"
        },
        {
          "indexed": false,
          "internalType": "address",
          "name": "deviceAddress",
          "type": "address"
        }
      ],
      "name": "DeviceAuthorized",
      "type": "event"
    },
    {
      "anonymous": false,
      "inputs": [
        {
          "indexed": true,
          "internalType": "address",
          "name": "user",
          "type": "address"
        },
        {
          "indexed": true,
          "internalType": "bytes32",
          "name": "deviceId",
          "type": "bytes32"
        },
        {
          "indexed": false,
          "internalType": "string",
          "name": "deviceName",
          "type": "string"
        },
        {
          "indexed": false,
          "internalType": "uint256",
          "name": "timestamp",
          "type": "uint256"
        }
      ],
      "name": "DeviceRegistered",
      "type": "event"
    },
    {
      "anonymous": false,
      "inputs": [
        {
          "indexed": true,
          "internalType": "address",
          "name": "user",
          "type": "address"
        },
        {
          "indexed": true,
          "internalType": "bytes32",
          "name": "deviceId",
          "type": "bytes32"
        },
        {
          "indexed": false,
          "internalType": "uint256",
          "name": "timestamp",
          "type": "uint256"
        }
      ],
      "name": "DeviceRevoked",
      "type": "event"
    },
    {
      "anonymous": false,
      "inputs": [
        {
          "indexed": true,
          "internalType": "address",
          "name": "user",
          "type": "address"
        },
        {
          "indexed": true,
          "internalType": "bytes32",
          "name": "deviceId",
          "type": "bytes32"
        },
        {
          "indexed": false,
          "internalType": "uint8",
          "name": "newStatus",
          "type": "uint8"
        },
        {
          "indexed": false,
          "internalType": "uint256",
          "name": "timestamp",
          "type": "uint256"
        },
        {
          "indexed": false,
          "internalType": "string",
          "name": "reason",
          "type": "string"
        }
      ],
      "name": "DeviceStatusChanged",
      "type": "event"
    },
    {
      "anonymous": false,
      "inputs": [
        {
          "indexed": true,
          "internalType": "address",
          "name": "admin",
          "type": "address"
        },
        {
          "indexed": false,
          "internalType": "string",
          "name": "reason",
          "type": "string"
        },
        {
          "indexed": false,
          "internalType": "uint256",
          "name": "timestamp",
          "type": "uint256"
        }
      ],
      "name": "EmergencyShutdown",
      "type": "event"
    },
    {
      "anonymous": false,
      "inputs": [
        {
          "indexed": true,
          "internalType": "bytes32",
          "name": "eventId",
          "type": "bytes32"
        },
        {
          "indexed": true,
          "internalType": "address",
          "name": "user",
          "type": "address"
        },
        {
          "indexed": true,
          "internalType": "enum MirrorInbox.EventType",
          "name": "eventType",
          "type": "uint8"
        },
        {
          "indexed": false,
          "internalType": "uint64",
          "name": "sequence",
          "type": "uint64"
        },
        {
          "indexed": false,
          "internalType": "uint256",
          "name": "timestamp",
          "type": "uint256"
        }
      ],
      "name": "EventMirrored",
      "type": "event"
    },
    {
      "anonymous": false,
      "inputs": [
        {
          "indexed": true,
          "internalType": "bytes32",
          "name": "eventId",
          "type": "bytes32"
        },
        {
          "indexed": true,
          "internalType": "address",
          "name": "user",
          "type": "address"
        },
        {
          "indexed": false,
          "internalType": "string",
          "name": "reason",
          "type": "string"
        },
        {
          "indexed": false,
          "internalType": "uint256",
          "name": "timestamp",
          "type": "uint256"
        }
      ],
      "name": "MirrorError",
      "type": "event"
    },
    {
      "anonymous": false,
      "inputs": [
        {
          "indexed": true,
          "internalType": "address",
          "name": "oldWorker",
          "type": "address"
        },
        {
          "indexed": true,
          "internalType": "address",
          "name": "newWorker",
          "type": "address"
        }
      ],
      "name": "ROFLWorkerUpdated",
      "type": "event"
    },
    {
      "anonymous": false,
      "inputs": [
        {
          "indexed": true,
          "internalType": "address",
          "name": "user",
          "type": "address"
        },
        {
          "indexed": true,
          "internalType": "bytes32",
          "name": "recoveryId",
          "type": "bytes32"
        },
        {
          "indexed": false,
          "internalType": "address",
          "name": "guardian",
          "type": "address"
        },
        {
          "indexed": false,
          "internalType": "uint256",
          "name": "timestamp",
          "type": "uint256"
        }
      ],
      "name": "RecoveryApproved",
      "type": "event"
    },
    {
      "anonymous": false,
      "inputs": [
        {
          "indexed": true,
          "internalType": "address",
          "name": "user",
          "type": "address"
        },
        {
          "indexed": true,
          "internalType": "bytes32",
          "name": "recoveryId",
          "type": "bytes32"
        },
        {
          "indexed": false,
          "internalType": "bool",
          "name": "success",
          "type": "bool"
        },
        {
          "indexed": false,
          "internalType": "uint256",
          "name": "timestamp",
          "type": "uint256"
        }
      ],
      "name": "RecoveryCompleted",
      "type": "event"
    },
    {
      "anonymous": false,
      "inputs": [
        {
          "indexed": true,
          "internalType": "address",
          "name": "user",
          "type": "address"
        },
        {
          "indexed": true,
          "internalType": "bytes32",
          "name": "recoveryId",
          "type": "bytes32"
        },
        {
          "indexed": false,
          "internalType": "uint8",
          "name": "method",
          "type": "uint8"
        },
        {
          "indexed": false,
          "internalType": "uint256",
          "name": "threshold",
          "type": "uint256"
        },
        {
          "indexed": false,
          "internalType": "uint256",
          "name": "timestamp",
          "type": "uint256"
        }
      ],
      "name": "RecoveryInitiated",
      "type": "event"
    },
    {
      "anonymous": false,
      "inputs": [
        {
          "indexed": true,
          "internalType": "address",
          "name": "user",
          "type": "address"
        },
        {
          "indexed": false,
          "internalType": "uint8",
          "name": "alertType",
          "type": "uint8"
        },
        {
          "indexed": false,
          "internalType": "string",
          "name": "description",
          "type": "string"
        },
        {
          "indexed": false,
          "internalType": "uint256",
          "name": "timestamp",
          "type": "uint256"
        }
      ],
      "name": "SecurityAlert",
      "type": "event"
    },
    {
      "anonymous": false,
      "inputs": [
        {
          "indexed": true,
          "internalType": "address",
          "name": "sender",
          "type": "address"
        },
        {
          "indexed": false,
          "internalType": "bool",
          "name": "allowed",
          "type": "bool"
        }
      ],
      "name": "SenderAllowed",
      "type": "event"
    },
    {
      "anonymous": false,
      "inputs": [
        {
          "indexed": false,
          "internalType": "uint256",
          "name": "timestamp",
          "type": "uint256"
        },
        {
          "indexed": false,
          "internalType": "bool",
          "name": "healthy",
          "type": "bool"
        },
        {
          "indexed": false,
          "internalType": "string",
          "name": "details",
          "type": "string"
        }
      ],
      "name": "SystemHealthCheck",
      "type": "event"
    },
    {
      "anonymous": false,
      "inputs": [
        {
          "indexed": true,
          "internalType": "address",
          "name": "admin",
          "type": "address"
        },
        {
          "indexed": false,
          "internalType": "uint256",
          "name": "timestamp",
          "type": "uint256"
        }
      ],
      "name": "SystemRecovery",
      "type": "event"
    },
    {
      "anonymous": false,
      "inputs": [
        {
          "indexed": true,
          "internalType": "address",
          "name": "user",
          "type": "address"
        },
        {
          "indexed": true,
          "internalType": "bytes32",
          "name": "walletId",
          "type": "bytes32"
        },
        {
          "indexed": false,
          "internalType": "bytes32",
          "name": "txHash",
          "type": "bytes32"
        },
        {
          "indexed": false,
          "internalType": "uint8",
          "name": "chainType",
          "type": "uint8"
        },
        {
          "indexed": false,
          "internalType": "uint256",
          "name": "timestamp",
          "type": "uint256"
        }
      ],
      "name": "TransactionSigned",
      "type": "event"
    },
    {
      "anonymous": false,
      "inputs": [
        {
          "indexed": true,
          "internalType": "address",
          "name": "user",
          "type": "address"
        },
        {
          "indexed": false,
          "internalType": "address",
          "name": "unauthorized",
          "type": "address"
        },
        {
          "indexed": false,
          "internalType": "string",
          "name": "resource",
          "type": "string"
        }
      ],
      "name": "UnauthorizedAccess",
      "type": "event"
    },
    {
      "anonymous": false,
      "inputs": [
        {
          "indexed": true,
          "internalType": "address",
          "name": "user",
          "type": "address"
        },
        {
          "indexed": false,
          "internalType": "uint8",
          "name": "flowType",
          "type": "uint8"
        },
        {
          "indexed": false,
          "internalType": "uint8",
          "name": "step",
          "type": "uint8"
        },
        {
          "indexed": false,
          "internalType": "bool",
          "name": "success",
          "type": "bool"
        },
        {
          "indexed": false,
          "internalType": "bytes",
          "name": "data",
          "type": "bytes"
        },
        {
          "indexed": false,
          "internalType": "uint256",
          "name": "timestamp",
          "type": "uint256"
        }
      ],
      "name": "UserFlowEvent",
      "type": "event"
    },
    {
      "anonymous": false,
      "inputs": [
        {
          "indexed": true,
          "internalType": "address",
          "name": "user",
          "type": "address"
        },
        {
          "indexed": true,
          "internalType": "bytes32",
          "name": "vaultId",
          "type": "bytes32"
        },
        {
          "indexed": false,
          "internalType": "string",
          "name": "newCID",
          "type": "string"
        },
        {
          "indexed": false,
          "internalType": "bytes32",
          "name": "suiTxHash",
          "type": "bytes32"
        }
      ],
      "name": "VaultBlobUpdated",
      "type": "event"
    },
    {
      "anonymous": false,
      "inputs": [
        {
          "indexed": true,
          "internalType": "address",
          "name": "user",
          "type": "address"
        },
        {
          "indexed": true,
          "internalType": "bytes32",
          "name": "vaultId",
          "type": "bytes32"
        },
        {
          "indexed": false,
          "internalType": "uint256",
          "name": "timestamp",
          "type": "uint256"
        }
      ],
      "name": "VaultCreated",
      "type": "event"
    },
    {
      "anonymous": false,
      "inputs": [
        {
          "indexed": true,
          "internalType": "address",
          "name": "user",
          "type": "address"
        },
        {
          "indexed": false,
          "internalType": "uint8",
          "name": "eventType",
          "type": "uint8"
        },
        {
          "indexed": false,
          "internalType": "bytes",
          "name": "data",
          "type": "bytes"
        },
        {
          "indexed": false,
          "internalType": "uint256",
          "name": "timestamp",
          "type": "uint256"
        }
      ],
      "name": "VaultEvent",
      "type": "event"
    },
    {
      "anonymous": false,
      "inputs": [
        {
          "indexed": true,
          "internalType": "address",
          "name": "user",
          "type": "address"
        },
        {
          "indexed": true,
          "internalType": "bytes32",
          "name": "vaultId",
          "type": "bytes32"
        },
        {
          "indexed": false,
          "internalType": "string",
          "name": "walrusCid",
          "type": "string"
        },
        {
          "indexed": false,
          "internalType": "bytes32",
          "name": "metadataHash",
          "type": "bytes32"
        },
        {
          "indexed": false,
          "internalType": "uint256",
          "name": "timestamp",
          "type": "uint256"
        }
      ],
      "name": "VaultPointerCreated",
      "type": "event"
    },
    {
      "anonymous": false,
      "inputs": [
        {
          "indexed": true,
          "internalType": "address",
          "name": "user",
          "type": "address"
        },
        {
          "indexed": true,
          "internalType": "bytes32",
          "name": "vaultId",
          "type": "bytes32"
        },
        {
          "indexed": false,
          "internalType": "string",
          "name": "walrusCid",
          "type": "string"
        },
        {
          "indexed": false,
          "internalType": "bytes32",
          "name": "metadataHash",
          "type": "bytes32"
        },
        {
          "indexed": false,
          "internalType": "string",
          "name": "stage",
          "type": "string"
        },
        {
          "indexed": false,
          "internalType": "uint256",
          "name": "timestamp",
          "type": "uint256"
        }
      ],
      "name": "VaultPointerSet",
      "type": "event"
    },
    {
      "anonymous": false,
      "inputs": [
        {
          "indexed": true,
          "internalType": "address",
          "name": "user",
          "type": "address"
        },
        {
          "indexed": true,
          "internalType": "bytes32",
          "name": "walletId",
          "type": "bytes32"
        },
        {
          "indexed": false,
          "internalType": "string",
          "name": "name",
          "type": "string"
        },
        {
          "indexed": false,
          "internalType": "uint256",
          "name": "timestamp",
          "type": "uint256"
        }
      ],
      "name": "WalletImported",
      "type": "event"
    },
    {
      "inputs": [
        {
          "internalType": "enum MirrorInbox.EventType",
          "name": "eventType",
          "type": "uint8"
        },
        {
          "components": [
            {
              "internalType": "uint256",
              "name": "version",
              "type": "uint256"
            },
            {
              "internalType": "address",
              "name": "user",
              "type": "address"
            },
            {
              "internalType": "bytes",
              "name": "data",
              "type": "bytes"
            },
            {
              "internalType": "uint256",
              "name": "timestamp",
              "type": "uint256"
            },
            {
              "internalType": "bytes32",
              "name": "sourceChain",
              "type": "bytes32"
            },
            {
              "internalType": "bytes32",
              "name": "sourceTxHash",
              "type": "bytes32"
            }
          ],
          "internalType": "struct MirrorInbox.MirrorPayload",
          "name": "payload",
          "type": "tuple"
        }
      ],
      "name": "_safeDispatch",
      "outputs": [],
      "stateMutability": "nonpayable",
      "type": "function"
    },
    {
      "inputs": [],
      "name": "atomicVaultManager",
      "outputs": [
        {
          "internalType": "contract AtomicVaultManager",
          "name": "",
          "type": "address"
        }
      ],
      "stateMutability": "view",
      "type": "function"
    },
    {
      "inputs": [],
      "name": "attestationExpiry",
      "outputs": [
        {
          "internalType": "uint256",
          "name": "",
          "type": "uint256"
        }
      ],
      "stateMutability": "view",
      "type": "function"
    },
    {
      "inputs": [],
      "name": "deviceRegistry",
      "outputs": [
        {
          "internalType": "contract DeviceRegistry",
          "name": "",
          "type": "address"
        }
      ],
      "stateMutability": "view",
      "type": "function"
    },
    {
      "inputs": [
        {
          "internalType": "address",
          "name": "user",
          "type": "address"
        },
        {
          "internalType": "uint8",
          "name": "flowType",
          "type": "uint8"
        },
        {
          "internalType": "uint8",
          "name": "step",
          "type": "uint8"
        },
        {
          "internalType": "bool",
          "name": "success",
          "type": "bool"
        },
        {
          "internalType": "bytes",
          "name": "data",
          "type": "bytes"
        }
      ],
      "name": "emitUserFlowEvent",
      "outputs": [],
      "stateMutability": "nonpayable",
      "type": "function"
    },
    {
      "inputs": [
        {
          "internalType": "address",
          "name": "user",
          "type": "address"
        },
        {
          "internalType": "uint8",
          "name": "eventType",
          "type": "uint8"
        },
        {
          "internalType": "bytes",
          "name": "data",
          "type": "bytes"
        }
      ],
      "name": "emitVaultEvent",
      "outputs": [],
      "stateMutability": "nonpayable",
      "type": "function"
    },
    {
      "inputs": [],
      "name": "getConfig",
      "outputs": [
        {
          "internalType": "uint256",
          "name": "maxGap",
          "type": "uint256"
        },
        {
          "internalType": "uint256",
          "name": "expiry",
          "type": "uint256"
        },
        {
          "internalType": "bool",
          "name": "paused",
          "type": "bool"
        }
      ],
      "stateMutability": "view",
      "type": "function"
    },
    {
      "inputs": [],
      "name": "getContractAddresses",
      "outputs": [
        {
          "internalType": "address",
          "name": "_grandWardenVault",
          "type": "address"
        },
        {
          "internalType": "address",
          "name": "_walletVault",
          "type": "address"
        },
        {
          "internalType": "address",
          "name": "_deviceRegistry",
          "type": "address"
        },
        {
          "internalType": "address",
          "name": "_atomicVaultManager",
          "type": "address"
        },
        {
          "internalType": "address",
          "name": "_recoveryManager",
          "type": "address"
        }
      ],
      "stateMutability": "view",
      "type": "function"
    },
    {
      "inputs": [
        {
          "internalType": "address",
          "name": "user",
          "type": "address"
        }
      ],
      "name": "getLastSequence",
      "outputs": [
        {
          "internalType": "uint64",
          "name": "",
          "type": "uint64"
        }
      ],
      "stateMutability": "view",
      "type": "function"
    },
    {
      "inputs": [],
      "name": "grandWardenVault",
      "outputs": [
        {
          "internalType": "contract GrandWardenVault",
          "name": "",
          "type": "address"
        }
      ],
      "stateMutability": "view",
      "type": "function"
    },
    {
      "inputs": [
        {
          "internalType": "address",
          "name": "sender",
          "type": "address"
        }
      ],
      "name": "isAllowedSender",
      "outputs": [
        {
          "internalType": "bool",
          "name": "",
          "type": "bool"
        }
      ],
      "stateMutability": "view",
      "type": "function"
    },
    {
      "inputs": [
        {
          "internalType": "bytes32",
          "name": "eventId",
          "type": "bytes32"
        }
      ],
      "name": "isEventProcessed",
      "outputs": [
        {
          "internalType": "bool",
          "name": "",
          "type": "bool"
        }
      ],
      "stateMutability": "view",
      "type": "function"
    },
    {
      "inputs": [],
      "name": "isPaused",
      "outputs": [
        {
          "internalType": "bool",
          "name": "",
          "type": "bool"
        }
      ],
      "stateMutability": "view",
      "type": "function"
    },
    {
      "inputs": [],
      "name": "maxSequenceGap",
      "outputs": [
        {
          "internalType": "uint256",
          "name": "",
          "type": "uint256"
        }
      ],
      "stateMutability": "view",
      "type": "function"
    },
    {
      "inputs": [
        {
          "internalType": "enum MirrorInbox.EventType",
          "name": "eventType",
          "type": "uint8"
        },
        {
          "components": [
            {
              "internalType": "uint256",
              "name": "version",
              "type": "uint256"
            },
            {
              "internalType": "address",
              "name": "user",
              "type": "address"
            },
            {
              "internalType": "bytes",
              "name": "data",
              "type": "bytes"
            },
            {
              "internalType": "uint256",
              "name": "timestamp",
              "type": "uint256"
            },
            {
              "internalType": "bytes32",
              "name": "sourceChain",
              "type": "bytes32"
            },
            {
              "internalType": "bytes32",
              "name": "sourceTxHash",
              "type": "bytes32"
            }
          ],
          "internalType": "struct MirrorInbox.MirrorPayload",
          "name": "payload",
          "type": "tuple"
        },
        {
          "internalType": "bytes32",
          "name": "eventId",
          "type": "bytes32"
        },
        {
          "internalType": "uint64",
          "name": "sequence",
          "type": "uint64"
        },
        {
          "internalType": "bytes",
          "name": "attestation",
          "type": "bytes"
        }
      ],
      "name": "mirrorEvent",
      "outputs": [],
      "stateMutability": "nonpayable",
      "type": "function"
    },
    {
      "inputs": [],
      "name": "owner",
      "outputs": [
        {
          "internalType": "address",
          "name": "",
          "type": "address"
        }
      ],
      "stateMutability": "view",
      "type": "function"
    },
    {
      "inputs": [],
      "name": "recoveryManager",
      "outputs": [
        {
          "internalType": "contract RecoveryManager",
          "name": "",
          "type": "address"
        }
      ],
      "stateMutability": "view",
      "type": "function"
    },
    {
      "inputs": [],
      "name": "roflWorker",
      "outputs": [
        {
          "internalType": "address",
          "name": "",
          "type": "address"
        }
      ],
      "stateMutability": "view",
      "type": "function"
    },
    {
      "inputs": [
        {
          "internalType": "address",
          "name": "sender",
          "type": "address"
        },
        {
          "internalType": "bool",
          "name": "allowed",
          "type": "bool"
        }
      ],
      "name": "setAllowedSender",
      "outputs": [],
      "stateMutability": "nonpayable",
      "type": "function"
    },
    {
      "inputs": [
        {
          "internalType": "bool",
          "name": "_paused",
          "type": "bool"
        }
      ],
      "name": "setPaused",
      "outputs": [],
      "stateMutability": "nonpayable",
      "type": "function"
    },
    {
      "inputs": [
        {
          "internalType": "address",
          "name": "_roflWorker",
          "type": "address"
        }
      ],
      "name": "setROFLWorker",
      "outputs": [],
      "stateMutability": "nonpayable",
      "type": "function"
    },
    {
      "inputs": [
        {
          "internalType": "address",
          "name": "newOwner",
          "type": "address"
        }
      ],
      "name": "transferOwnership",
      "outputs": [],
      "stateMutability": "nonpayable",
      "type": "function"
    },
    {
      "inputs": [
        {
          "internalType": "uint256",
          "name": "_maxSequenceGap",
          "type": "uint256"
        },
        {
          "internalType": "uint256",
          "name": "_attestationExpiry",
          "type": "uint256"
        }
      ],
      "name": "updateConfig",
      "outputs": [],
      "stateMutability": "nonpayable",
      "type": "function"
    },
    {
      "inputs": [
        {
          "internalType": "address",
          "name": "_grandWardenVault",
          "type": "address"
        },
        {
          "internalType": "address",
          "name": "_walletVault",
          "type": "address"
        },
        {
          "internalType": "address",
          "name": "_deviceRegistry",
          "type": "address"
        },
        {
          "internalType": "address",
          "name": "_atomicVaultManager",
          "type": "address"
        },
        {
          "internalType": "address",
          "name": "_recoveryManager",
          "type": "address"
        }
      ],
      "name": "updateContractAddresses",
      "outputs": [],
      "stateMutability": "nonpayable",
      "type": "function"
    },
    {
      "inputs": [],
      "name": "walletVault",
      "outputs": [
        {
          "internalType": "contract WalletVault",
          "name": "",
          "type": "address"
        }
      ],
      "stateMutability": "view",
      "type": "function"
    }
  ],
  "bytecode": "0x60806040526064600b55610e10600c5534801561001b57600080fd5b506040516156be3803806156be833981810160405281019061003d91906103eb565b600160008190555033600960006101000a81548173ffffffffffffffffffffffffffffffffffffffff021916908373ffffffffffffffffffffffffffffffffffffffff16021790555084600460006101000a81548173ffffffffffffffffffffffffffffffffffffffff021916908373ffffffffffffffffffffffffffffffffffffffff16021790555083600560006101000a81548173ffffffffffffffffffffffffffffffffffffffff021916908373ffffffffffffffffffffffffffffffffffffffff16021790555082600660006101000a81548173ffffffffffffffffffffffffffffffffffffffff021916908373ffffffffffffffffffffffffffffffffffffffff16021790555081600760006101000a81548173ffffffffffffffffffffffffffffffffffffffff021916908373ffffffffffffffffffffffffffffffffffffffff16021790555080600860006101000a81548173ffffffffffffffffffffffffffffffffffffffff021916908373ffffffffffffffffffffffffffffffffffffffff1602179055508473ffffffffffffffffffffffffffffffffffffffff166040516101ee906104bd565b60405180910390207ff611fec7babefd259c57ea5b6006acff8140ab17bb816c65ba0aa7e36c09caa860405160405180910390a38373ffffffffffffffffffffffffffffffffffffffff166040516102459061051e565b60405180910390207ff611fec7babefd259c57ea5b6006acff8140ab17bb816c65ba0aa7e36c09caa860405160405180910390a38273ffffffffffffffffffffffffffffffffffffffff1660405161029c9061057f565b60405180910390207ff611fec7babefd259c57ea5b6006acff8140ab17bb816c65ba0aa7e36c09caa860405160405180910390a38173ffffffffffffffffffffffffffffffffffffffff166040516102f3906105e0565b60405180910390207ff611fec7babefd259c57ea5b6006acff8140ab17bb816c65ba0aa7e36c09caa860405160405180910390a38073ffffffffffffffffffffffffffffffffffffffff1660405161034a90610641565b60405180910390207ff611fec7babefd259c57ea5b6006acff8140ab17bb816c65ba0aa7e36c09caa860405160405180910390a35050505050610656565b600080fd5b600073ffffffffffffffffffffffffffffffffffffffff82169050919050565b60006103b88261038d565b9050919050565b6103c8816103ad565b81146103d357600080fd5b50565b6000815190506103e5816103bf565b92915050565b600080600080600060a0868803121561040757610406610388565b5b6000610415888289016103d6565b9550506020610426888289016103d6565b9450506040610437888289016103d6565b9350506060610448888289016103d6565b9250506080610459888289016103d6565b9150509295509295909350565b600081905092915050565b7f4772616e6457617264656e5661756c7400000000000000000000000000000000600082015250565b60006104a7601083610466565b91506104b282610471565b601082019050919050565b60006104c88261049a565b9150819050919050565b7f57616c6c65745661756c74000000000000000000000000000000000000000000600082015250565b6000610508600b83610466565b9150610513826104d2565b600b82019050919050565b6000610529826104fb565b9150819050919050565b7f4465766963655265676973747279000000000000000000000000000000000000600082015250565b6000610569600e83610466565b915061057482610533565b600e82019050919050565b600061058a8261055c565b9150819050919050565b7f41746f6d69635661756c744d616e616765720000000000000000000000000000600082015250565b60006105ca601283610466565b91506105d582610594565b601282019050919050565b60006105eb826105bd565b9150819050919050565b7f5265636f766572794d616e616765720000000000000000000000000000000000600082015250565b600061062b600f83610466565b9150610636826105f5565b600f82019050919050565b600061064c8261061e565b9150819050919050565b615059806106656000396000f3fe608060405234801561001057600080fd5b50600436106101735760003560e01c80637fe70b03116100de578063a6883f9211610097578063c3f909d411610071578063c3f909d414610404578063de314b1914610424578063f2fde38b14610442578063f80da9801461045e57610173565b8063a6883f921461039a578063b187bd26146103b6578063be8c97b0146103d457610173565b80637fe70b03146102e457806381bea70a146103025780638248e722146103205780638da5cb5b1461033c578063953874d21461035a578063a02bcf8c1461037c57610173565b80634b52ffb0116101305780634b52ffb0146102385780635efb870a14610254578063694e3b911461027257806369d404031461028e5780636a988cc8146102aa57806371764105146102c857610173565b8063027cbeec1461017857806303ad487114610194578063099976ca146101b257806316c38b3c146101d05780632bd52c20146101ec5780632e1bb7c314610208575b600080fd5b610192600480360381019061018d9190612e5a565b61048e565b005b61019c610873565b6040516101a99190612ec5565b60405180910390f35b6101ba610879565b6040516101c79190612f3f565b60405180910390f35b6101ea60048036038101906101e59190612f92565b61089f565b005b61020660048036038101906102019190613058565b61094c565b005b610222600480360381019061021d91906130f2565b610a90565b60405161022f9190613142565b60405180910390f35b610252600480360381019061024d919061315d565b610aed565b005b61025c610c95565b60405161026991906131be565b60405180910390f35b61028c600480360381019061028791906130f2565b610cbb565b005b6102a860048036038101906102a39190613205565b610f27565b005b6102b26114bb565b6040516102bf91906132dc565b60405180910390f35b6102e260048036038101906102dd91906132f7565b6114e1565b005b6102ec611979565b6040516102f99190612ec5565b60405180910390f35b61030a61197f565b6040516103179190613381565b60405180910390f35b61033a6004803603810190610335919061339c565b6119a5565b005b610344611aea565b6040516103519190613381565b60405180910390f35b610362611b10565b6040516103739594939291906133dc565b60405180910390f35b610384611bd8565b6040516103919190613450565b60405180910390f35b6103b460048036038101906103af919061346b565b611bfe565b005b6103be611d3c565b6040516103cb91906134ee565b60405180910390f35b6103ee60048036038101906103e991906130f2565b611d4f565b6040516103fb91906134ee565b60405180910390f35b61040c611dfd565b60405161041b93929190613509565b60405180910390f35b61042c611e23565b6040516104399190613561565b60405180910390f35b61045c600480360381019061045791906130f2565b611e49565b005b6104786004803603810190610473919061357c565b611f8c565b60405161048591906134ee565b60405180910390f35b3073ffffffffffffffffffffffffffffffffffffffff163373ffffffffffffffffffffffffffffffffffffffff16146104fc576040517f08c379a00000000000000000000000000000000000000000000000000000000081526004016104f390613606565b60405180910390fd5b6000600d8111156105105761050f613626565b5b82600d81111561052357610522613626565b5b036105365761053181611fb6565b61086f565b6001600d81111561054a57610549613626565b5b82600d81111561055d5761055c613626565b5b036105705761056b8161202d565b61086e565b6002600d81111561058457610583613626565b5b82600d81111561059757610596613626565b5b036105aa576105a5816120ab565b61086d565b6003600d8111156105be576105bd613626565b5b82600d8111156105d1576105d0613626565b5b036105e4576105df8161212f565b61086c565b6004600d8111156105f8576105f7613626565b5b82600d81111561060b5761060a613626565b5b0361061e57610619816121b3565b61086b565b6005600d81111561063257610631613626565b5b82600d81111561064557610644613626565b5b03610658576106538161223e565b61086a565b6006600d81111561066c5761066b613626565b5b82600d81111561067f5761067e613626565b5b036106925761068d816122c3565b610869565b6007600d8111156106a6576106a5613626565b5b82600d8111156106b9576106b8613626565b5b036106cc576106c781612347565b610868565b6008600d8111156106e0576106df613626565b5b82600d8111156106f3576106f2613626565b5b0361070657610701816123c5565b610867565b6009600d81111561071a57610719613626565b5b82600d81111561072d5761072c613626565b5b036107405761073b81612443565b610866565b600a600d81111561075457610753613626565b5b82600d81111561076757610766613626565b5b0361077a57610775816124c1565b610865565b600b600d81111561078e5761078d613626565b5b82600d8111156107a1576107a0613626565b5b036107b4576107af81612545565b610864565b600c600d8111156107c8576107c7613626565b5b82600d8111156107db576107da613626565b5b036107ee576107e9816125c3565b610863565b600d8081111561080157610800613626565b5b82600d81111561081457610813613626565b5b036108275761082281612641565b610862565b6040517f08c379a0000000000000000000000000000000000000000000000000000000008152600401610859906136a1565b60405180910390fd5b5b5b5b5b5b5b5b5b5b5b5b5b5b5050565b600c5481565b600460009054906101000a900473ffffffffffffffffffffffffffffffffffffffff1681565b600960009054906101000a900473ffffffffffffffffffffffffffffffffffffffff1673ffffffffffffffffffffffffffffffffffffffff163373ffffffffffffffffffffffffffffffffffffffff161461092f576040517f08c379a00000000000000000000000000000000000000000000000000000000081526004016109269061370d565b60405180910390fd5b80600a60146101000a81548160ff02191690831515021790555050565b600360003373ffffffffffffffffffffffffffffffffffffffff1673ffffffffffffffffffffffffffffffffffffffff16815260200190815260200160002060009054906101000a900460ff16806109f15750600a60009054906101000a900473ffffffffffffffffffffffffffffffffffffffff1673ffffffffffffffffffffffffffffffffffffffff163373ffffffffffffffffffffffffffffffffffffffff16145b610a30576040517f08c379a0000000000000000000000000000000000000000000000000000000008152600401610a2790613779565b60405180910390fd5b8573ffffffffffffffffffffffffffffffffffffffff167fe07147de2612374da68288576a193dabdf4c512186a2ff2bf4b198e4cf3219f2868686868642604051610a80969594939291906137e6565b60405180910390a2505050505050565b6000600260008373ffffffffffffffffffffffffffffffffffffffff1673ffffffffffffffffffffffffffffffffffffffff16815260200190815260200160002060009054906101000a900467ffffffffffffffff169050919050565b600960009054906101000a900473ffffffffffffffffffffffffffffffffffffffff1673ffffffffffffffffffffffffffffffffffffffff163373ffffffffffffffffffffffffffffffffffffffff1614610b7d576040517f08c379a0000000000000000000000000000000000000000000000000000000008152600401610b749061370d565b60405180910390fd5b600073ffffffffffffffffffffffffffffffffffffffff168273ffffffffffffffffffffffffffffffffffffffff1603610bec576040517f08c379a0000000000000000000000000000000000000000000000000000000008152600401610be39061388e565b60405180910390fd5b80600360008473ffffffffffffffffffffffffffffffffffffffff1673ffffffffffffffffffffffffffffffffffffffff16815260200190815260200160002060006101000a81548160ff0219169083151502179055508173ffffffffffffffffffffffffffffffffffffffff167fcc41622bb427a8a955192d13b4b960aca0f6e84b047a7332ddce852b161a863d82604051610c8991906134ee565b60405180910390a25050565b600660009054906101000a900473ffffffffffffffffffffffffffffffffffffffff1681565b600960009054906101000a900473ffffffffffffffffffffffffffffffffffffffff1673ffffffffffffffffffffffffffffffffffffffff163373ffffffffffffffffffffffffffffffffffffffff1614610d4b576040517f08c379a0000000000000000000000000000000000000000000000000000000008152600401610d429061370d565b60405180910390fd5b600073ffffffffffffffffffffffffffffffffffffffff168173ffffffffffffffffffffffffffffffffffffffff1603610dba576040517f08c379a0000000000000000000000000000000000000000000000000000000008152600401610db1906138fa565b60405180910390fd5b6000600a60009054906101000a900473ffffffffffffffffffffffffffffffffffffffff16905081600a60006101000a81548173ffffffffffffffffffffffffffffffffffffffff021916908373ffffffffffffffffffffffffffffffffffffffff1602179055506001600360008473ffffffffffffffffffffffffffffffffffffffff1673ffffffffffffffffffffffffffffffffffffffff16815260200190815260200160002060006101000a81548160ff0219169083151502179055508173ffffffffffffffffffffffffffffffffffffffff168173ffffffffffffffffffffffffffffffffffffffff167f0e16b15e8807a9d42d6f6cba2dd3e880e056e5ad007bcdbd1df48bb5c40fbabb60405160405180910390a38173ffffffffffffffffffffffffffffffffffffffff167fcc41622bb427a8a955192d13b4b960aca0f6e84b047a7332ddce852b161a863d6001604051610f1b91906134ee565b60405180910390a25050565b610f2f6126bf565b600360003373ffffffffffffffffffffffffffffffffffffffff1673ffffffffffffffffffffffffffffffffffffffff16815260200190815260200160002060009054906101000a900460ff1680610fd45750600a60009054906101000a900473ffffffffffffffffffffffffffffffffffffffff1673ffffffffffffffffffffffffffffffffffffffff163373ffffffffffffffffffffffffffffffffffffffff16145b611013576040517f08c379a000000000000000000000000000000000000000000000000000000000815260040161100a90613779565b60405180910390fd5b600a60149054906101000a900460ff1615611063576040517f08c379a000000000000000000000000000000000000000000000000000000000815260040161105a90613966565b60405180910390fd5b8460008160000151116110ab576040517f08c379a00000000000000000000000000000000000000000000000000000000081526004016110a2906139f8565b60405180910390fd5b600073ffffffffffffffffffffffffffffffffffffffff16816020015173ffffffffffffffffffffffffffffffffffffffff160361111e576040517f08c379a000000000000000000000000000000000000000000000000000000000815260040161111590613a8a565b60405180910390fd5b600081604001515111611166576040517f08c379a000000000000000000000000000000000000000000000000000000000815260040161115d90613af6565b60405180910390fd5b6001600086815260200190815260200160002060009054906101000a900460ff16156111c7576040517f08c379a00000000000000000000000000000000000000000000000000000000081526004016111be90613b88565b60405180910390fd5b600060026000886020015173ffffffffffffffffffffffffffffffffffffffff1673ffffffffffffffffffffffffffffffffffffffff16815260200190815260200160002060009054906101000a900467ffffffffffffffff1690508067ffffffffffffffff168567ffffffffffffffff1611611279576040517f08c379a000000000000000000000000000000000000000000000000000000000815260040161127090613c1a565b60405180910390fd5b600b548167ffffffffffffffff166112919190613c69565b8567ffffffffffffffff1611156112dd576040517f08c379a00000000000000000000000000000000000000000000000000000000081526004016112d490613d0f565b60405180910390fd5b600084849050111561133e5760006112f685858a612705565b9050806000015161133c576040517f08c379a000000000000000000000000000000000000000000000000000000000815260040161133390613d7b565b60405180910390fd5b505b600180600088815260200190815260200160002060006101000a81548160ff0219169083151502179055508460026000896020015173ffffffffffffffffffffffffffffffffffffffff1673ffffffffffffffffffffffffffffffffffffffff16815260200190815260200160002060006101000a81548167ffffffffffffffff021916908367ffffffffffffffff16021790555060006113df898961294d565b905080156114545788600d8111156113fa576113f9613626565b5b886020015173ffffffffffffffffffffffffffffffffffffffff16887f0ca5e9e72850b3165fe33b8698dacceb3d2e7313a34deee785b8f820a7d19dd48942604051611447929190613d9b565b60405180910390a46114a8565b876020015173ffffffffffffffffffffffffffffffffffffffff16877fb0532d0e2e0806431b7e95b31f1ebe7d6f79c4aba52303bf99330fc5f007d9e74260405161149f9190613e10565b60405180910390a35b5050506114b3612b08565b505050505050565b600560009054906101000a900473ffffffffffffffffffffffffffffffffffffffff1681565b600960009054906101000a900473ffffffffffffffffffffffffffffffffffffffff1673ffffffffffffffffffffffffffffffffffffffff163373ffffffffffffffffffffffffffffffffffffffff1614611571576040517f08c379a00000000000000000000000000000000000000000000000000000000081526004016115689061370d565b60405180910390fd5b600073ffffffffffffffffffffffffffffffffffffffff168573ffffffffffffffffffffffffffffffffffffffff161461163e5784600460006101000a81548173ffffffffffffffffffffffffffffffffffffffff021916908373ffffffffffffffffffffffffffffffffffffffff1602179055508473ffffffffffffffffffffffffffffffffffffffff1660405161160990613e95565b60405180910390207ff611fec7babefd259c57ea5b6006acff8140ab17bb816c65ba0aa7e36c09caa860405160405180910390a35b600073ffffffffffffffffffffffffffffffffffffffff168473ffffffffffffffffffffffffffffffffffffffff161461170b5783600560006101000a81548173ffffffffffffffffffffffffffffffffffffffff021916908373ffffffffffffffffffffffffffffffffffffffff1602179055508373ffffffffffffffffffffffffffffffffffffffff166040516116d690613ef6565b60405180910390207ff611fec7babefd259c57ea5b6006acff8140ab17bb816c65ba0aa7e36c09caa860405160405180910390a35b600073ffffffffffffffffffffffffffffffffffffffff168373ffffffffffffffffffffffffffffffffffffffff16146117d85782600660006101000a81548173ffffffffffffffffffffffffffffffffffffffff021916908373ffffffffffffffffffffffffffffffffffffffff1602179055508273ffffffffffffffffffffffffffffffffffffffff166040516117a390613f57565b60405180910390207ff611fec7babefd259c57ea5b6006acff8140ab17bb816c65ba0aa7e36c09caa860405160405180910390a35b600073ffffffffffffffffffffffffffffffffffffffff168273ffffffffffffffffffffffffffffffffffffffff16146118a55781600760006101000a81548173ffffffffffffffffffffffffffffffffffffffff021916908373ffffffffffffffffffffffffffffffffffffffff1602179055508173ffffffffffffffffffffffffffffffffffffffff1660405161187090613fb8565b60405180910390207ff611fec7babefd259c57ea5b6006acff8140ab17bb816c65ba0aa7e36c09caa860405160405180910390a35b600073ffffffffffffffffffffffffffffffffffffffff168173ffffffffffffffffffffffffffffffffffffffff16146119725780600860006101000a81548173ffffffffffffffffffffffffffffffffffffffff021916908373ffffffffffffffffffffffffffffffffffffffff1602179055508073ffffffffffffffffffffffffffffffffffffffff1660405161193d90614019565b60405180910390207ff611fec7babefd259c57ea5b6006acff8140ab17bb816c65ba0aa7e36c09caa860405160405180910390a35b5050505050565b600b5481565b600a60009054906101000a900473ffffffffffffffffffffffffffffffffffffffff1681565b600960009054906101000a900473ffffffffffffffffffffffffffffffffffffffff1673ffffffffffffffffffffffffffffffffffffffff163373ffffffffffffffffffffffffffffffffffffffff1614611a35576040517f08c379a0000000000000000000000000000000000000000000000000000000008152600401611a2c9061370d565b60405180910390fd5b600082118015611a4757506103e88211155b611a86576040517f08c379a0000000000000000000000000000000000000000000000000000000008152600401611a7d906140a0565b60405180910390fd5b600081118015611a995750620151808111155b611ad8576040517f08c379a0000000000000000000000000000000000000000000000000000000008152600401611acf9061410c565b60405180910390fd5b81600b8190555080600c819055505050565b600960009054906101000a900473ffffffffffffffffffffffffffffffffffffffff1681565b6000806000806000600460009054906101000a900473ffffffffffffffffffffffffffffffffffffffff16600560009054906101000a900473ffffffffffffffffffffffffffffffffffffffff16600660009054906101000a900473ffffffffffffffffffffffffffffffffffffffff16600760009054906101000a900473ffffffffffffffffffffffffffffffffffffffff16600860009054906101000a900473ffffffffffffffffffffffffffffffffffffffff16945094509450945094509091929394565b600760009054906101000a900473ffffffffffffffffffffffffffffffffffffffff1681565b600360003373ffffffffffffffffffffffffffffffffffffffff1673ffffffffffffffffffffffffffffffffffffffff16815260200190815260200160002060009054906101000a900460ff1680611ca35750600a60009054906101000a900473ffffffffffffffffffffffffffffffffffffffff1673ffffffffffffffffffffffffffffffffffffffff163373ffffffffffffffffffffffffffffffffffffffff16145b611ce2576040517f08c379a0000000000000000000000000000000000000000000000000000000008152600401611cd990613779565b60405180910390fd5b8373ffffffffffffffffffffffffffffffffffffffff167fe84588d8fa459997e1a7ad80223d0f074256ddc2893d851e80e8ddfae0aa708284848442604051611d2e949392919061412c565b60405180910390a250505050565b600a60149054906101000a900460ff1681565b6000600360008373ffffffffffffffffffffffffffffffffffffffff1673ffffffffffffffffffffffffffffffffffffffff16815260200190815260200160002060009054906101000a900460ff1680611df65750600a60009054906101000a900473ffffffffffffffffffffffffffffffffffffffff1673ffffffffffffffffffffffffffffffffffffffff168273ffffffffffffffffffffffffffffffffffffffff16145b9050919050565b6000806000600b54600c54600a60149054906101000a900460ff16925092509250909192565b600860009054906101000a900473ffffffffffffffffffffffffffffffffffffffff1681565b600960009054906101000a900473ffffffffffffffffffffffffffffffffffffffff1673ffffffffffffffffffffffffffffffffffffffff163373ffffffffffffffffffffffffffffffffffffffff1614611ed9576040517f08c379a0000000000000000000000000000000000000000000000000000000008152600401611ed09061370d565b60405180910390fd5b600073ffffffffffffffffffffffffffffffffffffffff168173ffffffffffffffffffffffffffffffffffffffff1603611f48576040517f08c379a0000000000000000000000000000000000000000000000000000000008152600401611f3f906141b8565b60405180910390fd5b80600960006101000a81548173ffffffffffffffffffffffffffffffffffffffff021916908373ffffffffffffffffffffffffffffffffffffffff16021790555050565b60006001600083815260200190815260200160002060009054906101000a900460ff169050919050565b6000808260400151806020019051810190611fd19190614202565b9150915081836020015173ffffffffffffffffffffffffffffffffffffffff167fb595bc3f87fa8cb8742f1ddd117b12ff583b391490ef0f3a4dc6979c18b6cc00836040516120209190612ec5565b60405180910390a3505050565b6000806000836040015180602001905181019061204a919061430d565b92509250925082846020015173ffffffffffffffffffffffffffffffffffffffff167f41731f6c2da82fccdc0e88137200cf9c53769d65387dfbaadb71fc7db3ad070a848460405161209d9291906143c0565b60405180910390a350505050565b60008060008084604001518060200190518101906120c99190614405565b935093509350935083856020015173ffffffffffffffffffffffffffffffffffffffff167fef80d2b87ddbf599530f85deecf19c3d7395cbb67a3c1f472da2f71aed7b144185858560405161212093929190614488565b60405180910390a35050505050565b600080600080846040015180602001905181019061214d91906144c6565b935093509350935083856020015173ffffffffffffffffffffffffffffffffffffffff167f828e1840ba5d95bfa626c009cc11a6ae6d780e38128800ec56a6ebdecfcdb9888585856040516121a493929190614558565b60405180910390a35050505050565b600080600080600085604001518060200190518101906121d39190614596565b9450945094509450945084866020015173ffffffffffffffffffffffffffffffffffffffff167fb0fc5cb6d0b49b3ad4426f72ef5247d3440ae37e93d789e8f9a2c67589ff857b8686868660405161222e9493929190614649565b60405180910390a3505050505050565b600080600080846040015180602001905181019061225c9190614774565b9350935093509350846020015173ffffffffffffffffffffffffffffffffffffffff167f35e5764504990c4ccfbdcbf124d5048442af016be53bb958aa44f567b4656701858585856040516122b494939291906148d1565b60405180910390a25050505050565b60008060008084604001518060200190518101906122e19190614924565b935093509350935083856020015173ffffffffffffffffffffffffffffffffffffffff167fa2ff329975cafeb84fb81c3628bd9c45e2e9a3ae6e658184eb970ee09137088f8585856040516123389392919061498b565b60405180910390a35050505050565b600080600083604001518060200190518101906123649190614a00565b92509250925082846020015173ffffffffffffffffffffffffffffffffffffffff167f7a727617db8a93dba64a65c20c436a18841e5ee613590539fc2c76a57c6201f684846040516123b7929190614a53565b60405180910390a350505050565b600080600083604001518060200190518101906123e29190614a91565b92509250925082846020015173ffffffffffffffffffffffffffffffffffffffff167fb8f959be628c0e750bf3c5588d7e97b6801d40703c6f052b5bb2f4557e2cb29d8484604051612435929190614ae4565b60405180910390a350505050565b60008060008360400151806020019051810190612460919061430d565b92509250925082846020015173ffffffffffffffffffffffffffffffffffffffff167fc59e9acdcf0030353df284bc7ac7386e5143ad76c9198a0cc7a4e661dd6a9ab484846040516124b39291906143c0565b60405180910390a350505050565b60008060008084604001518060200190518101906124df9190614b0d565b935093509350935083856020015173ffffffffffffffffffffffffffffffffffffffff167f48ca9a6b614aef487d5456d02dbc4786edcd4b98019f285ec08dc1e336bffcec85858560405161253693929190614b74565b60405180910390a35050505050565b60008060008360400151806020019051810190612562919061430d565b92509250925082846020015173ffffffffffffffffffffffffffffffffffffffff167f335f18001e1831cb515b8b368d5970505121db232ea1f377bca3a0542a7b9c3484846040516125b59291906143c0565b60405180910390a350505050565b600080600083604001518060200190518101906125e09190614bab565b92509250925082846020015173ffffffffffffffffffffffffffffffffffffffff167f6fadd2e0dea6790aaa65f9db7b5270ebf3aedf941e9d20b22baf99723b9e83dd8484604051612633929190614bfe565b60405180910390a350505050565b6000806000836040015180602001905181019061265e919061430d565b92509250925082846020015173ffffffffffffffffffffffffffffffffffffffff167fe22b563242f21e2048c8dea1f967b59dce63deb48b71da2a4c19c9cfe3e0774b84846040516126b19291906143c0565b60405180910390a350505050565b6002600054036126fb576040517f3ee5aeb500000000000000000000000000000000000000000000000000000000815260040160405180910390fd5b6002600081905550565b61270d612b12565b6041848490501015612756576040518060600160405280600015158152602001600073ffffffffffffffffffffffffffffffffffffffff16815260200160008152509050612946565b600080600080870135925060208701359150604087013560001a9050600085602001518660400151876060015160405160200161279593929190614c6b565b604051602081830303815290604052805190602001206040516020016127bb9190614d16565b6040516020818303038152906040528051906020012090506000600182848787604051600081526020016040526040516127f89493929190614d3c565b6020604051602081039080840390855afa15801561281a573d6000803e3d6000fd5b505050602060405103519050600073ffffffffffffffffffffffffffffffffffffffff168173ffffffffffffffffffffffffffffffffffffffff160361289c576040518060600160405280600015158152602001600073ffffffffffffffffffffffffffffffffffffffff168152602001600081525095505050505050612946565b6000600360008373ffffffffffffffffffffffffffffffffffffffff1673ffffffffffffffffffffffffffffffffffffffff16815260200190815260200160002060009054906101000a900460ff1680156129085750600c5488606001516129049190613c69565b4211155b9050604051806060016040528082151581526020018373ffffffffffffffffffffffffffffffffffffffff1681526020014281525096505050505050505b9392505050565b60003073ffffffffffffffffffffffffffffffffffffffff1663027cbeec84846040518363ffffffff1660e01b815260040161298a929190614eba565b600060405180830381600087803b1580156129a457600080fd5b505af19250505080156129b5575060015b612afd576129c1614ef7565b806308c379a003612a6f57506129d5614f19565b806129e05750612a71565b826020015173ffffffffffffffffffffffffffffffffffffffff168360a001518460600151604051602001612a16929190614bfe565b604051602081830303815290604052805190602001207fb0532d0e2e0806431b7e95b31f1ebe7d6f79c4aba52303bf99330fc5f007d9e78342604051612a5d9291906143c0565b60405180910390a36000915050612b02565b505b816020015173ffffffffffffffffffffffffffffffffffffffff168260a001518360600151604051602001612aa7929190614bfe565b604051602081830303815290604052805190602001207fb0532d0e2e0806431b7e95b31f1ebe7d6f79c4aba52303bf99330fc5f007d9e742604051612aec9190614ff5565b60405180910390a360009050612b02565b600190505b92915050565b6001600081905550565b6040518060600160405280600015158152602001600073ffffffffffffffffffffffffffffffffffffffff168152602001600081525090565b6000604051905090565b600080fd5b600080fd5b600e8110612b6c57600080fd5b50565b600081359050612b7e81612b5f565b92915050565b600080fd5b6000601f19601f8301169050919050565b7f4e487b7100000000000000000000000000000000000000000000000000000000600052604160045260246000fd5b612bd282612b89565b810181811067ffffffffffffffff82111715612bf157612bf0612b9a565b5b80604052505050565b6000612c04612b4b565b9050612c108282612bc9565b919050565b600080fd5b6000819050919050565b612c2d81612c1a565b8114612c3857600080fd5b50565b600081359050612c4a81612c24565b92915050565b600073ffffffffffffffffffffffffffffffffffffffff82169050919050565b6000612c7b82612c50565b9050919050565b612c8b81612c70565b8114612c9657600080fd5b50565b600081359050612ca881612c82565b92915050565b600080fd5b600080fd5b600067ffffffffffffffff821115612cd357612cd2612b9a565b5b612cdc82612b89565b9050602081019050919050565b82818337600083830152505050565b6000612d0b612d0684612cb8565b612bfa565b905082815260208101848484011115612d2757612d26612cb3565b5b612d32848285612ce9565b509392505050565b600082601f830112612d4f57612d4e612cae565b5b8135612d5f848260208601612cf8565b91505092915050565b6000819050919050565b612d7b81612d68565b8114612d8657600080fd5b50565b600081359050612d9881612d72565b92915050565b600060c08284031215612db457612db3612b84565b5b612dbe60c0612bfa565b90506000612dce84828501612c3b565b6000830152506020612de284828501612c99565b602083015250604082013567ffffffffffffffff811115612e0657612e05612c15565b5b612e1284828501612d3a565b6040830152506060612e2684828501612c3b565b6060830152506080612e3a84828501612d89565b60808301525060a0612e4e84828501612d89565b60a08301525092915050565b60008060408385031215612e7157612e70612b55565b5b6000612e7f85828601612b6f565b925050602083013567ffffffffffffffff811115612ea057612e9f612b5a565b5b612eac85828601612d9e565b9150509250929050565b612ebf81612c1a565b82525050565b6000602082019050612eda6000830184612eb6565b92915050565b6000819050919050565b6000612f05612f00612efb84612c50565b612ee0565b612c50565b9050919050565b6000612f1782612eea565b9050919050565b6000612f2982612f0c565b9050919050565b612f3981612f1e565b82525050565b6000602082019050612f546000830184612f30565b92915050565b60008115159050919050565b612f6f81612f5a565b8114612f7a57600080fd5b50565b600081359050612f8c81612f66565b92915050565b600060208284031215612fa857612fa7612b55565b5b6000612fb684828501612f7d565b91505092915050565b600060ff82169050919050565b612fd581612fbf565b8114612fe057600080fd5b50565b600081359050612ff281612fcc565b92915050565b600080fd5b600080fd5b60008083601f84011261301857613017612cae565b5b8235905067ffffffffffffffff81111561303557613034612ff8565b5b60208301915083600182028301111561305157613050612ffd565b5b9250929050565b60008060008060008060a0878903121561307557613074612b55565b5b600061308389828a01612c99565b965050602061309489828a01612fe3565b95505060406130a589828a01612fe3565b94505060606130b689828a01612f7d565b935050608087013567ffffffffffffffff8111156130d7576130d6612b5a565b5b6130e389828a01613002565b92509250509295509295509295565b60006020828403121561310857613107612b55565b5b600061311684828501612c99565b91505092915050565b600067ffffffffffffffff82169050919050565b61313c8161311f565b82525050565b60006020820190506131576000830184613133565b92915050565b6000806040838503121561317457613173612b55565b5b600061318285828601612c99565b925050602061319385828601612f7d565b9150509250929050565b60006131a882612f0c565b9050919050565b6131b88161319d565b82525050565b60006020820190506131d360008301846131af565b92915050565b6131e28161311f565b81146131ed57600080fd5b50565b6000813590506131ff816131d9565b92915050565b60008060008060008060a0878903121561322257613221612b55565b5b600061323089828a01612b6f565b965050602087013567ffffffffffffffff81111561325157613250612b5a565b5b61325d89828a01612d9e565b955050604061326e89828a01612d89565b945050606061327f89828a016131f0565b935050608087013567ffffffffffffffff8111156132a05761329f612b5a565b5b6132ac89828a01613002565b92509250509295509295509295565b60006132c682612f0c565b9050919050565b6132d6816132bb565b82525050565b60006020820190506132f160008301846132cd565b92915050565b600080600080600060a0868803121561331357613312612b55565b5b600061332188828901612c99565b955050602061333288828901612c99565b945050604061334388828901612c99565b935050606061335488828901612c99565b925050608061336588828901612c99565b9150509295509295909350565b61337b81612c70565b82525050565b60006020820190506133966000830184613372565b92915050565b600080604083850312156133b3576133b2612b55565b5b60006133c185828601612c3b565b92505060206133d285828601612c3b565b9150509250929050565b600060a0820190506133f16000830188613372565b6133fe6020830187613372565b61340b6040830186613372565b6134186060830185613372565b6134256080830184613372565b9695505050505050565b600061343a82612f0c565b9050919050565b61344a8161342f565b82525050565b60006020820190506134656000830184613441565b92915050565b6000806000806060858703121561348557613484612b55565b5b600061349387828801612c99565b94505060206134a487828801612fe3565b935050604085013567ffffffffffffffff8111156134c5576134c4612b5a565b5b6134d187828801613002565b925092505092959194509250565b6134e881612f5a565b82525050565b600060208201905061350360008301846134df565b92915050565b600060608201905061351e6000830186612eb6565b61352b6020830185612eb6565b61353860408301846134df565b949350505050565b600061354b82612f0c565b9050919050565b61355b81613540565b82525050565b60006020820190506135766000830184613552565b92915050565b60006020828403121561359257613591612b55565b5b60006135a084828501612d89565b91505092915050565b600082825260208201905092915050565b7f4d6972726f72496e626f783a20696e7465726e616c206f6e6c79000000000000600082015250565b60006135f0601a836135a9565b91506135fb826135ba565b602082019050919050565b6000602082019050818103600083015261361f816135e3565b9050919050565b7f4e487b7100000000000000000000000000000000000000000000000000000000600052602160045260246000fd5b7f4d6972726f72496e626f783a20756e6b6e6f776e206576656e74207479706500600082015250565b600061368b601f836135a9565b915061369682613655565b602082019050919050565b600060208201905081810360008301526136ba8161367e565b9050919050565b7f4d6972726f72496e626f783a206e6f74206f776e657200000000000000000000600082015250565b60006136f76016836135a9565b9150613702826136c1565b602082019050919050565b60006020820190508181036000830152613726816136ea565b9050919050565b7f4d6972726f72496e626f783a206e6f7420616c6c6f7765640000000000000000600082015250565b60006137636018836135a9565b915061376e8261372d565b602082019050919050565b6000602082019050818103600083015261379281613756565b9050919050565b6137a281612fbf565b82525050565b600082825260208201905092915050565b60006137c583856137a8565b93506137d2838584612ce9565b6137db83612b89565b840190509392505050565b600060a0820190506137fb6000830189613799565b6138086020830188613799565b61381560408301876134df565b81810360608301526138288185876137b9565b90506138376080830184612eb6565b979650505050505050565b7f4d6972726f72496e626f783a20696e76616c69642073656e6465720000000000600082015250565b6000613878601b836135a9565b915061388382613842565b602082019050919050565b600060208201905081810360008301526138a78161386b565b9050919050565b7f4d6972726f72496e626f783a20696e76616c696420524f464c20776f726b6572600082015250565b60006138e46020836135a9565b91506138ef826138ae565b602082019050919050565b60006020820190508181036000830152613913816138d7565b9050919050565b7f4d6972726f72496e626f783a2070617573656400000000000000000000000000600082015250565b60006139506013836135a9565b915061395b8261391a565b602082019050919050565b6000602082019050818103600083015261397f81613943565b9050919050565b7f4d6972726f72496e626f783a20696e76616c6964207061796c6f61642076657260008201527f73696f6e00000000000000000000000000000000000000000000000000000000602082015250565b60006139e26024836135a9565b91506139ed82613986565b604082019050919050565b60006020820190508181036000830152613a11816139d5565b9050919050565b7f4d6972726f72496e626f783a20696e76616c696420757365722061646472657360008201527f7300000000000000000000000000000000000000000000000000000000000000602082015250565b6000613a746021836135a9565b9150613a7f82613a18565b604082019050919050565b60006020820190508181036000830152613aa381613a67565b9050919050565b7f4d6972726f72496e626f783a20656d707479207061796c6f6164206461746100600082015250565b6000613ae0601f836135a9565b9150613aeb82613aaa565b602082019050919050565b60006020820190508181036000830152613b0f81613ad3565b9050919050565b7f4d6972726f72496e626f783a206576656e7420616c72656164792070726f636560008201527f7373656400000000000000000000000000000000000000000000000000000000602082015250565b6000613b726024836135a9565b9150613b7d82613b16565b604082019050919050565b60006020820190508181036000830152613ba181613b65565b9050919050565b7f4d6972726f72496e626f783a2073657175656e6365206e6f74206d6f6e6f746f60008201527f6e69630000000000000000000000000000000000000000000000000000000000602082015250565b6000613c046023836135a9565b9150613c0f82613ba8565b604082019050919050565b60006020820190508181036000830152613c3381613bf7565b9050919050565b7f4e487b7100000000000000000000000000000000000000000000000000000000600052601160045260246000fd5b6000613c7482612c1a565b9150613c7f83612c1a565b9250828201905080821115613c9757613c96613c3a565b5b92915050565b7f4d6972726f72496e626f783a2073657175656e63652067617020746f6f206c6160008201527f7267650000000000000000000000000000000000000000000000000000000000602082015250565b6000613cf96023836135a9565b9150613d0482613c9d565b604082019050919050565b60006020820190508181036000830152613d2881613cec565b9050919050565b7f4d6972726f72496e626f783a20696e76616c6964206174746573746174696f6e600082015250565b6000613d656020836135a9565b9150613d7082613d2f565b602082019050919050565b60006020820190508181036000830152613d9481613d58565b9050919050565b6000604082019050613db06000830185613133565b613dbd6020830184612eb6565b9392505050565b7f6469737061746368206661696c65640000000000000000000000000000000000600082015250565b6000613dfa600f836135a9565b9150613e0582613dc4565b602082019050919050565b60006040820190508181036000830152613e2981613ded565b9050613e386020830184612eb6565b92915050565b600081905092915050565b7f4772616e6457617264656e5661756c7400000000000000000000000000000000600082015250565b6000613e7f601083613e3e565b9150613e8a82613e49565b601082019050919050565b6000613ea082613e72565b9150819050919050565b7f57616c6c65745661756c74000000000000000000000000000000000000000000600082015250565b6000613ee0600b83613e3e565b9150613eeb82613eaa565b600b82019050919050565b6000613f0182613ed3565b9150819050919050565b7f4465766963655265676973747279000000000000000000000000000000000000600082015250565b6000613f41600e83613e3e565b9150613f4c82613f0b565b600e82019050919050565b6000613f6282613f34565b9150819050919050565b7f41746f6d69635661756c744d616e616765720000000000000000000000000000600082015250565b6000613fa2601283613e3e565b9150613fad82613f6c565b601282019050919050565b6000613fc382613f95565b9150819050919050565b7f5265636f766572794d616e616765720000000000000000000000000000000000600082015250565b6000614003600f83613e3e565b915061400e82613fcd565b600f82019050919050565b600061402482613ff6565b9150819050919050565b7f4d6972726f72496e626f783a20696e76616c69642073657175656e636520676160008201527f7000000000000000000000000000000000000000000000000000000000000000602082015250565b600061408a6021836135a9565b91506140958261402e565b604082019050919050565b600060208201905081810360008301526140b98161407d565b9050919050565b7f4d6972726f72496e626f783a20696e76616c6964206578706972790000000000600082015250565b60006140f6601b836135a9565b9150614101826140c0565b602082019050919050565b60006020820190508181036000830152614125816140e9565b9050919050565b60006060820190506141416000830187613799565b81810360208301526141548185876137b9565b90506141636040830184612eb6565b95945050505050565b7f4d6972726f72496e626f783a20696e76616c6964206e6577206f776e65720000600082015250565b60006141a2601e836135a9565b91506141ad8261416c565b602082019050919050565b600060208201905081810360008301526141d181614195565b9050919050565b6000815190506141e781612d72565b92915050565b6000815190506141fc81612c24565b92915050565b6000806040838503121561421957614218612b55565b5b6000614227858286016141d8565b9250506020614238858286016141ed565b9150509250929050565b600067ffffffffffffffff82111561425d5761425c612b9a565b5b61426682612b89565b9050602081019050919050565b60005b83811015614291578082015181840152602081019050614276565b60008484015250505050565b60006142b06142ab84614242565b612bfa565b9050828152602081018484840111156142cc576142cb612cb3565b5b6142d7848285614273565b509392505050565b600082601f8301126142f4576142f3612cae565b5b815161430484826020860161429d565b91505092915050565b60008060006060848603121561432657614325612b55565b5b6000614334868287016141d8565b935050602084015167ffffffffffffffff81111561435557614354612b5a565b5b614361868287016142df565b9250506040614372868287016141ed565b9150509250925092565b600081519050919050565b60006143928261437c565b61439c81856135a9565b93506143ac818560208601614273565b6143b581612b89565b840191505092915050565b600060408201905081810360008301526143da8185614387565b90506143e96020830184612eb6565b9392505050565b6000815190506143ff81612fcc565b92915050565b6000806000806080858703121561441f5761441e612b55565b5b600061442d878288016141d8565b945050602061443e878288016143f0565b935050604061444f878288016141ed565b925050606085015167ffffffffffffffff8111156144705761446f612b5a565b5b61447c878288016142df565b91505092959194509250565b600060608201905061449d6000830186613799565b6144aa6020830185612eb6565b81810360408301526144bc8184614387565b9050949350505050565b600080600080608085870312156144e0576144df612b55565b5b60006144ee878288016141d8565b945050602085015167ffffffffffffffff81111561450f5761450e612b5a565b5b61451b878288016142df565b935050604061452c878288016141d8565b925050606061453d878288016141ed565b91505092959194509250565b61455281612d68565b82525050565b600060608201905081810360008301526145728186614387565b90506145816020830185614549565b61458e6040830184612eb6565b949350505050565b600080600080600060a086880312156145b2576145b1612b55565b5b60006145c0888289016141d8565b955050602086015167ffffffffffffffff8111156145e1576145e0612b5a565b5b6145ed888289016142df565b94505060406145fe888289016141d8565b935050606086015167ffffffffffffffff81111561461f5761461e612b5a565b5b61462b888289016142df565b925050608061463c888289016141ed565b9150509295509295909350565b600060808201905081810360008301526146638187614387565b90506146726020830186614549565b81810360408301526146848185614387565b90506146936060830184612eb6565b95945050505050565b600067ffffffffffffffff8211156146b7576146b6612b9a565b5b602082029050602081019050919050565b6000815190506146d781612c82565b92915050565b60006146f06146eb8461469c565b612bfa565b9050808382526020820190506020840283018581111561471357614712612ffd565b5b835b8181101561473c578061472888826146c8565b845260208401935050602081019050614715565b5050509392505050565b600082601f83011261475b5761475a612cae565b5b815161476b8482602086016146dd565b91505092915050565b6000806000806080858703121561478e5761478d612b55565b5b600085015167ffffffffffffffff8111156147ac576147ab612b5a565b5b6147b8878288016142df565b94505060206147c9878288016143f0565b935050604085015167ffffffffffffffff8111156147ea576147e9612b5a565b5b6147f687828801614746565b9250506060614807878288016141ed565b91505092959194509250565b600081519050919050565b600082825260208201905092915050565b6000819050602082019050919050565b61484881612c70565b82525050565b600061485a838361483f565b60208301905092915050565b6000602082019050919050565b600061487e82614813565b614888818561481e565b93506148938361482f565b8060005b838110156148c45781516148ab888261484e565b97506148b683614866565b925050600181019050614897565b5085935050505092915050565b600060808201905081810360008301526148eb8187614387565b90506148fa6020830186613799565b818103604083015261490c8185614873565b905061491b6060830184612eb6565b95945050505050565b6000806000806080858703121561493e5761493d612b55565b5b600061494c878288016141d8565b945050602061495d878288016143f0565b935050604061496e878288016141ed565b925050606061497f878288016141ed565b91505092959194509250565b60006060820190506149a06000830186613799565b6149ad6020830185612eb6565b6149ba6040830184612eb6565b949350505050565b60006149cd82612c50565b9050919050565b6149dd816149c2565b81146149e857600080fd5b50565b6000815190506149fa816149d4565b92915050565b600080600060608486031215614a1957614a18612b55565b5b6000614a27868287016141d8565b9350506020614a38868287016149eb565b9250506040614a49868287016141ed565b9150509250925092565b6000604082019050614a686000830185613372565b614a756020830184612eb6565b9392505050565b600081519050614a8b81612f66565b92915050565b600080600060608486031215614aaa57614aa9612b55565b5b6000614ab8868287016141d8565b9350506020614ac986828701614a7c565b9250506040614ada868287016141ed565b9150509250925092565b6000604082019050614af960008301856134df565b614b066020830184612eb6565b9392505050565b60008060008060808587031215614b2757614b26612b55565b5b6000614b35878288016141d8565b9450506020614b46878288016141d8565b9350506040614b57878288016143f0565b9250506060614b68878288016141ed565b91505092959194509250565b6000606082019050614b896000830186614549565b614b966020830185613799565b614ba36040830184612eb6565b949350505050565b600080600060608486031215614bc457614bc3612b55565b5b6000614bd2868287016141d8565b9350506020614be3868287016141d8565b9250506040614bf4868287016141ed565b9150509250925092565b6000604082019050614c136000830185614549565b614c206020830184612eb6565b9392505050565b600081519050919050565b6000614c3d82614c27565b614c4781856137a8565b9350614c57818560208601614273565b614c6081612b89565b840191505092915050565b6000606082019050614c806000830186613372565b8181036020830152614c928185614c32565b9050614ca16040830184612eb6565b949350505050565b7f19457468657265756d205369676e6564204d6573736167653a0a333200000000600082015250565b6000614cdf601c83613e3e565b9150614cea82614ca9565b601c82019050919050565b6000819050919050565b614d10614d0b82612d68565b614cf5565b82525050565b6000614d2182614cd2565b9150614d2d8284614cff565b60208201915081905092915050565b6000608082019050614d516000830187614549565b614d5e6020830186613799565b614d6b6040830185614549565b614d786060830184614549565b95945050505050565b600e8110614d9257614d91613626565b5b50565b6000819050614da382614d81565b919050565b6000614db382614d95565b9050919050565b614dc381614da8565b82525050565b614dd281612c1a565b82525050565b600082825260208201905092915050565b6000614df482614c27565b614dfe8185614dd8565b9350614e0e818560208601614273565b614e1781612b89565b840191505092915050565b614e2b81612d68565b82525050565b600060c083016000830151614e496000860182614dc9565b506020830151614e5c602086018261483f565b5060408301518482036040860152614e748282614de9565b9150506060830151614e896060860182614dc9565b506080830151614e9c6080860182614e22565b5060a0830151614eaf60a0860182614e22565b508091505092915050565b6000604082019050614ecf6000830185614dba565b8181036020830152614ee18184614e31565b90509392505050565b60008160e01c9050919050565b600060033d1115614f165760046000803e614f13600051614eea565b90505b90565b600060443d10614fa657614f2b612b4b565b60043d036004823e80513d602482011167ffffffffffffffff82111715614f53575050614fa6565b808201805167ffffffffffffffff811115614f715750505050614fa6565b80602083010160043d038501811115614f8e575050505050614fa6565b614f9d82602001850186612bc9565b82955050505050505b90565b7f756e6b6e6f776e206469737061746368206572726f7200000000000000000000600082015250565b6000614fdf6016836135a9565b9150614fea82614fa9565b602082019050919050565b6000604082019050818103600083015261500e81614fd2565b905061501d6020830184612eb6565b9291505056fea2646970667358221220b9ac5c223172637d86c301c767900e70cd14ab2a97a2eebcbe4fdafcbbd0263764736f6c634300081c0033",
  "linkReferences": {},
  "deployedLinkReferences": {}
}