{
  "_format": "hh-sol-artifact-1",
  "contractName": "DeviceRegistry",
  "sourceName": "contracts/DeviceRegistry.sol",
  "abi": [
    {
      "inputs": [],
      "stateMutability": "nonpayable",
      "type": "constructor"
    },
    {
      "anonymous": false,
      "inputs": [
        {
          "indexed": true,
          "internalType": "address",
          "name": "user",
          "type": "address"
        },
        {
          "indexed": true,
          "internalType": "bytes32",
          "name": "resourceId",
          "type": "bytes32"
        },
        {
          "indexed": false,
          "internalType": "address",
          "name": "grantee",
          "type": "address"
        }
      ],
      "name": "AccessGranted",
      "type": "event"
    },
    {
      "anonymous": false,
      "inputs": [
        {
          "indexed": true,
          "internalType": "address",
          "name": "user",
          "type": "address"
        },
        {
          "indexed": true,
          "internalType": "bytes32",
          "name": "resourceId",
          "type": "bytes32"
        },
        {
          "indexed": false,
          "internalType": "address",
          "name": "revokee",
          "type": "address"
        }
      ],
      "name": "AccessRevoked",
      "type": "event"
    },
    {
      "anonymous": false,
      "inputs": [
        {
          "indexed": true,
          "internalType": "address",
          "name": "user",
          "type": "address"
        },
        {
          "indexed": true,
          "internalType": "bytes32",
          "name": "walletId",
          "type": "bytes32"
        },
        {
          "indexed": false,
          "internalType": "uint8",
          "name": "chainType",
          "type": "uint8"
        },
        {
          "indexed": false,
          "internalType": "uint256",
          "name": "newBalance",
          "type": "uint256"
        }
      ],
      "name": "ChainBalanceUpdated",
      "type": "event"
    },
    {
      "anonymous": false,
      "inputs": [
        {
          "indexed": true,
          "internalType": "address",
          "name": "user",
          "type": "address"
        },
        {
          "indexed": true,
          "internalType": "bytes32",
          "name": "operationId",
          "type": "bytes32"
        },
        {
          "indexed": false,
          "internalType": "bool",
          "name": "success",
          "type": "bool"
        }
      ],
      "name": "CrossChainOperationCompleted",
      "type": "event"
    },
    {
      "anonymous": false,
      "inputs": [
        {
          "indexed": true,
          "internalType": "address",
          "name": "user",
          "type": "address"
        },
        {
          "indexed": true,
          "internalType": "bytes32",
          "name": "operationId",
          "type": "bytes32"
        },
        {
          "indexed": false,
          "internalType": "uint8",
          "name": "sourceChain",
          "type": "uint8"
        },
        {
          "indexed": false,
          "internalType": "uint8",
          "name": "targetChain",
          "type": "uint8"
        }
      ],
      "name": "CrossChainOperationStarted",
      "type": "event"
    },
    {
      "anonymous": false,
      "inputs": [
        {
          "indexed": true,
          "internalType": "address",
          "name": "user",
          "type": "address"
        },
        {
          "indexed": true,
          "internalType": "bytes32",
          "name": "deviceId",
          "type": "bytes32"
        },
        {
          "indexed": false,
          "internalType": "uint256",
          "name": "timestamp",
          "type": "uint256"
        }
      ],
      "name": "DeviceAuthenticated",
      "type": "event"
    },
    {
      "anonymous": false,
      "inputs": [
        {
          "indexed": true,
          "internalType": "address",
          "name": "user",
          "type": "address"
        },
        {
          "indexed": true,
          "internalType": "bytes32",
          "name": "deviceId",
          "type": "bytes32"
        },
        {
          "indexed": false,
          "internalType": "address",
          "name": "deviceAddress",
          "type": "address"
        }
      ],
      "name": "DeviceAuthorized",
      "type": "event"
    },
    {
      "anonymous": false,
      "inputs": [
        {
          "indexed": true,
          "internalType": "address",
          "name": "user",
          "type": "address"
        },
        {
          "indexed": true,
          "internalType": "bytes32",
          "name": "deviceId",
          "type": "bytes32"
        },
        {
          "indexed": false,
          "internalType": "string",
          "name": "deviceName",
          "type": "string"
        }
      ],
      "name": "DeviceRegistered",
      "type": "event"
    },
    {
      "anonymous": false,
      "inputs": [
        {
          "indexed": true,
          "internalType": "address",
          "name": "user",
          "type": "address"
        },
        {
          "indexed": true,
          "internalType": "bytes32",
          "name": "deviceId",
          "type": "bytes32"
        },
        {
          "indexed": false,
          "internalType": "uint256",
          "name": "timestamp",
          "type": "uint256"
        }
      ],
      "name": "DeviceRevoked",
      "type": "event"
    },
    {
      "anonymous": false,
      "inputs": [
        {
          "indexed": true,
          "internalType": "address",
          "name": "user",
          "type": "address"
        },
        {
          "indexed": true,
          "internalType": "bytes32",
          "name": "deviceId",
          "type": "bytes32"
        },
        {
          "indexed": false,
          "internalType": "enum DeviceRegistry.DeviceStatus",
          "name": "newStatus",
          "type": "uint8"
        }
      ],
      "name": "DeviceStatusChanged",
      "type": "event"
    },
    {
      "anonymous": false,
      "inputs": [
        {
          "indexed": true,
          "internalType": "address",
          "name": "admin",
          "type": "address"
        },
        {
          "indexed": false,
          "internalType": "string",
          "name": "reason",
          "type": "string"
        },
        {
          "indexed": false,
          "internalType": "uint256",
          "name": "timestamp",
          "type": "uint256"
        }
      ],
      "name": "EmergencyShutdown",
      "type": "event"
    },
    {
      "anonymous": false,
      "inputs": [
        {
          "indexed": true,
          "internalType": "address",
          "name": "user",
          "type": "address"
        },
        {
          "indexed": false,
          "internalType": "uint8",
          "name": "eventType",
          "type": "uint8"
        },
        {
          "indexed": false,
          "internalType": "bytes",
          "name": "data",
          "type": "bytes"
        }
      ],
      "name": "GenericVaultEvent",
      "type": "event"
    },
    {
      "anonymous": false,
      "inputs": [
        {
          "indexed": true,
          "internalType": "address",
          "name": "user",
          "type": "address"
        },
        {
          "indexed": false,
          "internalType": "uint8",
          "name": "alertType",
          "type": "uint8"
        },
        {
          "indexed": false,
          "internalType": "string",
          "name": "description",
          "type": "string"
        },
        {
          "indexed": false,
          "internalType": "uint256",
          "name": "timestamp",
          "type": "uint256"
        }
      ],
      "name": "SecurityAlert",
      "type": "event"
    },
    {
      "anonymous": false,
      "inputs": [
        {
          "indexed": false,
          "internalType": "uint256",
          "name": "timestamp",
          "type": "uint256"
        },
        {
          "indexed": false,
          "internalType": "bool",
          "name": "healthy",
          "type": "bool"
        },
        {
          "indexed": false,
          "internalType": "string",
          "name": "details",
          "type": "string"
        }
      ],
      "name": "SystemHealthCheck",
      "type": "event"
    },
    {
      "anonymous": false,
      "inputs": [
        {
          "indexed": true,
          "internalType": "address",
          "name": "admin",
          "type": "address"
        },
        {
          "indexed": false,
          "internalType": "uint256",
          "name": "timestamp",
          "type": "uint256"
        }
      ],
      "name": "SystemRecovery",
      "type": "event"
    },
    {
      "anonymous": false,
      "inputs": [
        {
          "indexed": true,
          "internalType": "address",
          "name": "user",
          "type": "address"
        },
        {
          "indexed": true,
          "internalType": "bytes32",
          "name": "walletId",
          "type": "bytes32"
        },
        {
          "indexed": false,
          "internalType": "bytes32",
          "name": "txHash",
          "type": "bytes32"
        },
        {
          "indexed": false,
          "internalType": "uint8",
          "name": "chainType",
          "type": "uint8"
        }
      ],
      "name": "TransactionSigned",
      "type": "event"
    },
    {
      "anonymous": false,
      "inputs": [
        {
          "indexed": true,
          "internalType": "address",
          "name": "user",
          "type": "address"
        },
        {
          "indexed": false,
          "internalType": "address",
          "name": "unauthorized",
          "type": "address"
        },
        {
          "indexed": false,
          "internalType": "string",
          "name": "resource",
          "type": "string"
        }
      ],
      "name": "UnauthorizedAccess",
      "type": "event"
    },
    {
      "anonymous": false,
      "inputs": [
        {
          "indexed": true,
          "internalType": "address",
          "name": "user",
          "type": "address"
        },
        {
          "indexed": false,
          "internalType": "uint8",
          "name": "flowType",
          "type": "uint8"
        },
        {
          "indexed": false,
          "internalType": "uint8",
          "name": "step",
          "type": "uint8"
        },
        {
          "indexed": false,
          "internalType": "bool",
          "name": "success",
          "type": "bool"
        },
        {
          "indexed": false,
          "internalType": "bytes",
          "name": "data",
          "type": "bytes"
        }
      ],
      "name": "UserFlowEvent",
      "type": "event"
    },
    {
      "inputs": [],
      "name": "authChallengeExpiry",
      "outputs": [
        {
          "internalType": "uint256",
          "name": "",
          "type": "uint256"
        }
      ],
      "stateMutability": "view",
      "type": "function"
    },
    {
      "inputs": [
        {
          "internalType": "bytes32",
          "name": "deviceId",
          "type": "bytes32"
        },
        {
          "internalType": "bytes32",
          "name": "challenge",
          "type": "bytes32"
        },
        {
          "internalType": "bytes",
          "name": "signature",
          "type": "bytes"
        }
      ],
      "name": "authenticateDevice",
      "outputs": [
        {
          "internalType": "bool",
          "name": "success",
          "type": "bool"
        }
      ],
      "stateMutability": "nonpayable",
      "type": "function"
    },
    {
      "inputs": [],
      "name": "defaultMaxDevices",
      "outputs": [
        {
          "internalType": "uint256",
          "name": "",
          "type": "uint256"
        }
      ],
      "stateMutability": "view",
      "type": "function"
    },
    {
      "inputs": [
        {
          "internalType": "bytes32",
          "name": "deviceId",
          "type": "bytes32"
        },
        {
          "internalType": "string",
          "name": "reason",
          "type": "string"
        }
      ],
      "name": "emergencyRevokeDevice",
      "outputs": [],
      "stateMutability": "nonpayable",
      "type": "function"
    },
    {
      "inputs": [
        {
          "internalType": "address",
          "name": "user",
          "type": "address"
        },
        {
          "internalType": "uint8",
          "name": "flowType",
          "type": "uint8"
        },
        {
          "internalType": "uint8",
          "name": "step",
          "type": "uint8"
        },
        {
          "internalType": "bool",
          "name": "success",
          "type": "bool"
        },
        {
          "internalType": "bytes",
          "name": "data",
          "type": "bytes"
        }
      ],
      "name": "emitUserFlowEvent",
      "outputs": [],
      "stateMutability": "nonpayable",
      "type": "function"
    },
    {
      "inputs": [
        {
          "internalType": "address",
          "name": "user",
          "type": "address"
        },
        {
          "internalType": "uint8",
          "name": "eventType",
          "type": "uint8"
        },
        {
          "internalType": "bytes",
          "name": "data",
          "type": "bytes"
        }
      ],
      "name": "emitVaultEvent",
      "outputs": [],
      "stateMutability": "nonpayable",
      "type": "function"
    },
    {
      "inputs": [
        {
          "internalType": "bytes32",
          "name": "deviceId",
          "type": "bytes32"
        }
      ],
      "name": "generateAuthChallenge",
      "outputs": [
        {
          "internalType": "bytes32",
          "name": "challenge",
          "type": "bytes32"
        }
      ],
      "stateMutability": "view",
      "type": "function"
    },
    {
      "inputs": [
        {
          "internalType": "bytes32",
          "name": "deviceId",
          "type": "bytes32"
        }
      ],
      "name": "getDevice",
      "outputs": [
        {
          "components": [
            {
              "internalType": "bytes32",
              "name": "id",
              "type": "bytes32"
            },
            {
              "internalType": "address",
              "name": "owner",
              "type": "address"
            },
            {
              "internalType": "string",
              "name": "name",
              "type": "string"
            },
            {
              "internalType": "bytes32",
              "name": "publicKeyHash",
              "type": "bytes32"
            },
            {
              "internalType": "bytes",
              "name": "deviceFingerprint",
              "type": "bytes"
            },
            {
              "internalType": "enum DeviceRegistry.DeviceStatus",
              "name": "status",
              "type": "uint8"
            },
            {
              "internalType": "uint256",
              "name": "registeredAt",
              "type": "uint256"
            },
            {
              "internalType": "uint256",
              "name": "lastUsed",
              "type": "uint256"
            },
            {
              "internalType": "uint256",
              "name": "authCount",
              "type": "uint256"
            },
            {
              "internalType": "bool",
              "name": "exists",
              "type": "bool"
            }
          ],
          "internalType": "struct DeviceRegistry.Device",
          "name": "device",
          "type": "tuple"
        }
      ],
      "stateMutability": "view",
      "type": "function"
    },
    {
      "inputs": [
        {
          "internalType": "bytes32",
          "name": "deviceId",
          "type": "bytes32"
        },
        {
          "internalType": "uint256",
          "name": "limit",
          "type": "uint256"
        }
      ],
      "name": "getDeviceAuthHistory",
      "outputs": [
        {
          "components": [
            {
              "internalType": "bytes32",
              "name": "deviceId",
              "type": "bytes32"
            },
            {
              "internalType": "bytes32",
              "name": "challenge",
              "type": "bytes32"
            },
            {
              "internalType": "bytes",
              "name": "signature",
              "type": "bytes"
            },
            {
              "internalType": "uint256",
              "name": "timestamp",
              "type": "uint256"
            },
            {
              "internalType": "bool",
              "name": "verified",
              "type": "bool"
            }
          ],
          "internalType": "struct DeviceRegistry.DeviceAuth[]",
          "name": "auths",
          "type": "tuple[]"
        }
      ],
      "stateMutability": "view",
      "type": "function"
    },
    {
      "inputs": [
        {
          "internalType": "bytes32",
          "name": "deviceId",
          "type": "bytes32"
        }
      ],
      "name": "getDeviceStatus",
      "outputs": [
        {
          "internalType": "enum DeviceRegistry.DeviceStatus",
          "name": "status",
          "type": "uint8"
        }
      ],
      "stateMutability": "view",
      "type": "function"
    },
    {
      "inputs": [
        {
          "internalType": "address",
          "name": "user",
          "type": "address"
        }
      ],
      "name": "getUserDevices",
      "outputs": [
        {
          "internalType": "bytes32[]",
          "name": "deviceIds",
          "type": "bytes32[]"
        }
      ],
      "stateMutability": "view",
      "type": "function"
    },
    {
      "inputs": [
        {
          "internalType": "bytes32",
          "name": "deviceId",
          "type": "bytes32"
        }
      ],
      "name": "isDeviceAuthorized",
      "outputs": [
        {
          "internalType": "bool",
          "name": "authorized",
          "type": "bool"
        }
      ],
      "stateMutability": "view",
      "type": "function"
    },
    {
      "inputs": [],
      "name": "isPaused",
      "outputs": [
        {
          "internalType": "bool",
          "name": "",
          "type": "bool"
        }
      ],
      "stateMutability": "view",
      "type": "function"
    },
    {
      "inputs": [],
      "name": "owner",
      "outputs": [
        {
          "internalType": "address",
          "name": "",
          "type": "address"
        }
      ],
      "stateMutability": "view",
      "type": "function"
    },
    {
      "inputs": [],
      "name": "pause",
      "outputs": [],
      "stateMutability": "nonpayable",
      "type": "function"
    },
    {
      "inputs": [
        {
          "internalType": "bytes32",
          "name": "deviceId",
          "type": "bytes32"
        }
      ],
      "name": "reactivateDevice",
      "outputs": [],
      "stateMutability": "nonpayable",
      "type": "function"
    },
    {
      "inputs": [
        {
          "internalType": "string",
          "name": "deviceName",
          "type": "string"
        },
        {
          "internalType": "bytes32",
          "name": "publicKeyHash",
          "type": "bytes32"
        },
        {
          "internalType": "bytes",
          "name": "deviceFingerprint",
          "type": "bytes"
        }
      ],
      "name": "registerDevice",
      "outputs": [
        {
          "internalType": "bytes32",
          "name": "deviceId",
          "type": "bytes32"
        }
      ],
      "stateMutability": "nonpayable",
      "type": "function"
    },
    {
      "inputs": [
        {
          "internalType": "bytes32",
          "name": "deviceId",
          "type": "bytes32"
        }
      ],
      "name": "revokeDevice",
      "outputs": [],
      "stateMutability": "nonpayable",
      "type": "function"
    },
    {
      "inputs": [
        {
          "internalType": "uint256",
          "name": "expiry",
          "type": "uint256"
        }
      ],
      "name": "setAuthChallengeExpiry",
      "outputs": [],
      "stateMutability": "nonpayable",
      "type": "function"
    },
    {
      "inputs": [
        {
          "internalType": "address",
          "name": "user",
          "type": "address"
        },
        {
          "internalType": "uint256",
          "name": "maxDevices",
          "type": "uint256"
        }
      ],
      "name": "setMaxDevicesPerUser",
      "outputs": [],
      "stateMutability": "nonpayable",
      "type": "function"
    },
    {
      "inputs": [
        {
          "internalType": "bytes32",
          "name": "deviceId",
          "type": "bytes32"
        }
      ],
      "name": "suspendDevice",
      "outputs": [],
      "stateMutability": "nonpayable",
      "type": "function"
    },
    {
      "inputs": [],
      "name": "unpause",
      "outputs": [],
      "stateMutability": "nonpayable",
      "type": "function"
    },
    {
      "inputs": [
        {
          "internalType": "bytes32",
          "name": "deviceId",
          "type": "bytes32"
        },
        {
          "internalType": "string",
          "name": "newName",
          "type": "string"
        }
      ],
      "name": "updateDeviceName",
      "outputs": [],
      "stateMutability": "nonpayable",
      "type": "function"
    }
  ],
  "bytecode": "0x6080604052600a60055561012c600655348015601a57600080fd5b5033600460006101000a81548173ffffffffffffffffffffffffffffffffffffffff021916908373ffffffffffffffffffffffffffffffffffffffff1602179055506000600460146101000a81548160ff0219169083151502179055506143a8806100866000396000f3fe608060405234801561001057600080fd5b506004361061014d5760003560e01c80638b1f8a77116100c3578063bc492f0e1161007c578063bc492f0e1461038a578063d3edb213146103a6578063dc56d28c146103d6578063e267624b146103f2578063ed81ae071461040e578063f3c3016a1461043e5761014d565b80638b1f8a77146102b65780638ca19b76146102e65780638da5cb5b14610316578063a6883f9214610334578063b187bd2614610350578063b6df09641461036e5761014d565b80632bd52c20116101155780632bd52c20146102085780633c1163aa146102245780633f4ba83a146102425780635462b03f1461024c5780636a7f745e1461027c5780638456cb59146102ac5761014d565b806305f39532146101525780631707873a1461018257806322f7fdb81461019e5780632aa9520d146101ce5780632ba1725c146101ea575b600080fd5b61016c600480360381019061016791906129ed565b61045a565b6040516101799190612ae2565b60405180910390f35b61019c60048036038101906101979190612b30565b6105b7565b005b6101b860048036038101906101b39190612b30565b61081f565b6040516101c59190612bd4565b60405180910390f35b6101e860048036038101906101e39190612c54565b6109aa565b005b6101f2610b73565b6040516101ff9190612ccd565b60405180910390f35b610222600480360381019061021d9190612daf565b610b79565b005b61022c610bd7565b6040516102399190612ccd565b60405180910390f35b61024a610bdd565b005b61026660048036038101906102619190612e49565b610c8a565b6040516102739190612eed565b60405180910390f35b61029660048036038101906102919190612b30565b61121b565b6040516102a3919061310a565b60405180910390f35b6102b4611553565b005b6102d060048036038101906102cb9190613158565b611600565b6040516102dd91906132d0565b60405180910390f35b61030060048036038101906102fb9190612b30565b6118e1565b60405161030d9190612eed565b60405180910390f35b61031e611a42565b60405161032b9190613301565b60405180910390f35b61034e6004803603810190610349919061331c565b611a68565b005b610358611ac0565b604051610365919061339f565b60405180910390f35b61038860048036038101906103839190612b30565b611ad3565b005b6103a4600480360381019061039f9190612b30565b611d12565b005b6103c060048036038101906103bb9190612b30565b611f7a565b6040516103cd919061339f565b60405180910390f35b6103f060048036038101906103eb91906133ba565b612031565b005b61040c60048036038101906104079190612c54565b6120cb565b005b610428600480360381019061042391906133e7565b6122f4565b604051610435919061339f565b60405180910390f35b6104586004803603810190610453919061345b565b6126c3565b005b60608173ffffffffffffffffffffffffffffffffffffffff163373ffffffffffffffffffffffffffffffffffffffff1614806104e35750600460009054906101000a900473ffffffffffffffffffffffffffffffffffffffff1673ffffffffffffffffffffffffffffffffffffffff163373ffffffffffffffffffffffffffffffffffffffff16145b610522576040517f08c379a0000000000000000000000000000000000000000000000000000000008152600401610519906134f8565b60405180910390fd5b600160008373ffffffffffffffffffffffffffffffffffffffff1673ffffffffffffffffffffffffffffffffffffffff1681526020019081526020016000208054806020026020016040519081016040528092919081815260200182805480156105ab57602002820191906000526020600020905b815481526020019060010190808311610597575b50505050509050919050565b8060008082815260200190815260200160002060090160009054906101000a900460ff1661061a576040517f08c379a000000000000000000000000000000000000000000000000000000000815260040161061190613564565b60405180910390fd5b813373ffffffffffffffffffffffffffffffffffffffff1660008083815260200190815260200160002060010160009054906101000a900473ffffffffffffffffffffffffffffffffffffffff1673ffffffffffffffffffffffffffffffffffffffff16146106be576040517f08c379a00000000000000000000000000000000000000000000000000000000081526004016106b5906135d0565b60405180910390fd5b600460149054906101000a900460ff161561070e576040517f08c379a00000000000000000000000000000000000000000000000000000000081526004016107059061363c565b60405180910390fd5b600080600085815260200190815260200160002090506000600381111561073857610737612b5d565b5b8160050160009054906101000a900460ff16600381111561075c5761075b612b5d565b5b1461079c576040517f08c379a0000000000000000000000000000000000000000000000000000000008152600401610793906136a8565b60405180910390fd5b60018160050160006101000a81548160ff021916908360038111156107c4576107c3612b5d565b5b0217905550833373ffffffffffffffffffffffffffffffffffffffff167f0916ae68c7b286f17910c481cc77110efdc272e6c3f18643062a29eaff2fed8360016040516108119190612bd4565b60405180910390a350505050565b60008160008082815260200190815260200160002060090160009054906101000a900460ff16610884576040517f08c379a000000000000000000000000000000000000000000000000000000000815260040161087b90613564565b60405180910390fd5b3373ffffffffffffffffffffffffffffffffffffffff1660008085815260200190815260200160002060010160009054906101000a900473ffffffffffffffffffffffffffffffffffffffff1673ffffffffffffffffffffffffffffffffffffffff1614806109405750600460009054906101000a900473ffffffffffffffffffffffffffffffffffffffff1673ffffffffffffffffffffffffffffffffffffffff163373ffffffffffffffffffffffffffffffffffffffff16145b61097f576040517f08c379a0000000000000000000000000000000000000000000000000000000008152600401610976906134f8565b60405180910390fd5b60008084815260200190815260200160002060050160009054906101000a900460ff16915050919050565b8260008082815260200190815260200160002060090160009054906101000a900460ff16610a0d576040517f08c379a0000000000000000000000000000000000000000000000000000000008152600401610a0490613564565b60405180910390fd5b833373ffffffffffffffffffffffffffffffffffffffff1660008083815260200190815260200160002060010160009054906101000a900473ffffffffffffffffffffffffffffffffffffffff1673ffffffffffffffffffffffffffffffffffffffff1614610ab1576040517f08c379a0000000000000000000000000000000000000000000000000000000008152600401610aa8906135d0565b60405180910390fd5b600460149054906101000a900460ff1615610b01576040517f08c379a0000000000000000000000000000000000000000000000000000000008152600401610af89061363c565b60405180910390fd5b60008484905011610b47576040517f08c379a0000000000000000000000000000000000000000000000000000000008152600401610b3e90613714565b60405180910390fd5b83836000808881526020019081526020016000206002019182610b6b92919061397a565b505050505050565b60065481565b8573ffffffffffffffffffffffffffffffffffffffff167fb0d9397422ee1b6f417b7f3f131979847eca1707c81590563aaf0a0b07471a178686868686604051610bc7959493929190613aa6565b60405180910390a2505050505050565b60055481565b600460009054906101000a900473ffffffffffffffffffffffffffffffffffffffff1673ffffffffffffffffffffffffffffffffffffffff163373ffffffffffffffffffffffffffffffffffffffff1614610c6d576040517f08c379a0000000000000000000000000000000000000000000000000000000008152600401610c64906134f8565b60405180910390fd5b6000600460146101000a81548160ff021916908315150217905550565b6000600460149054906101000a900460ff1615610cdc576040517f08c379a0000000000000000000000000000000000000000000000000000000008152600401610cd39061363c565b60405180910390fd5b600080600360003373ffffffffffffffffffffffffffffffffffffffff1673ffffffffffffffffffffffffffffffffffffffff1681526020019081526020016000205414610d6957600360003373ffffffffffffffffffffffffffffffffffffffff1673ffffffffffffffffffffffffffffffffffffffff16815260200190815260200160002054610d6d565b6005545b905080600160003373ffffffffffffffffffffffffffffffffffffffff1673ffffffffffffffffffffffffffffffffffffffff1681526020019081526020016000208054905010610df3576040517f08c379a0000000000000000000000000000000000000000000000000000000008152600401610dea90613b40565b60405180910390fd5b60008787905011610e39576040517f08c379a0000000000000000000000000000000000000000000000000000000008152600401610e3090613714565b60405180910390fd5b6000801b8503610e7e576040517f08c379a0000000000000000000000000000000000000000000000000000000008152600401610e7590613bac565b60405180910390fd5b3385858542610ec360206040518060400160405280601381526020017f6465766963652d726567697374726174696f6e000000000000000000000000008152506127dc565b604051602001610ed896959493929190613cb7565b60405160208183030381529060405280519060200120915060008083815260200190815260200160002060090160009054906101000a900460ff1615610f53576040517f08c379a0000000000000000000000000000000000000000000000000000000008152600401610f4a90613d5c565b60405180910390fd5b6040518061014001604052808381526020013373ffffffffffffffffffffffffffffffffffffffff16815260200188888080601f016020809104026020016040519081016040528093929190818152602001838380828437600081840152601f19601f82011690508083019250505050505050815260200186815260200185858080601f016020809104026020016040519081016040528093929190818152602001838380828437600081840152601f19601f8201169050808301925050505050505081526020016000600381111561102f5761102e612b5d565b5b815260200142815260200142815260200160008152602001600115158152506000808481526020019081526020016000206000820151816000015560208201518160010160006101000a81548173ffffffffffffffffffffffffffffffffffffffff021916908373ffffffffffffffffffffffffffffffffffffffff16021790555060408201518160020190816110c69190613d7c565b506060820151816003015560808201518160040190816110e69190613ea9565b5060a08201518160050160006101000a81548160ff0219169083600381111561111257611111612b5d565b5b021790555060c0820151816006015560e0820151816007015561010082015181600801556101208201518160090160006101000a81548160ff021916908315150217905550905050600160003373ffffffffffffffffffffffffffffffffffffffff1673ffffffffffffffffffffffffffffffffffffffff168152602001908152602001600020829080600181540180825580915050600190039060005260206000200160009091909190915055813373ffffffffffffffffffffffffffffffffffffffff167f645b6358cde308927695f4f9c1228215b9562f66824ff04afc4560cf1d9685688989604051611209929190613fa8565b60405180910390a35095945050505050565b6112236128cb565b8160008082815260200190815260200160002060090160009054906101000a900460ff16611286576040517f08c379a000000000000000000000000000000000000000000000000000000000815260040161127d90613564565b60405180910390fd5b823373ffffffffffffffffffffffffffffffffffffffff1660008083815260200190815260200160002060010160009054906101000a900473ffffffffffffffffffffffffffffffffffffffff1673ffffffffffffffffffffffffffffffffffffffff161461132a576040517f08c379a0000000000000000000000000000000000000000000000000000000008152600401611321906135d0565b60405180910390fd5b60008085815260200190815260200160002060405180610140016040529081600082015481526020016001820160009054906101000a900473ffffffffffffffffffffffffffffffffffffffff1673ffffffffffffffffffffffffffffffffffffffff1673ffffffffffffffffffffffffffffffffffffffff1681526020016002820180546113b89061379d565b80601f01602080910402602001604051908101604052809291908181526020018280546113e49061379d565b80156114315780601f1061140657610100808354040283529160200191611431565b820191906000526020600020905b81548152906001019060200180831161141457829003601f168201915b50505050508152602001600382015481526020016004820180546114549061379d565b80601f01602080910402602001604051908101604052809291908181526020018280546114809061379d565b80156114cd5780601f106114a2576101008083540402835291602001916114cd565b820191906000526020600020905b8154815290600101906020018083116114b057829003601f168201915b505050505081526020016005820160009054906101000a900460ff1660038111156114fb576114fa612b5d565b5b600381111561150d5761150c612b5d565b5b81526020016006820154815260200160078201548152602001600882015481526020016009820160009054906101000a900460ff16151515158152505092505050919050565b600460009054906101000a900473ffffffffffffffffffffffffffffffffffffffff1673ffffffffffffffffffffffffffffffffffffffff163373ffffffffffffffffffffffffffffffffffffffff16146115e3576040517f08c379a00000000000000000000000000000000000000000000000000000000081526004016115da906134f8565b60405180910390fd5b6001600460146101000a81548160ff021916908315150217905550565b60608260008082815260200190815260200160002060090160009054906101000a900460ff16611665576040517f08c379a000000000000000000000000000000000000000000000000000000000815260040161165c90613564565b60405180910390fd5b833373ffffffffffffffffffffffffffffffffffffffff1660008083815260200190815260200160002060010160009054906101000a900473ffffffffffffffffffffffffffffffffffffffff1673ffffffffffffffffffffffffffffffffffffffff1614611709576040517f08c379a0000000000000000000000000000000000000000000000000000000008152600401611700906135d0565b60405180910390fd5b60006002600087815260200190815260200160002090506000818054905090506000818711611738578661173a565b815b90508067ffffffffffffffff8111156117565761175561373f565b5b60405190808252806020026020018201604052801561178f57816020015b61177c61294e565b8152602001906001900390816117745790505b50955060005b818110156118d557838183856117ab9190613ffb565b6117b5919061402f565b815481106117c6576117c5614063565b5b90600052602060002090600502016040518060a001604052908160008201548152602001600182015481526020016002820180546118039061379d565b80601f016020809104026020016040519081016040528092919081815260200182805461182f9061379d565b801561187c5780601f106118515761010080835404028352916020019161187c565b820191906000526020600020905b81548152906001019060200180831161185f57829003601f168201915b50505050508152602001600382015481526020016004820160009054906101000a900460ff1615151515815250508782815181106118bd576118bc614063565b5b60200260200101819052508080600101915050611795565b50505050505092915050565b60008160008082815260200190815260200160002060090160009054906101000a900460ff16611946576040517f08c379a000000000000000000000000000000000000000000000000000000000815260040161193d90613564565b60405180910390fd5b823373ffffffffffffffffffffffffffffffffffffffff1660008083815260200190815260200160002060010160009054906101000a900473ffffffffffffffffffffffffffffffffffffffff1673ffffffffffffffffffffffffffffffffffffffff16146119ea576040517f08c379a00000000000000000000000000000000000000000000000000000000081526004016119e1906135d0565b60405180910390fd5b836000808681526020019081526020016000206003015442600143611a0f9190613ffb565b40604051602001611a239493929190614092565b6040516020818303038152906040528051906020012092505050919050565b600460009054906101000a900473ffffffffffffffffffffffffffffffffffffffff1681565b8373ffffffffffffffffffffffffffffffffffffffff167f41bd02e6a181ed3b5c47c66b0d50da614b18b3346bd2520c43a2ace581007dab848484604051611ab2939291906140e0565b60405180910390a250505050565b600460149054906101000a900460ff1681565b8060008082815260200190815260200160002060090160009054906101000a900460ff16611b36576040517f08c379a0000000000000000000000000000000000000000000000000000000008152600401611b2d90613564565b60405180910390fd5b813373ffffffffffffffffffffffffffffffffffffffff1660008083815260200190815260200160002060010160009054906101000a900473ffffffffffffffffffffffffffffffffffffffff1673ffffffffffffffffffffffffffffffffffffffff1614611bda576040517f08c379a0000000000000000000000000000000000000000000000000000000008152600401611bd1906135d0565b60405180910390fd5b600460149054906101000a900460ff1615611c2a576040517f08c379a0000000000000000000000000000000000000000000000000000000008152600401611c219061363c565b60405180910390fd5b6000806000858152602001908152602001600020905060028160050160006101000a81548160ff02191690836003811115611c6857611c67612b5d565b5b0217905550833373ffffffffffffffffffffffffffffffffffffffff167f9e8111e616f1d7e6ec0803b5bae51ce5ef496da22c2432b50200d6fc0d26561a42604051611cb49190612ccd565b60405180910390a3833373ffffffffffffffffffffffffffffffffffffffff167f0916ae68c7b286f17910c481cc77110efdc272e6c3f18643062a29eaff2fed836002604051611d049190612bd4565b60405180910390a350505050565b8060008082815260200190815260200160002060090160009054906101000a900460ff16611d75576040517f08c379a0000000000000000000000000000000000000000000000000000000008152600401611d6c90613564565b60405180910390fd5b813373ffffffffffffffffffffffffffffffffffffffff1660008083815260200190815260200160002060010160009054906101000a900473ffffffffffffffffffffffffffffffffffffffff1673ffffffffffffffffffffffffffffffffffffffff1614611e19576040517f08c379a0000000000000000000000000000000000000000000000000000000008152600401611e10906135d0565b60405180910390fd5b600460149054906101000a900460ff1615611e69576040517f08c379a0000000000000000000000000000000000000000000000000000000008152600401611e609061363c565b60405180910390fd5b6000806000858152602001908152602001600020905060016003811115611e9357611e92612b5d565b5b8160050160009054906101000a900460ff166003811115611eb757611eb6612b5d565b5b14611ef7576040517f08c379a0000000000000000000000000000000000000000000000000000000008152600401611eee9061415e565b60405180910390fd5b60008160050160006101000a81548160ff02191690836003811115611f1f57611f1e612b5d565b5b0217905550833373ffffffffffffffffffffffffffffffffffffffff167f0916ae68c7b286f17910c481cc77110efdc272e6c3f18643062a29eaff2fed836000604051611f6c9190612bd4565b60405180910390a350505050565b60008160008082815260200190815260200160002060090160009054906101000a900460ff16611fdf576040517f08c379a0000000000000000000000000000000000000000000000000000000008152600401611fd690613564565b60405180910390fd5b60006003811115611ff357611ff2612b5d565b5b60008085815260200190815260200160002060050160009054906101000a900460ff16600381111561202857612027612b5d565b5b14915050919050565b600460009054906101000a900473ffffffffffffffffffffffffffffffffffffffff1673ffffffffffffffffffffffffffffffffffffffff163373ffffffffffffffffffffffffffffffffffffffff16146120c1576040517f08c379a00000000000000000000000000000000000000000000000000000000081526004016120b8906134f8565b60405180910390fd5b8060068190555050565b600460009054906101000a900473ffffffffffffffffffffffffffffffffffffffff1673ffffffffffffffffffffffffffffffffffffffff163373ffffffffffffffffffffffffffffffffffffffff161461215b576040517f08c379a0000000000000000000000000000000000000000000000000000000008152600401612152906134f8565b60405180910390fd5b8260008082815260200190815260200160002060090160009054906101000a900460ff166121be576040517f08c379a00000000000000000000000000000000000000000000000000000000081526004016121b590613564565b60405180910390fd5b6000806000868152602001908152602001600020905060028160050160006101000a81548160ff021916908360038111156121fc576121fb612b5d565b5b0217905550848160010160009054906101000a900473ffffffffffffffffffffffffffffffffffffffff1673ffffffffffffffffffffffffffffffffffffffff167f9e8111e616f1d7e6ec0803b5bae51ce5ef496da22c2432b50200d6fc0d26561a4260405161226c9190612ccd565b60405180910390a38060010160009054906101000a900473ffffffffffffffffffffffffffffffffffffffff1673ffffffffffffffffffffffffffffffffffffffff167fbef255c9f25efe09810981f7ab252968d2ad9885b9dc0ce9b6b750a59a43067860018686426040516122e594939291906141b9565b60405180910390a25050505050565b60008460008082815260200190815260200160002060090160009054906101000a900460ff16612359576040517f08c379a000000000000000000000000000000000000000000000000000000000815260040161235090613564565b60405180910390fd5b853373ffffffffffffffffffffffffffffffffffffffff1660008083815260200190815260200160002060010160009054906101000a900473ffffffffffffffffffffffffffffffffffffffff1673ffffffffffffffffffffffffffffffffffffffff16146123fd576040517f08c379a00000000000000000000000000000000000000000000000000000000081526004016123f4906135d0565b60405180910390fd5b600460149054906101000a900460ff161561244d576040517f08c379a00000000000000000000000000000000000000000000000000000000081526004016124449061363c565b60405180910390fd5b600080600089815260200190815260200160002090506000600381111561247757612476612b5d565b5b8160050160009054906101000a900460ff16600381111561249b5761249a612b5d565b5b146124db576040517f08c379a00000000000000000000000000000000000000000000000000000000081526004016124d2906136a8565b60405180910390fd5b60008782600301546040516020016124f49291906141f9565b60405160208183030381529060405280519060200120905060008060001b8888604051612522929190614225565b604051809103902014159050600260008b81526020019081526020016000206040518060a001604052808c81526020018b81526020018a8a8080601f016020809104026020016040519081016040528093929190818152602001838380828437600081840152601f19601f8201169050808301925050505050505081526020014281526020018315158152509080600181540180825580915050600190039060005260206000209060050201600090919091909150600082015181600001556020820151816001015560408201518160020190816126009190613ea9565b506060820151816003015560808201518160040160006101000a81548160ff021916908315150217905550505080156126b1574283600701819055508260080160008154809291906126519061423e565b9190505550893373ffffffffffffffffffffffffffffffffffffffff167fdfe999fb4a8bae18fbd744db7c13df6d85fd463913389d68f3a60f1d5ca5618b4260405161269d9190612ccd565b60405180910390a3600195505050506126b9565b600095505050505b5050949350505050565b600460009054906101000a900473ffffffffffffffffffffffffffffffffffffffff1673ffffffffffffffffffffffffffffffffffffffff163373ffffffffffffffffffffffffffffffffffffffff1614612753576040517f08c379a000000000000000000000000000000000000000000000000000000000815260040161274a906134f8565b60405180910390fd5b600073ffffffffffffffffffffffffffffffffffffffff168273ffffffffffffffffffffffffffffffffffffffff160361279357806005819055506127d8565b80600360008473ffffffffffffffffffffffffffffffffffffffff1673ffffffffffffffffffffffffffffffffffffffff168152602001908152602001600020819055505b5050565b606060008073010000000000000000000000000000000000000173ffffffffffffffffffffffffffffffffffffffff16858560405160200161281f9291906142bf565b60405160208183030381529060405260405161283b91906142ef565b600060405180830381855afa9150503d8060008114612876576040519150601f19603f3d011682016040523d82523d6000602084013e61287b565b606091505b5091509150816128c0576040517f08c379a00000000000000000000000000000000000000000000000000000000081526004016128b790614352565b60405180910390fd5b809250505092915050565b60405180610140016040528060008019168152602001600073ffffffffffffffffffffffffffffffffffffffff1681526020016060815260200160008019168152602001606081526020016000600381111561292a57612929612b5d565b5b81526020016000815260200160008152602001600081526020016000151581525090565b6040518060a00160405280600080191681526020016000801916815260200160608152602001600081526020016000151581525090565b600080fd5b600080fd5b600073ffffffffffffffffffffffffffffffffffffffff82169050919050565b60006129ba8261298f565b9050919050565b6129ca816129af565b81146129d557600080fd5b50565b6000813590506129e7816129c1565b92915050565b600060208284031215612a0357612a02612985565b5b6000612a11848285016129d8565b91505092915050565b600081519050919050565b600082825260208201905092915050565b6000819050602082019050919050565b6000819050919050565b612a5981612a46565b82525050565b6000612a6b8383612a50565b60208301905092915050565b6000602082019050919050565b6000612a8f82612a1a565b612a998185612a25565b9350612aa483612a36565b8060005b83811015612ad5578151612abc8882612a5f565b9750612ac783612a77565b925050600181019050612aa8565b5085935050505092915050565b60006020820190508181036000830152612afc8184612a84565b905092915050565b612b0d81612a46565b8114612b1857600080fd5b50565b600081359050612b2a81612b04565b92915050565b600060208284031215612b4657612b45612985565b5b6000612b5484828501612b1b565b91505092915050565b7f4e487b7100000000000000000000000000000000000000000000000000000000600052602160045260246000fd5b60048110612b9d57612b9c612b5d565b5b50565b6000819050612bae82612b8c565b919050565b6000612bbe82612ba0565b9050919050565b612bce81612bb3565b82525050565b6000602082019050612be96000830184612bc5565b92915050565b600080fd5b600080fd5b600080fd5b60008083601f840112612c1457612c13612bef565b5b8235905067ffffffffffffffff811115612c3157612c30612bf4565b5b602083019150836001820283011115612c4d57612c4c612bf9565b5b9250929050565b600080600060408486031215612c6d57612c6c612985565b5b6000612c7b86828701612b1b565b935050602084013567ffffffffffffffff811115612c9c57612c9b61298a565b5b612ca886828701612bfe565b92509250509250925092565b6000819050919050565b612cc781612cb4565b82525050565b6000602082019050612ce26000830184612cbe565b92915050565b600060ff82169050919050565b612cfe81612ce8565b8114612d0957600080fd5b50565b600081359050612d1b81612cf5565b92915050565b60008115159050919050565b612d3681612d21565b8114612d4157600080fd5b50565b600081359050612d5381612d2d565b92915050565b60008083601f840112612d6f57612d6e612bef565b5b8235905067ffffffffffffffff811115612d8c57612d8b612bf4565b5b602083019150836001820283011115612da857612da7612bf9565b5b9250929050565b60008060008060008060a08789031215612dcc57612dcb612985565b5b6000612dda89828a016129d8565b9650506020612deb89828a01612d0c565b9550506040612dfc89828a01612d0c565b9450506060612e0d89828a01612d44565b935050608087013567ffffffffffffffff811115612e2e57612e2d61298a565b5b612e3a89828a01612d59565b92509250509295509295509295565b600080600080600060608688031215612e6557612e64612985565b5b600086013567ffffffffffffffff811115612e8357612e8261298a565b5b612e8f88828901612bfe565b95509550506020612ea288828901612b1b565b935050604086013567ffffffffffffffff811115612ec357612ec261298a565b5b612ecf88828901612d59565b92509250509295509295909350565b612ee781612a46565b82525050565b6000602082019050612f026000830184612ede565b92915050565b612f11816129af565b82525050565b600081519050919050565b600082825260208201905092915050565b60005b83811015612f51578082015181840152602081019050612f36565b60008484015250505050565b6000601f19601f8301169050919050565b6000612f7982612f17565b612f838185612f22565b9350612f93818560208601612f33565b612f9c81612f5d565b840191505092915050565b600081519050919050565b600082825260208201905092915050565b6000612fce82612fa7565b612fd88185612fb2565b9350612fe8818560208601612f33565b612ff181612f5d565b840191505092915050565b61300581612bb3565b82525050565b61301481612cb4565b82525050565b61302381612d21565b82525050565b6000610140830160008301516130426000860182612a50565b5060208301516130556020860182612f08565b506040830151848203604086015261306d8282612f6e565b91505060608301516130826060860182612a50565b506080830151848203608086015261309a8282612fc3565b91505060a08301516130af60a0860182612ffc565b5060c08301516130c260c086018261300b565b5060e08301516130d560e086018261300b565b506101008301516130ea61010086018261300b565b506101208301516130ff61012086018261301a565b508091505092915050565b600060208201905081810360008301526131248184613029565b905092915050565b61313581612cb4565b811461314057600080fd5b50565b6000813590506131528161312c565b92915050565b6000806040838503121561316f5761316e612985565b5b600061317d85828601612b1b565b925050602061318e85828601613143565b9150509250929050565b600081519050919050565b600082825260208201905092915050565b6000819050602082019050919050565b600060a0830160008301516131dc6000860182612a50565b5060208301516131ef6020860182612a50565b50604083015184820360408601526132078282612fc3565b915050606083015161321c606086018261300b565b50608083015161322f608086018261301a565b508091505092915050565b600061324683836131c4565b905092915050565b6000602082019050919050565b600061326682613198565b61327081856131a3565b935083602082028501613282856131b4565b8060005b858110156132be578484038952815161329f858261323a565b94506132aa8361324e565b925060208a01995050600181019050613286565b50829750879550505050505092915050565b600060208201905081810360008301526132ea818461325b565b905092915050565b6132fb816129af565b82525050565b600060208201905061331660008301846132f2565b92915050565b6000806000806060858703121561333657613335612985565b5b6000613344878288016129d8565b945050602061335587828801612d0c565b935050604085013567ffffffffffffffff8111156133765761337561298a565b5b61338287828801612d59565b925092505092959194509250565b61339981612d21565b82525050565b60006020820190506133b46000830184613390565b92915050565b6000602082840312156133d0576133cf612985565b5b60006133de84828501613143565b91505092915050565b6000806000806060858703121561340157613400612985565b5b600061340f87828801612b1b565b945050602061342087828801612b1b565b935050604085013567ffffffffffffffff8111156134415761344061298a565b5b61344d87828801612d59565b925092505092959194509250565b6000806040838503121561347257613471612985565b5b6000613480858286016129d8565b925050602061349185828601613143565b9150509250929050565b600082825260208201905092915050565b7f4e6f7420617574686f72697a6564000000000000000000000000000000000000600082015250565b60006134e2600e8361349b565b91506134ed826134ac565b602082019050919050565b60006020820190508181036000830152613511816134d5565b9050919050565b7f44657669636520646f6573206e6f742065786973740000000000000000000000600082015250565b600061354e60158361349b565b915061355982613518565b602082019050919050565b6000602082019050818103600083015261357d81613541565b9050919050565b7f4e6f7420646576696365206f776e657200000000000000000000000000000000600082015250565b60006135ba60108361349b565b91506135c582613584565b602082019050919050565b600060208201905081810360008301526135e9816135ad565b9050919050565b7f436f6e7472616374206973207061757365640000000000000000000000000000600082015250565b600061362660128361349b565b9150613631826135f0565b602082019050919050565b6000602082019050818103600083015261365581613619565b9050919050565b7f446576696365206e6f7420616374697665000000000000000000000000000000600082015250565b600061369260118361349b565b915061369d8261365c565b602082019050919050565b600060208201905081810360008301526136c181613685565b9050919050565b7f446576696365206e616d65207265717569726564000000000000000000000000600082015250565b60006136fe60148361349b565b9150613709826136c8565b602082019050919050565b6000602082019050818103600083015261372d816136f1565b9050919050565b600082905092915050565b7f4e487b7100000000000000000000000000000000000000000000000000000000600052604160045260246000fd5b7f4e487b7100000000000000000000000000000000000000000000000000000000600052602260045260246000fd5b600060028204905060018216806137b557607f821691505b6020821081036137c8576137c761376e565b5b50919050565b60008190508160005260206000209050919050565b60006020601f8301049050919050565b600082821b905092915050565b6000600883026138307fffffffffffffffffffffffffffffffffffffffffffffffffffffffffffffffff826137f3565b61383a86836137f3565b95508019841693508086168417925050509392505050565b6000819050919050565b600061387761387261386d84612cb4565b613852565b612cb4565b9050919050565b6000819050919050565b6138918361385c565b6138a561389d8261387e565b848454613800565b825550505050565b600090565b6138ba6138ad565b6138c5818484613888565b505050565b5b818110156138e9576138de6000826138b2565b6001810190506138cb565b5050565b601f82111561392e576138ff816137ce565b613908846137e3565b81016020851015613917578190505b61392b613923856137e3565b8301826138ca565b50505b505050565b600082821c905092915050565b600061395160001984600802613933565b1980831691505092915050565b600061396a8383613940565b9150826002028217905092915050565b6139848383613734565b67ffffffffffffffff81111561399d5761399c61373f565b5b6139a7825461379d565b6139b28282856138ed565b6000601f8311600181146139e157600084156139cf578287013590505b6139d9858261395e565b865550613a41565b601f1984166139ef866137ce565b60005b82811015613a17578489013582556001820191506020850194506020810190506139f2565b86831015613a345784890135613a30601f891682613940565b8355505b6001600288020188555050505b50505050505050565b613a5381612ce8565b82525050565b600082825260208201905092915050565b82818337600083830152505050565b6000613a858385613a59565b9350613a92838584613a6a565b613a9b83612f5d565b840190509392505050565b6000608082019050613abb6000830188613a4a565b613ac86020830187613a4a565b613ad56040830186613390565b8181036060830152613ae8818486613a79565b90509695505050505050565b7f546f6f206d616e79206465766963657300000000000000000000000000000000600082015250565b6000613b2a60108361349b565b9150613b3582613af4565b602082019050919050565b60006020820190508181036000830152613b5981613b1d565b9050919050565b7f5075626c6963206b657920686173682072657175697265640000000000000000600082015250565b6000613b9660188361349b565b9150613ba182613b60565b602082019050919050565b60006020820190508181036000830152613bc581613b89565b9050919050565b60008160601b9050919050565b6000613be482613bcc565b9050919050565b6000613bf682613bd9565b9050919050565b613c0e613c09826129af565b613beb565b82525050565b6000819050919050565b613c2f613c2a82612a46565b613c14565b82525050565b600081905092915050565b6000613c4c8385613c35565b9350613c59838584613a6a565b82840190509392505050565b6000819050919050565b613c80613c7b82612cb4565b613c65565b82525050565b6000613c9182612fa7565b613c9b8185613c35565b9350613cab818560208601612f33565b80840191505092915050565b6000613cc38289613bfd565b601482019150613cd38288613c1e565b602082019150613ce4828688613c40565b9150613cf08285613c6f565b602082019150613d008284613c86565b9150819050979650505050505050565b7f44657669636520494420636f6c6c6973696f6e00000000000000000000000000600082015250565b6000613d4660138361349b565b9150613d5182613d10565b602082019050919050565b60006020820190508181036000830152613d7581613d39565b9050919050565b613d8582612f17565b67ffffffffffffffff811115613d9e57613d9d61373f565b5b613da8825461379d565b613db38282856138ed565b600060209050601f831160018114613de65760008415613dd4578287015190505b613dde858261395e565b865550613e46565b601f198416613df4866137ce565b60005b82811015613e1c57848901518255600182019150602085019450602081019050613df7565b86831015613e395784890151613e35601f891682613940565b8355505b6001600288020188555050505b505050505050565b60008190508160005260206000209050919050565b601f821115613ea457613e7581613e4e565b613e7e846137e3565b81016020851015613e8d578190505b613ea1613e99856137e3565b8301826138ca565b50505b505050565b613eb282612fa7565b67ffffffffffffffff811115613ecb57613eca61373f565b5b613ed5825461379d565b613ee0828285613e63565b600060209050601f831160018114613f135760008415613f01578287015190505b613f0b858261395e565b865550613f73565b601f198416613f2186613e4e565b60005b82811015613f4957848901518255600182019150602085019450602081019050613f24565b86831015613f665784890151613f62601f891682613940565b8355505b6001600288020188555050505b505050505050565b6000613f87838561349b565b9350613f94838584613a6a565b613f9d83612f5d565b840190509392505050565b60006020820190508181036000830152613fc3818486613f7b565b90509392505050565b7f4e487b7100000000000000000000000000000000000000000000000000000000600052601160045260246000fd5b600061400682612cb4565b915061401183612cb4565b925082820390508181111561402957614028613fcc565b5b92915050565b600061403a82612cb4565b915061404583612cb4565b925082820190508082111561405d5761405c613fcc565b5b92915050565b7f4e487b7100000000000000000000000000000000000000000000000000000000600052603260045260246000fd5b600061409e8287613c1e565b6020820191506140ae8286613c1e565b6020820191506140be8285613c6f565b6020820191506140ce8284613c1e565b60208201915081905095945050505050565b60006040820190506140f56000830186613a4a565b8181036020830152614108818486613a79565b9050949350505050565b7f446576696365206e6f742073757370656e646564000000000000000000000000600082015250565b600061414860148361349b565b915061415382614112565b602082019050919050565b600060208201905081810360008301526141778161413b565b9050919050565b6000819050919050565b60006141a361419e6141998461417e565b613852565b612ce8565b9050919050565b6141b381614188565b82525050565b60006060820190506141ce60008301876141aa565b81810360208301526141e1818587613f7b565b90506141f06040830184612cbe565b95945050505050565b60006142058285613c1e565b6020820191506142158284613c1e565b6020820191508190509392505050565b6000614232828486613c40565b91508190509392505050565b600061424982612cb4565b91507fffffffffffffffffffffffffffffffffffffffffffffffffffffffffffffffff820361427b5761427a613fcc565b5b600182019050919050565b600061429182612fa7565b61429b8185613a59565b93506142ab818560208601612f33565b6142b481612f5d565b840191505092915050565b60006040820190506142d46000830185612cbe565b81810360208301526142e68184614286565b90509392505050565b60006142fb8284613c86565b915081905092915050565b7f72616e646f6d42797465733a206661696c656400000000000000000000000000600082015250565b600061433c60138361349b565b915061434782614306565b602082019050919050565b6000602082019050818103600083015261436b8161432f565b905091905056fea26469706673582212200fe59e53ba50c325fe04f589e5966a8ce7839a7a14f874bebf47766131231e5864736f6c634300081c0033",
  "linkReferences": {},
  "deployedLinkReferences": {}
}