{
  "_format": "hh-sol-artifact-1",
  "contractName": "MultiChainRPC",
  "sourceName": "contracts/MultiChainRPC.sol",
  "abi": [
    {
      "inputs": [],
      "stateMutability": "nonpayable",
      "type": "constructor"
    },
    {
      "anonymous": false,
      "inputs": [
        {
          "indexed": true,
          "internalType": "address",
          "name": "user",
          "type": "address"
        },
        {
          "indexed": true,
          "internalType": "bytes32",
          "name": "resourceId",
          "type": "bytes32"
        },
        {
          "indexed": false,
          "internalType": "address",
          "name": "grantee",
          "type": "address"
        }
      ],
      "name": "AccessGranted",
      "type": "event"
    },
    {
      "anonymous": false,
      "inputs": [
        {
          "indexed": true,
          "internalType": "address",
          "name": "user",
          "type": "address"
        },
        {
          "indexed": true,
          "internalType": "bytes32",
          "name": "resourceId",
          "type": "bytes32"
        },
        {
          "indexed": false,
          "internalType": "address",
          "name": "revokee",
          "type": "address"
        }
      ],
      "name": "AccessRevoked",
      "type": "event"
    },
    {
      "anonymous": false,
      "inputs": [
        {
          "indexed": true,
          "internalType": "address",
          "name": "wallet",
          "type": "address"
        },
        {
          "indexed": true,
          "internalType": "uint8",
          "name": "chainType",
          "type": "uint8"
        },
        {
          "indexed": false,
          "internalType": "uint256",
          "name": "balance",
          "type": "uint256"
        }
      ],
      "name": "BalanceFetched",
      "type": "event"
    },
    {
      "anonymous": false,
      "inputs": [
        {
          "indexed": true,
          "internalType": "address",
          "name": "user",
          "type": "address"
        },
        {
          "indexed": true,
          "internalType": "bytes32",
          "name": "walletId",
          "type": "bytes32"
        },
        {
          "indexed": false,
          "internalType": "uint8",
          "name": "chainType",
          "type": "uint8"
        },
        {
          "indexed": false,
          "internalType": "uint256",
          "name": "newBalance",
          "type": "uint256"
        }
      ],
      "name": "ChainBalanceUpdated",
      "type": "event"
    },
    {
      "anonymous": false,
      "inputs": [
        {
          "indexed": true,
          "internalType": "uint8",
          "name": "chainType",
          "type": "uint8"
        },
        {
          "indexed": false,
          "internalType": "string",
          "name": "rpcUrl",
          "type": "string"
        }
      ],
      "name": "ChainConfigUpdated",
      "type": "event"
    },
    {
      "anonymous": false,
      "inputs": [
        {
          "indexed": true,
          "internalType": "address",
          "name": "user",
          "type": "address"
        },
        {
          "indexed": true,
          "internalType": "bytes32",
          "name": "operationId",
          "type": "bytes32"
        },
        {
          "indexed": false,
          "internalType": "bool",
          "name": "success",
          "type": "bool"
        }
      ],
      "name": "CrossChainOperationCompleted",
      "type": "event"
    },
    {
      "anonymous": false,
      "inputs": [
        {
          "indexed": true,
          "internalType": "address",
          "name": "user",
          "type": "address"
        },
        {
          "indexed": true,
          "internalType": "bytes32",
          "name": "operationId",
          "type": "bytes32"
        },
        {
          "indexed": false,
          "internalType": "uint8",
          "name": "sourceChain",
          "type": "uint8"
        },
        {
          "indexed": false,
          "internalType": "uint8",
          "name": "targetChain",
          "type": "uint8"
        }
      ],
      "name": "CrossChainOperationStarted",
      "type": "event"
    },
    {
      "anonymous": false,
      "inputs": [
        {
          "indexed": true,
          "internalType": "address",
          "name": "user",
          "type": "address"
        },
        {
          "indexed": true,
          "internalType": "bytes32",
          "name": "deviceId",
          "type": "bytes32"
        },
        {
          "indexed": false,
          "internalType": "address",
          "name": "deviceAddress",
          "type": "address"
        }
      ],
      "name": "DeviceAuthorized",
      "type": "event"
    },
    {
      "anonymous": false,
      "inputs": [
        {
          "indexed": true,
          "internalType": "address",
          "name": "user",
          "type": "address"
        },
        {
          "indexed": true,
          "internalType": "bytes32",
          "name": "deviceId",
          "type": "bytes32"
        },
        {
          "indexed": false,
          "internalType": "string",
          "name": "deviceName",
          "type": "string"
        }
      ],
      "name": "DeviceRegistered",
      "type": "event"
    },
    {
      "anonymous": false,
      "inputs": [
        {
          "indexed": true,
          "internalType": "address",
          "name": "user",
          "type": "address"
        },
        {
          "indexed": true,
          "internalType": "bytes32",
          "name": "deviceId",
          "type": "bytes32"
        },
        {
          "indexed": false,
          "internalType": "uint256",
          "name": "timestamp",
          "type": "uint256"
        }
      ],
      "name": "DeviceRevoked",
      "type": "event"
    },
    {
      "anonymous": false,
      "inputs": [
        {
          "indexed": true,
          "internalType": "address",
          "name": "admin",
          "type": "address"
        },
        {
          "indexed": false,
          "internalType": "string",
          "name": "reason",
          "type": "string"
        },
        {
          "indexed": false,
          "internalType": "uint256",
          "name": "timestamp",
          "type": "uint256"
        }
      ],
      "name": "EmergencyShutdown",
      "type": "event"
    },
    {
      "anonymous": false,
      "inputs": [
        {
          "indexed": true,
          "internalType": "address",
          "name": "user",
          "type": "address"
        },
        {
          "indexed": false,
          "internalType": "uint8",
          "name": "eventType",
          "type": "uint8"
        },
        {
          "indexed": false,
          "internalType": "bytes",
          "name": "data",
          "type": "bytes"
        }
      ],
      "name": "GenericVaultEvent",
      "type": "event"
    },
    {
      "anonymous": false,
      "inputs": [
        {
          "indexed": true,
          "internalType": "uint8",
          "name": "chainType",
          "type": "uint8"
        },
        {
          "indexed": false,
          "internalType": "uint256",
          "name": "newPrice",
          "type": "uint256"
        }
      ],
      "name": "PriceFeedUpdated",
      "type": "event"
    },
    {
      "anonymous": false,
      "inputs": [
        {
          "indexed": true,
          "internalType": "uint8",
          "name": "chainType",
          "type": "uint8"
        },
        {
          "indexed": false,
          "internalType": "string",
          "name": "method",
          "type": "string"
        },
        {
          "indexed": false,
          "internalType": "bool",
          "name": "success",
          "type": "bool"
        }
      ],
      "name": "RPCCallExecuted",
      "type": "event"
    },
    {
      "anonymous": false,
      "inputs": [
        {
          "indexed": true,
          "internalType": "address",
          "name": "user",
          "type": "address"
        },
        {
          "indexed": false,
          "internalType": "uint8",
          "name": "alertType",
          "type": "uint8"
        },
        {
          "indexed": false,
          "internalType": "string",
          "name": "description",
          "type": "string"
        },
        {
          "indexed": false,
          "internalType": "uint256",
          "name": "timestamp",
          "type": "uint256"
        }
      ],
      "name": "SecurityAlert",
      "type": "event"
    },
    {
      "anonymous": false,
      "inputs": [
        {
          "indexed": false,
          "internalType": "uint256",
          "name": "timestamp",
          "type": "uint256"
        },
        {
          "indexed": false,
          "internalType": "bool",
          "name": "healthy",
          "type": "bool"
        },
        {
          "indexed": false,
          "internalType": "string",
          "name": "details",
          "type": "string"
        }
      ],
      "name": "SystemHealthCheck",
      "type": "event"
    },
    {
      "anonymous": false,
      "inputs": [
        {
          "indexed": true,
          "internalType": "address",
          "name": "admin",
          "type": "address"
        },
        {
          "indexed": false,
          "internalType": "uint256",
          "name": "timestamp",
          "type": "uint256"
        }
      ],
      "name": "SystemRecovery",
      "type": "event"
    },
    {
      "anonymous": false,
      "inputs": [
        {
          "indexed": true,
          "internalType": "address",
          "name": "user",
          "type": "address"
        },
        {
          "indexed": true,
          "internalType": "bytes32",
          "name": "walletId",
          "type": "bytes32"
        },
        {
          "indexed": false,
          "internalType": "bytes32",
          "name": "txHash",
          "type": "bytes32"
        },
        {
          "indexed": false,
          "internalType": "uint8",
          "name": "chainType",
          "type": "uint8"
        }
      ],
      "name": "TransactionSigned",
      "type": "event"
    },
    {
      "anonymous": false,
      "inputs": [
        {
          "indexed": true,
          "internalType": "address",
          "name": "user",
          "type": "address"
        },
        {
          "indexed": false,
          "internalType": "address",
          "name": "unauthorized",
          "type": "address"
        },
        {
          "indexed": false,
          "internalType": "string",
          "name": "resource",
          "type": "string"
        }
      ],
      "name": "UnauthorizedAccess",
      "type": "event"
    },
    {
      "anonymous": false,
      "inputs": [
        {
          "indexed": true,
          "internalType": "address",
          "name": "user",
          "type": "address"
        },
        {
          "indexed": false,
          "internalType": "uint8",
          "name": "flowType",
          "type": "uint8"
        },
        {
          "indexed": false,
          "internalType": "uint8",
          "name": "step",
          "type": "uint8"
        },
        {
          "indexed": false,
          "internalType": "bool",
          "name": "success",
          "type": "bool"
        },
        {
          "indexed": false,
          "internalType": "bytes",
          "name": "data",
          "type": "bytes"
        }
      ],
      "name": "UserFlowEvent",
      "type": "event"
    },
    {
      "inputs": [
        {
          "internalType": "uint8",
          "name": "chainType",
          "type": "uint8"
        },
        {
          "internalType": "string",
          "name": "url",
          "type": "string"
        }
      ],
      "name": "addRPCEndpoint",
      "outputs": [],
      "stateMutability": "nonpayable",
      "type": "function"
    },
    {
      "inputs": [
        {
          "internalType": "address[]",
          "name": "wallets",
          "type": "address[]"
        },
        {
          "internalType": "uint8[]",
          "name": "chainTypes",
          "type": "uint8[]"
        }
      ],
      "name": "batchGetBalances",
      "outputs": [
        {
          "internalType": "uint256[][]",
          "name": "balances",
          "type": "uint256[][]"
        }
      ],
      "stateMutability": "view",
      "type": "function"
    },
    {
      "inputs": [],
      "name": "cacheExpiry",
      "outputs": [
        {
          "internalType": "uint256",
          "name": "",
          "type": "uint256"
        }
      ],
      "stateMutability": "view",
      "type": "function"
    },
    {
      "inputs": [],
      "name": "defaultTimeout",
      "outputs": [
        {
          "internalType": "uint256",
          "name": "",
          "type": "uint256"
        }
      ],
      "stateMutability": "view",
      "type": "function"
    },
    {
      "inputs": [
        {
          "internalType": "address",
          "name": "user",
          "type": "address"
        },
        {
          "internalType": "uint8",
          "name": "flowType",
          "type": "uint8"
        },
        {
          "internalType": "uint8",
          "name": "step",
          "type": "uint8"
        },
        {
          "internalType": "bool",
          "name": "success",
          "type": "bool"
        },
        {
          "internalType": "bytes",
          "name": "data",
          "type": "bytes"
        }
      ],
      "name": "emitUserFlowEvent",
      "outputs": [],
      "stateMutability": "nonpayable",
      "type": "function"
    },
    {
      "inputs": [
        {
          "internalType": "address",
          "name": "user",
          "type": "address"
        },
        {
          "internalType": "uint8",
          "name": "eventType",
          "type": "uint8"
        },
        {
          "internalType": "bytes",
          "name": "data",
          "type": "bytes"
        }
      ],
      "name": "emitVaultEvent",
      "outputs": [],
      "stateMutability": "nonpayable",
      "type": "function"
    },
    {
      "inputs": [
        {
          "internalType": "uint8",
          "name": "chainType",
          "type": "uint8"
        },
        {
          "internalType": "string",
          "name": "method",
          "type": "string"
        },
        {
          "internalType": "bytes",
          "name": "params",
          "type": "bytes"
        }
      ],
      "name": "executeChainRPC",
      "outputs": [
        {
          "internalType": "bytes",
          "name": "result",
          "type": "bytes"
        }
      ],
      "stateMutability": "view",
      "type": "function"
    },
    {
      "inputs": [],
      "name": "getAllChains",
      "outputs": [
        {
          "components": [
            {
              "internalType": "uint8",
              "name": "chainType",
              "type": "uint8"
            },
            {
              "internalType": "string",
              "name": "name",
              "type": "string"
            },
            {
              "internalType": "string",
              "name": "rpcUrl",
              "type": "string"
            },
            {
              "internalType": "uint256",
              "name": "chainId",
              "type": "uint256"
            },
            {
              "internalType": "bool",
              "name": "isActive",
              "type": "bool"
            }
          ],
          "internalType": "struct IMultiChainRPC.ChainConfig[]",
          "name": "configs",
          "type": "tuple[]"
        }
      ],
      "stateMutability": "view",
      "type": "function"
    },
    {
      "inputs": [
        {
          "internalType": "uint8",
          "name": "chainType",
          "type": "uint8"
        }
      ],
      "name": "getChainConfig",
      "outputs": [
        {
          "components": [
            {
              "internalType": "uint8",
              "name": "chainType",
              "type": "uint8"
            },
            {
              "internalType": "string",
              "name": "name",
              "type": "string"
            },
            {
              "internalType": "string",
              "name": "rpcUrl",
              "type": "string"
            },
            {
              "internalType": "uint256",
              "name": "chainId",
              "type": "uint256"
            },
            {
              "internalType": "bool",
              "name": "isActive",
              "type": "bool"
            }
          ],
          "internalType": "struct IMultiChainRPC.ChainConfig",
          "name": "config",
          "type": "tuple"
        }
      ],
      "stateMutability": "view",
      "type": "function"
    },
    {
      "inputs": [
        {
          "internalType": "uint8",
          "name": "chainType",
          "type": "uint8"
        }
      ],
      "name": "getChainEndpoints",
      "outputs": [
        {
          "components": [
            {
              "internalType": "string",
              "name": "url",
              "type": "string"
            },
            {
              "internalType": "uint256",
              "name": "maxRetries",
              "type": "uint256"
            },
            {
              "internalType": "uint256",
              "name": "timeoutMs",
              "type": "uint256"
            },
            {
              "internalType": "bool",
              "name": "isActive",
              "type": "bool"
            },
            {
              "internalType": "uint256",
              "name": "lastUsed",
              "type": "uint256"
            },
            {
              "internalType": "uint256",
              "name": "successCount",
              "type": "uint256"
            },
            {
              "internalType": "uint256",
              "name": "failureCount",
              "type": "uint256"
            }
          ],
          "internalType": "struct MultiChainRPC.RPCEndpoint[]",
          "name": "endpoints",
          "type": "tuple[]"
        }
      ],
      "stateMutability": "view",
      "type": "function"
    },
    {
      "inputs": [
        {
          "internalType": "address",
          "name": "wallet",
          "type": "address"
        },
        {
          "internalType": "uint8[]",
          "name": "chains",
          "type": "uint8[]"
        }
      ],
      "name": "getMultiChainBalances",
      "outputs": [
        {
          "components": [
            {
              "internalType": "uint8",
              "name": "chainType",
              "type": "uint8"
            },
            {
              "internalType": "string",
              "name": "tokenSymbol",
              "type": "string"
            },
            {
              "internalType": "uint256",
              "name": "balance",
              "type": "uint256"
            },
            {
              "internalType": "uint256",
              "name": "usdValue",
              "type": "uint256"
            }
          ],
          "internalType": "struct IMultiChainRPC.ChainBalance[]",
          "name": "balances",
          "type": "tuple[]"
        }
      ],
      "stateMutability": "view",
      "type": "function"
    },
    {
      "inputs": [
        {
          "internalType": "address",
          "name": "wallet",
          "type": "address"
        },
        {
          "internalType": "uint8",
          "name": "chainType",
          "type": "uint8"
        }
      ],
      "name": "getNativeBalance",
      "outputs": [
        {
          "internalType": "uint256",
          "name": "balance",
          "type": "uint256"
        }
      ],
      "stateMutability": "view",
      "type": "function"
    },
    {
      "inputs": [],
      "name": "isPaused",
      "outputs": [
        {
          "internalType": "bool",
          "name": "",
          "type": "bool"
        }
      ],
      "stateMutability": "view",
      "type": "function"
    },
    {
      "inputs": [],
      "name": "maxRetries",
      "outputs": [
        {
          "internalType": "uint256",
          "name": "",
          "type": "uint256"
        }
      ],
      "stateMutability": "view",
      "type": "function"
    },
    {
      "inputs": [],
      "name": "owner",
      "outputs": [
        {
          "internalType": "address",
          "name": "",
          "type": "address"
        }
      ],
      "stateMutability": "view",
      "type": "function"
    },
    {
      "inputs": [],
      "name": "pause",
      "outputs": [],
      "stateMutability": "nonpayable",
      "type": "function"
    },
    {
      "inputs": [
        {
          "internalType": "uint8",
          "name": "chainType",
          "type": "uint8"
        },
        {
          "internalType": "uint256",
          "name": "endpointIndex",
          "type": "uint256"
        }
      ],
      "name": "removeRPCEndpoint",
      "outputs": [],
      "stateMutability": "nonpayable",
      "type": "function"
    },
    {
      "inputs": [
        {
          "internalType": "uint256",
          "name": "expiry",
          "type": "uint256"
        }
      ],
      "name": "setCacheExpiry",
      "outputs": [],
      "stateMutability": "nonpayable",
      "type": "function"
    },
    {
      "inputs": [
        {
          "internalType": "uint256",
          "name": "timeout",
          "type": "uint256"
        }
      ],
      "name": "setDefaultTimeout",
      "outputs": [],
      "stateMutability": "nonpayable",
      "type": "function"
    },
    {
      "inputs": [
        {
          "internalType": "uint256",
          "name": "retries",
          "type": "uint256"
        }
      ],
      "name": "setMaxRetries",
      "outputs": [],
      "stateMutability": "nonpayable",
      "type": "function"
    },
    {
      "inputs": [],
      "name": "unpause",
      "outputs": [],
      "stateMutability": "nonpayable",
      "type": "function"
    },
    {
      "inputs": [
        {
          "internalType": "address",
          "name": "wallet",
          "type": "address"
        },
        {
          "internalType": "uint8",
          "name": "chainType",
          "type": "uint8"
        },
        {
          "internalType": "uint256",
          "name": "balance",
          "type": "uint256"
        }
      ],
      "name": "updateBalanceCache",
      "outputs": [],
      "stateMutability": "nonpayable",
      "type": "function"
    },
    {
      "inputs": [
        {
          "internalType": "uint8",
          "name": "chainType",
          "type": "uint8"
        },
        {
          "internalType": "string",
          "name": "rpcUrl",
          "type": "string"
        }
      ],
      "name": "updateChainRPC",
      "outputs": [],
      "stateMutability": "nonpayable",
      "type": "function"
    },
    {
      "inputs": [
        {
          "internalType": "uint8",
          "name": "chainType",
          "type": "uint8"
        },
        {
          "internalType": "uint256",
          "name": "price",
          "type": "uint256"
        },
        {
          "internalType": "string",
          "name": "source",
          "type": "string"
        }
      ],
      "name": "updatePriceFeed",
      "outputs": [],
      "stateMutability": "nonpayable",
      "type": "function"
    }
  ],
  "bytecode": "0x608060405261012c600755612710600855600360095534801561002157600080fd5b5033600660006101000a81548173ffffffffffffffffffffffffffffffffffffffff021916908373ffffffffffffffffffffffffffffffffffffffff1602179055506000600660146101000a81548160ff02191690831515021790555061008c61009160201b60201c565b610c71565b61010f60016040518060400160405280600881526020017f457468657265756d0000000000000000000000000000000000000000000000008152506040518060400160405280601881526020017f68747470733a2f2f6574682e6c6c616d617270632e636f6d000000000000000081525060016106c960201b60201c565b61015560016040518060400160405280601881526020017f68747470733a2f2f7270632e616e6b722e636f6d2f65746800000000000000008152506107d360201b60201c565b61019b60016040518060400160405280601f81526020017f68747470733a2f2f657468657265756d2e7075626c69636e6f64652e636f6d008152506107d360201b60201c565b61021960026040518060400160405280600781526020017f506f6c79676f6e000000000000000000000000000000000000000000000000008152506040518060400160405280601c81526020017f68747470733a2f2f706f6c79676f6e2e6c6c616d617270632e636f6d0000000081525060896106c960201b60201c565b61025f60026040518060400160405280601c81526020017f68747470733a2f2f7270632e616e6b722e636f6d2f706f6c79676f6e000000008152506107d360201b60201c565b6102a560026040518060400160405280601781526020017f68747470733a2f2f706f6c79676f6e2d7270632e636f6d0000000000000000008152506107d360201b60201c565b61032360036040518060400160405280600381526020017f42534300000000000000000000000000000000000000000000000000000000008152506040518060400160405280601881526020017f68747470733a2f2f6273632e6c6c616d617270632e636f6d000000000000000081525060386106c960201b60201c565b61036960036040518060400160405280601881526020017f68747470733a2f2f7270632e616e6b722e636f6d2f62736300000000000000008152506107d360201b60201c565b6103af60036040518060400160405280602081526020017f68747470733a2f2f6273632d64617461736565642e62696e616e63652e6f72678152506107d360201b60201c565b61042e60046040518060400160405280600881526020017f417262697472756d0000000000000000000000000000000000000000000000008152506040518060400160405280601c81526020017f68747470733a2f2f617262312e617262697472756d2e696f2f7270630000000081525061a4b16106c960201b60201c565b61047460046040518060400160405280601d81526020017f68747470733a2f2f7270632e616e6b722e636f6d2f617262697472756d0000008152506107d360201b60201c565b6104f260056040518060400160405280600881526020017f4f7074696d69736d0000000000000000000000000000000000000000000000008152506040518060400160405280601b81526020017f68747470733a2f2f6d61696e6e65742e6f7074696d69736d2e696f0000000000815250600a6106c960201b60201c565b61053860056040518060400160405280601d81526020017f68747470733a2f2f7270632e616e6b722e636f6d2f6f7074696d69736d0000008152506107d360201b60201c565b610588600168a2a15d09519be000006040518060400160405280600981526020017f636f696e6765636b6f00000000000000000000000000000000000000000000008152506108c060201b60201c565b6105d76002670de0b6b3a76400006040518060400160405280600981526020017f636f696e6765636b6f00000000000000000000000000000000000000000000008152506108c060201b60201c565b6106276003681043561a88293000006040518060400160405280600981526020017f636f696e6765636b6f00000000000000000000000000000000000000000000008152506108c060201b60201c565b610677600468a2a15d09519be000006040518060400160405280600981526020017f636f696e6765636b6f00000000000000000000000000000000000000000000008152506108c060201b60201c565b6106c7600568a2a15d09519be000006040518060400160405280600981526020017f636f696e6765636b6f00000000000000000000000000000000000000000000008152506108c060201b60201c565b565b6040518060a001604052808560ff168152602001848152602001838152602001828152602001600115158152506000808660ff1660ff16815260200190815260200160002060008201518160000160006101000a81548160ff021916908360ff16021790555060208201518160010190816107449190610b9f565b50604082015181600201908161075a9190610b9f565b506060820151816003015560808201518160040160006101000a81548160ff02191690831515021790555090505060038490806001815401808255809150506001900390600052602060002090602091828204019190069091909190916101000a81548160ff021916908360ff16021790555050505050565b600160008360ff1660ff1681526020019081526020016000206040518060e001604052808381526020016009548152602001600854815260200160011515815260200160008152602001600081526020016000815250908060018154018082558091505060019003906000526020600020906007020160009091909190915060008201518160000190816108679190610b9f565b50602082015181600101556040820151816002015560608201518160030160006101000a81548160ff0219169083151502179055506080820151816004015560a0820151816005015560c0820151816006015550505050565b604051806080016040528083815260200142815260200182815260200160011515815250600260008560ff1660ff168152602001908152602001600020600082015181600001556020820151816001015560408201518160020190816109269190610b9f565b5060608201518160030160006101000a81548160ff021916908315150217905550905050505050565b600081519050919050565b7f4e487b7100000000000000000000000000000000000000000000000000000000600052604160045260246000fd5b7f4e487b7100000000000000000000000000000000000000000000000000000000600052602260045260246000fd5b600060028204905060018216806109d057607f821691505b6020821081036109e3576109e2610989565b5b50919050565b60008190508160005260206000209050919050565b60006020601f8301049050919050565b600082821b905092915050565b600060088302610a4b7fffffffffffffffffffffffffffffffffffffffffffffffffffffffffffffffff82610a0e565b610a558683610a0e565b95508019841693508086168417925050509392505050565b6000819050919050565b6000819050919050565b6000610a9c610a97610a9284610a6d565b610a77565b610a6d565b9050919050565b6000819050919050565b610ab683610a81565b610aca610ac282610aa3565b848454610a1b565b825550505050565b600090565b610adf610ad2565b610aea818484610aad565b505050565b5b81811015610b0e57610b03600082610ad7565b600181019050610af0565b5050565b601f821115610b5357610b24816109e9565b610b2d846109fe565b81016020851015610b3c578190505b610b50610b48856109fe565b830182610aef565b50505b505050565b600082821c905092915050565b6000610b7660001984600802610b58565b1980831691505092915050565b6000610b8f8383610b65565b9150826002028217905092915050565b610ba88261094f565b67ffffffffffffffff811115610bc157610bc061095a565b5b610bcb82546109b8565b610bd6828285610b12565b600060209050601f831160018114610c095760008415610bf7578287015190505b610c018582610b83565b865550610c69565b601f198416610c17866109e9565b60005b82811015610c3f57848901518255600182019150602085019450602081019050610c1a565b86831015610c5c5784890151610c58601f891682610b65565b8355505b6001600288020188555050505b505050505050565b613d3b80610c806000396000f3fe608060405234801561001057600080fd5b50600436106101585760003560e01c8063a6883f92116100c3578063d42c45a41161007c578063d42c45a414610389578063dc03c949146103a5578063e0890f8c146103c3578063e9889be1146103f3578063eb13257b14610411578063f45c0e251461044157610158565b8063a6883f92146102b7578063b068e7da146102d3578063b187bd26146102ef578063b79fa1471461030d578063c8a10fd714610329578063ca5dfc471461035957610158565b8063585bcbb511610115578063585bcbb5146101f55780636e241ab1146102115780638456cb59146102415780638da5cb5b1461024b5780639a109af7146102695780639ca220dd1461029957610158565b806309f3f5661461015d5780631a8bb7311461017b5780632bd52c20146101975780632c6c5866146101b357806336c0e48c146101cf5780633f4ba83a146101eb575b600080fd5b61016561045d565b6040516101729190612396565b60405180910390f35b61019560048036038101906101909190612459565b610463565b005b6101b160048036038101906101ac91906125a5565b61068f565b005b6101cd60048036038101906101c8919061266b565b6106ed565b005b6101e960048036038101906101e49190612698565b610787565b005b6101f3610924565b005b61020f600480360381019061020a91906126eb565b6109d1565b005b61022b60048036038101906102269190612781565b610b82565b60405161023891906129b4565b60405180910390f35b610249610d5c565b005b610253610e09565b60405161026091906129e5565b60405180910390f35b610283600480360381019061027e9190612a00565b610e2f565b6040516102909190612aea565b60405180910390f35b6102a16110d4565b6040516102ae9190612c5a565b60405180910390f35b6102d160048036038101906102cc9190612c7c565b61132c565b005b6102ed60048036038101906102e8919061266b565b611384565b005b6102f761141e565b6040516103049190612cff565b60405180910390f35b61032760048036038101906103229190612d1a565b611431565b005b610343600480360381019061033e9190612d8e565b61163a565b6040516103509190612f19565b60405180910390f35b610373600480360381019061036e9190612f3b565b6117fb565b6040516103809190612396565b60405180910390f35b6103a3600480360381019061039e9190612459565b61188e565b005b6103ad6119f5565b6040516103ba9190612396565b60405180910390f35b6103dd60048036038101906103d89190612fd1565b6119fb565b6040516103ea91906131c3565b60405180910390f35b6103fb611c1a565b6040516104089190612396565b60405180910390f35b61042b60048036038101906104269190612d8e565b611c20565b6040516104389190613262565b60405180910390f35b61045b6004803603810190610456919061266b565b611db8565b005b60085481565b600660009054906101000a900473ffffffffffffffffffffffffffffffffffffffff1673ffffffffffffffffffffffffffffffffffffffff163373ffffffffffffffffffffffffffffffffffffffff16146104f3576040517f08c379a00000000000000000000000000000000000000000000000000000000081526004016104ea906132e1565b60405180910390fd5b826000808260ff1660ff16815260200190815260200160002060040160009054906101000a900460ff1661055c576040517f08c379a00000000000000000000000000000000000000000000000000000000081526004016105539061334d565b60405180910390fd5b600160008560ff1660ff1681526020019081526020016000206040518060e0016040528085858080601f016020809104026020016040519081016040528093929190818152602001838380828437600081840152601f19601f82011690508083019250505050505050815260200160095481526020016008548152602001600115158152602001600081526020016000815260200160008152509080600181540180825580915050600190039060005260206000209060070201600090919091909150600082015181600001908161063491906135a8565b50602082015181600101556040820151816002015560608201518160030160006101000a81548160ff0219169083151502179055506080820151816004015560a0820151816005015560c08201518160060155505050505050565b8573ffffffffffffffffffffffffffffffffffffffff167fb0d9397422ee1b6f417b7f3f131979847eca1707c81590563aaf0a0b07471a1786868686866040516106dd9594939291906136c5565b60405180910390a2505050505050565b600660009054906101000a900473ffffffffffffffffffffffffffffffffffffffff1673ffffffffffffffffffffffffffffffffffffffff163373ffffffffffffffffffffffffffffffffffffffff161461077d576040517f08c379a0000000000000000000000000000000000000000000000000000000008152600401610774906132e1565b60405180910390fd5b8060088190555050565b600660009054906101000a900473ffffffffffffffffffffffffffffffffffffffff1673ffffffffffffffffffffffffffffffffffffffff163373ffffffffffffffffffffffffffffffffffffffff1614610817576040517f08c379a000000000000000000000000000000000000000000000000000000000815260040161080e906132e1565b60405180910390fd5b80600460008573ffffffffffffffffffffffffffffffffffffffff1673ffffffffffffffffffffffffffffffffffffffff16815260200190815260200160002060008460ff1660ff1681526020019081526020016000208190555042600560008573ffffffffffffffffffffffffffffffffffffffff1673ffffffffffffffffffffffffffffffffffffffff16815260200190815260200160002060008460ff1660ff168152602001908152602001600020819055508160ff168373ffffffffffffffffffffffffffffffffffffffff167f55cab9455a6f966604c9dfa023ea501017928f33c9ed91887d9eae1008bc481a836040516109179190612396565b60405180910390a3505050565b600660009054906101000a900473ffffffffffffffffffffffffffffffffffffffff1673ffffffffffffffffffffffffffffffffffffffff163373ffffffffffffffffffffffffffffffffffffffff16146109b4576040517f08c379a00000000000000000000000000000000000000000000000000000000081526004016109ab906132e1565b60405180910390fd5b6000600660146101000a81548160ff021916908315150217905550565b600660009054906101000a900473ffffffffffffffffffffffffffffffffffffffff1673ffffffffffffffffffffffffffffffffffffffff163373ffffffffffffffffffffffffffffffffffffffff1614610a61576040517f08c379a0000000000000000000000000000000000000000000000000000000008152600401610a58906132e1565b60405180910390fd5b816000808260ff1660ff16815260200190815260200160002060040160009054906101000a900460ff16610aca576040517f08c379a0000000000000000000000000000000000000000000000000000000008152600401610ac19061334d565b60405180910390fd5b600160008460ff1660ff168152602001908152602001600020805490508210610b28576040517f08c379a0000000000000000000000000000000000000000000000000000000008152600401610b1f9061375f565b60405180910390fd5b6000600160008560ff1660ff1681526020019081526020016000208381548110610b5557610b5461377f565b5b906000526020600020906007020160030160006101000a81548160ff021916908315150217905550505050565b6060600660149054906101000a900460ff1615610bd4576040517f08c379a0000000000000000000000000000000000000000000000000000000008152600401610bcb906137fa565b60405180910390fd5b8282905067ffffffffffffffff811115610bf157610bf061336d565b5b604051908082528060200260200182016040528015610c2a57816020015b610c1761231e565b815260200190600190039081610c0f5790505b50905060005b83839050811015610d54576000848483818110610c5057610c4f61377f565b5b9050602002016020810190610c659190612d8e565b90506000808260ff1660ff16815260200190815260200160002060040160009054906101000a900460ff16610ccf576040517f08c379a0000000000000000000000000000000000000000000000000000000008152600401610cc69061334d565b60405180910390fd5b6000610cdb8783611e52565b905060008103610cf257610cef8783611f3a565b90505b60405180608001604052808360ff168152602001610d0f84611f97565b8152602001828152602001610d24848461214e565b815250848481518110610d3a57610d3961377f565b5b602002602001018190525050508080600101915050610c30565b509392505050565b600660009054906101000a900473ffffffffffffffffffffffffffffffffffffffff1673ffffffffffffffffffffffffffffffffffffffff163373ffffffffffffffffffffffffffffffffffffffff1614610dec576040517f08c379a0000000000000000000000000000000000000000000000000000000008152600401610de3906132e1565b60405180910390fd5b6001600660146101000a81548160ff021916908315150217905550565b600660009054906101000a900473ffffffffffffffffffffffffffffffffffffffff1681565b6060856000808260ff1660ff16815260200190815260200160002060040160009054906101000a900460ff16610e9a576040517f08c379a0000000000000000000000000000000000000000000000000000000008152600401610e919061334d565b60405180910390fd5b600660149054906101000a900460ff1615610eea576040517f08c379a0000000000000000000000000000000000000000000000000000000008152600401610ee1906137fa565b60405180910390fd5b6040518060400160405280600e81526020017f6574685f67657442616c616e6365000000000000000000000000000000000000815250805190602001208686604051610f3792919061384a565b604051809103902003610f8e5760008484810190610f5591906138a1565b90506000610f63828a611f3a565b905080604051602001610f769190612396565b604051602081830303815290604052935050506110ca565b6040518060400160405280601781526020017f6574685f6765745472616e73616374696f6e436f756e74000000000000000000815250805190602001208686604051610fdb92919061384a565b60405180910390200361101057602a604051602001610ffa9190612396565b60405160208183030381529060405291506110c9565b6040518060400160405280600c81526020017f6574685f6761735072696365000000000000000000000000000000000000000081525080519060200120868660405161105d92919061384a565b60405180910390200361109f57600061107588612289565b9050806040516020016110889190612396565b6040516020818303038152906040529250506110c8565b858585856040516020016110b69493929190613947565b60405160208183030381529060405291505b5b5b5095945050505050565b606060038054905067ffffffffffffffff8111156110f5576110f461336d565b5b60405190808252806020026020018201604052801561112e57816020015b61111b612349565b8152602001906001900390816111135790505b50905060005b60038054905081101561132857600080600383815481106111585761115761377f565b5b90600052602060002090602091828204019190069054906101000a900460ff1660ff1660ff1681526020019081526020016000206040518060a00160405290816000820160009054906101000a900460ff1660ff1660ff1681526020016001820180546111c4906133cb565b80601f01602080910402602001604051908101604052809291908181526020018280546111f0906133cb565b801561123d5780601f106112125761010080835404028352916020019161123d565b820191906000526020600020905b81548152906001019060200180831161122057829003601f168201915b50505050508152602001600282018054611256906133cb565b80601f0160208091040260200160405190810160405280929190818152602001828054611282906133cb565b80156112cf5780601f106112a4576101008083540402835291602001916112cf565b820191906000526020600020905b8154815290600101906020018083116112b257829003601f168201915b50505050508152602001600382015481526020016004820160009054906101000a900460ff1615151515815250508282815181106113105761130f61377f565b5b60200260200101819052508080600101915050611134565b5090565b8373ffffffffffffffffffffffffffffffffffffffff167f41bd02e6a181ed3b5c47c66b0d50da614b18b3346bd2520c43a2ace581007dab84848460405161137693929190613995565b60405180910390a250505050565b600660009054906101000a900473ffffffffffffffffffffffffffffffffffffffff1673ffffffffffffffffffffffffffffffffffffffff163373ffffffffffffffffffffffffffffffffffffffff1614611414576040517f08c379a000000000000000000000000000000000000000000000000000000000815260040161140b906132e1565b60405180910390fd5b8060098190555050565b600660149054906101000a900460ff1681565b600660009054906101000a900473ffffffffffffffffffffffffffffffffffffffff1673ffffffffffffffffffffffffffffffffffffffff163373ffffffffffffffffffffffffffffffffffffffff16146114c1576040517f08c379a00000000000000000000000000000000000000000000000000000000081526004016114b8906132e1565b60405180910390fd5b836000808260ff1660ff16815260200190815260200160002060040160009054906101000a900460ff1661152a576040517f08c379a00000000000000000000000000000000000000000000000000000000081526004016115219061334d565b60405180910390fd5b604051806080016040528085815260200142815260200184848080601f016020809104026020016040519081016040528093929190818152602001838380828437600081840152601f19601f82011690508083019250505050505050815260200160011515815250600260008760ff1660ff168152602001908152602001600020600082015181600001556020820151816001015560408201518160020190816115d491906135a8565b5060608201518160030160006101000a81548160ff0219169083151502179055509050508460ff167fa06f9d50b7c4ed3e6287aa4aebe0d681106cec2b93ef0440f093ed657e8f221c8560405161162b9190612396565b60405180910390a25050505050565b6060816000808260ff1660ff16815260200190815260200160002060040160009054906101000a900460ff166116a5576040517f08c379a000000000000000000000000000000000000000000000000000000000815260040161169c9061334d565b60405180910390fd5b600160008460ff1660ff168152602001908152602001600020805480602002602001604051908101604052809291908181526020016000905b828210156117ef57838290600052602060002090600702016040518060e0016040529081600082018054611711906133cb565b80601f016020809104026020016040519081016040528092919081815260200182805461173d906133cb565b801561178a5780601f1061175f5761010080835404028352916020019161178a565b820191906000526020600020905b81548152906001019060200180831161176d57829003601f168201915b5050505050815260200160018201548152602001600282015481526020016003820160009054906101000a900460ff161515151581526020016004820154815260200160058201548152602001600682015481525050815260200190600101906116de565b50505050915050919050565b6000816000808260ff1660ff16815260200190815260200160002060040160009054906101000a900460ff16611866576040517f08c379a000000000000000000000000000000000000000000000000000000000815260040161185d9061334d565b60405180910390fd5b6118708484611e52565b915060008203611887576118848484611f3a565b91505b5092915050565b600660009054906101000a900473ffffffffffffffffffffffffffffffffffffffff1673ffffffffffffffffffffffffffffffffffffffff163373ffffffffffffffffffffffffffffffffffffffff161461191e576040517f08c379a0000000000000000000000000000000000000000000000000000000008152600401611915906132e1565b60405180910390fd5b826000808260ff1660ff16815260200190815260200160002060040160009054906101000a900460ff16611987576040517f08c379a000000000000000000000000000000000000000000000000000000000815260040161197e9061334d565b60405180910390fd5b82826000808760ff1660ff16815260200190815260200160002060020191826119b19291906139d2565b508360ff167f54a7d1f56c0f5b0dbe7e9d1e407e84f7d168d76851519e926b179f5a98dbd4b484846040516119e7929190613aa2565b60405180910390a250505050565b60095481565b60608484905067ffffffffffffffff811115611a1a57611a1961336d565b5b604051908082528060200260200182016040528015611a4d57816020015b6060815260200190600190039081611a385790505b50905060005b85859050811015611c11578383905067ffffffffffffffff811115611a7b57611a7a61336d565b5b604051908082528060200260200182016040528015611aa95781602001602082028036833780820191505090505b50828281518110611abd57611abc61377f565b5b602002602001018190525060005b84849050811015611c0357600080868684818110611aec57611aeb61377f565b5b9050602002016020810190611b019190612d8e565b60ff1660ff16815260200190815260200160002060040160009054906101000a900460ff16611b65576040517f08c379a0000000000000000000000000000000000000000000000000000000008152600401611b5c9061334d565b60405180910390fd5b611bbd878784818110611b7b57611b7a61377f565b5b9050602002016020810190611b909190613ac6565b868684818110611ba357611ba261377f565b5b9050602002016020810190611bb89190612d8e565b611f3a565b838381518110611bd057611bcf61377f565b5b60200260200101518281518110611bea57611be961377f565b5b6020026020010181815250508080600101915050611acb565b508080600101915050611a53565b50949350505050565b60075481565b611c28612349565b6000808360ff1660ff1681526020019081526020016000206040518060a00160405290816000820160009054906101000a900460ff1660ff1660ff168152602001600182018054611c78906133cb565b80601f0160208091040260200160405190810160405280929190818152602001828054611ca4906133cb565b8015611cf15780601f10611cc657610100808354040283529160200191611cf1565b820191906000526020600020905b815481529060010190602001808311611cd457829003601f168201915b50505050508152602001600282018054611d0a906133cb565b80601f0160208091040260200160405190810160405280929190818152602001828054611d36906133cb565b8015611d835780601f10611d5857610100808354040283529160200191611d83565b820191906000526020600020905b815481529060010190602001808311611d6657829003601f168201915b50505050508152602001600382015481526020016004820160009054906101000a900460ff1615151515815250509050919050565b600660009054906101000a900473ffffffffffffffffffffffffffffffffffffffff1673ffffffffffffffffffffffffffffffffffffffff163373ffffffffffffffffffffffffffffffffffffffff1614611e48576040517f08c379a0000000000000000000000000000000000000000000000000000000008152600401611e3f906132e1565b60405180910390fd5b8060078190555050565b600080600560008573ffffffffffffffffffffffffffffffffffffffff1673ffffffffffffffffffffffffffffffffffffffff16815260200190815260200160002060008460ff1660ff168152602001908152602001600020549050600081118015611eca57506007548142611ec89190613b22565b105b15611f2e57600460008573ffffffffffffffffffffffffffffffffffffffff1673ffffffffffffffffffffffffffffffffffffffff16815260200190815260200160002060008460ff1660ff16815260200190815260200160002054915050611f34565b60009150505b92915050565b600080678ac7230489e800008484610e1042611f569190613b85565b604051602001611f6893929190613c55565b6040516020818303038152906040528051906020012060001c611f8b9190613c92565b90508091505092915050565b6060600160ff168260ff1603611fe4576040518060400160405280600381526020017f45544800000000000000000000000000000000000000000000000000000000008152509050612149565b600260ff168260ff160361202f576040518060400160405280600581526020017f4d415449430000000000000000000000000000000000000000000000000000008152509050612149565b600360ff168260ff160361207a576040518060400160405280600381526020017f424e4200000000000000000000000000000000000000000000000000000000008152509050612149565b600460ff168260ff16036120c5576040518060400160405280600381526020017f45544800000000000000000000000000000000000000000000000000000000008152509050612149565b600560ff168260ff1603612110576040518060400160405280600381526020017f45544800000000000000000000000000000000000000000000000000000000008152509050612149565b6040518060400160405280600781526020017f554e4b4e4f574e0000000000000000000000000000000000000000000000000081525090505b919050565b600080600260008560ff1660ff1681526020019081526020016000206040518060800160405290816000820154815260200160018201548152602001600282018054612199906133cb565b80601f01602080910402602001604051908101604052809291908181526020018280546121c5906133cb565b80156122125780601f106121e757610100808354040283529160200191612212565b820191906000526020600020905b8154815290600101906020018083116121f557829003601f168201915b505050505081526020016003820160009054906101000a900460ff16151515158152505090508060600151801561224d575060008160000151115b1561227d57670de0b6b3a764000081600001518461226b9190613cc3565b6122759190613b85565b915050612283565b60009150505b92915050565b6000600160ff168260ff16036122a6576404a817c8009050612319565b600260ff168260ff16036122c1576406fc23ac009050612319565b600360ff168260ff16036122dc5764012a05f2009050612319565b600460ff168260ff16036122f657633b9aca009050612319565b600560ff168260ff160361231057633b9aca009050612319565b6402540be40090505b919050565b6040518060800160405280600060ff1681526020016060815260200160008152602001600081525090565b6040518060a00160405280600060ff1681526020016060815260200160608152602001600081526020016000151581525090565b6000819050919050565b6123908161237d565b82525050565b60006020820190506123ab6000830184612387565b92915050565b600080fd5b600080fd5b600060ff82169050919050565b6123d1816123bb565b81146123dc57600080fd5b50565b6000813590506123ee816123c8565b92915050565b600080fd5b600080fd5b600080fd5b60008083601f840112612419576124186123f4565b5b8235905067ffffffffffffffff811115612436576124356123f9565b5b602083019150836001820283011115612452576124516123fe565b5b9250929050565b600080600060408486031215612472576124716123b1565b5b6000612480868287016123df565b935050602084013567ffffffffffffffff8111156124a1576124a06123b6565b5b6124ad86828701612403565b92509250509250925092565b600073ffffffffffffffffffffffffffffffffffffffff82169050919050565b60006124e4826124b9565b9050919050565b6124f4816124d9565b81146124ff57600080fd5b50565b600081359050612511816124eb565b92915050565b60008115159050919050565b61252c81612517565b811461253757600080fd5b50565b60008135905061254981612523565b92915050565b60008083601f840112612565576125646123f4565b5b8235905067ffffffffffffffff811115612582576125816123f9565b5b60208301915083600182028301111561259e5761259d6123fe565b5b9250929050565b60008060008060008060a087890312156125c2576125c16123b1565b5b60006125d089828a01612502565b96505060206125e189828a016123df565b95505060406125f289828a016123df565b945050606061260389828a0161253a565b935050608087013567ffffffffffffffff811115612624576126236123b6565b5b61263089828a0161254f565b92509250509295509295509295565b6126488161237d565b811461265357600080fd5b50565b6000813590506126658161263f565b92915050565b600060208284031215612681576126806123b1565b5b600061268f84828501612656565b91505092915050565b6000806000606084860312156126b1576126b06123b1565b5b60006126bf86828701612502565b93505060206126d0868287016123df565b92505060406126e186828701612656565b9150509250925092565b60008060408385031215612702576127016123b1565b5b6000612710858286016123df565b925050602061272185828601612656565b9150509250929050565b60008083601f840112612741576127406123f4565b5b8235905067ffffffffffffffff81111561275e5761275d6123f9565b5b60208301915083602082028301111561277a576127796123fe565b5b9250929050565b60008060006040848603121561279a576127996123b1565b5b60006127a886828701612502565b935050602084013567ffffffffffffffff8111156127c9576127c86123b6565b5b6127d58682870161272b565b92509250509250925092565b600081519050919050565b600082825260208201905092915050565b6000819050602082019050919050565b612816816123bb565b82525050565b600081519050919050565b600082825260208201905092915050565b60005b8381101561285657808201518184015260208101905061283b565b60008484015250505050565b6000601f19601f8301169050919050565b600061287e8261281c565b6128888185612827565b9350612898818560208601612838565b6128a181612862565b840191505092915050565b6128b58161237d565b82525050565b60006080830160008301516128d3600086018261280d565b50602083015184820360208601526128eb8282612873565b915050604083015161290060408601826128ac565b50606083015161291360608601826128ac565b508091505092915050565b600061292a83836128bb565b905092915050565b6000602082019050919050565b600061294a826127e1565b61295481856127ec565b935083602082028501612966856127fd565b8060005b858110156129a25784840389528151612983858261291e565b945061298e83612932565b925060208a0199505060018101905061296a565b50829750879550505050505092915050565b600060208201905081810360008301526129ce818461293f565b905092915050565b6129df816124d9565b82525050565b60006020820190506129fa60008301846129d6565b92915050565b600080600080600060608688031215612a1c57612a1b6123b1565b5b6000612a2a888289016123df565b955050602086013567ffffffffffffffff811115612a4b57612a4a6123b6565b5b612a5788828901612403565b9450945050604086013567ffffffffffffffff811115612a7a57612a796123b6565b5b612a868882890161254f565b92509250509295509295909350565b600081519050919050565b600082825260208201905092915050565b6000612abc82612a95565b612ac68185612aa0565b9350612ad6818560208601612838565b612adf81612862565b840191505092915050565b60006020820190508181036000830152612b048184612ab1565b905092915050565b600081519050919050565b600082825260208201905092915050565b6000819050602082019050919050565b612b4181612517565b82525050565b600060a083016000830151612b5f600086018261280d565b5060208301518482036020860152612b778282612873565b91505060408301518482036040860152612b918282612873565b9150506060830151612ba660608601826128ac565b506080830151612bb96080860182612b38565b508091505092915050565b6000612bd08383612b47565b905092915050565b6000602082019050919050565b6000612bf082612b0c565b612bfa8185612b17565b935083602082028501612c0c85612b28565b8060005b85811015612c485784840389528151612c298582612bc4565b9450612c3483612bd8565b925060208a01995050600181019050612c10565b50829750879550505050505092915050565b60006020820190508181036000830152612c748184612be5565b905092915050565b60008060008060608587031215612c9657612c956123b1565b5b6000612ca487828801612502565b9450506020612cb5878288016123df565b935050604085013567ffffffffffffffff811115612cd657612cd56123b6565b5b612ce28782880161254f565b925092505092959194509250565b612cf981612517565b82525050565b6000602082019050612d146000830184612cf0565b92915050565b60008060008060608587031215612d3457612d336123b1565b5b6000612d42878288016123df565b9450506020612d5387828801612656565b935050604085013567ffffffffffffffff811115612d7457612d736123b6565b5b612d8087828801612403565b925092505092959194509250565b600060208284031215612da457612da36123b1565b5b6000612db2848285016123df565b91505092915050565b600081519050919050565b600082825260208201905092915050565b6000819050602082019050919050565b600060e0830160008301518482036000860152612e048282612873565b9150506020830151612e1960208601826128ac565b506040830151612e2c60408601826128ac565b506060830151612e3f6060860182612b38565b506080830151612e5260808601826128ac565b5060a0830151612e6560a08601826128ac565b5060c0830151612e7860c08601826128ac565b508091505092915050565b6000612e8f8383612de7565b905092915050565b6000602082019050919050565b6000612eaf82612dbb565b612eb98185612dc6565b935083602082028501612ecb85612dd7565b8060005b85811015612f075784840389528151612ee88582612e83565b9450612ef383612e97565b925060208a01995050600181019050612ecf565b50829750879550505050505092915050565b60006020820190508181036000830152612f338184612ea4565b905092915050565b60008060408385031215612f5257612f516123b1565b5b6000612f6085828601612502565b9250506020612f71858286016123df565b9150509250929050565b60008083601f840112612f9157612f906123f4565b5b8235905067ffffffffffffffff811115612fae57612fad6123f9565b5b602083019150836020820283011115612fca57612fc96123fe565b5b9250929050565b60008060008060408587031215612feb57612fea6123b1565b5b600085013567ffffffffffffffff811115613009576130086123b6565b5b61301587828801612f7b565b9450945050602085013567ffffffffffffffff811115613038576130376123b6565b5b6130448782880161272b565b925092505092959194509250565b600081519050919050565b600082825260208201905092915050565b6000819050602082019050919050565b600081519050919050565b600082825260208201905092915050565b6000819050602082019050919050565b60006130b683836128ac565b60208301905092915050565b6000602082019050919050565b60006130da8261307e565b6130e48185613089565b93506130ef8361309a565b8060005b8381101561312057815161310788826130aa565b9750613112836130c2565b9250506001810190506130f3565b5085935050505092915050565b600061313983836130cf565b905092915050565b6000602082019050919050565b600061315982613052565b613163818561305d565b9350836020820285016131758561306e565b8060005b858110156131b15784840389528151613192858261312d565b945061319d83613141565b925060208a01995050600181019050613179565b50829750879550505050505092915050565b600060208201905081810360008301526131dd818461314e565b905092915050565b600060a0830160008301516131fd600086018261280d565b50602083015184820360208601526132158282612873565b9150506040830151848203604086015261322f8282612873565b915050606083015161324460608601826128ac565b5060808301516132576080860182612b38565b508091505092915050565b6000602082019050818103600083015261327c81846131e5565b905092915050565b600082825260208201905092915050565b7f4e6f7420617574686f72697a6564000000000000000000000000000000000000600082015250565b60006132cb600e83613284565b91506132d682613295565b602082019050919050565b600060208201905081810360008301526132fa816132be565b9050919050565b7f436861696e206e6f7420737570706f7274656400000000000000000000000000600082015250565b6000613337601383613284565b915061334282613301565b602082019050919050565b600060208201905081810360008301526133668161332a565b9050919050565b7f4e487b7100000000000000000000000000000000000000000000000000000000600052604160045260246000fd5b7f4e487b7100000000000000000000000000000000000000000000000000000000600052602260045260246000fd5b600060028204905060018216806133e357607f821691505b6020821081036133f6576133f561339c565b5b50919050565b60008190508160005260206000209050919050565b60006020601f8301049050919050565b600082821b905092915050565b60006008830261345e7fffffffffffffffffffffffffffffffffffffffffffffffffffffffffffffffff82613421565b6134688683613421565b95508019841693508086168417925050509392505050565b6000819050919050565b60006134a56134a061349b8461237d565b613480565b61237d565b9050919050565b6000819050919050565b6134bf8361348a565b6134d36134cb826134ac565b84845461342e565b825550505050565b600090565b6134e86134db565b6134f38184846134b6565b505050565b5b818110156135175761350c6000826134e0565b6001810190506134f9565b5050565b601f82111561355c5761352d816133fc565b61353684613411565b81016020851015613545578190505b61355961355185613411565b8301826134f8565b50505b505050565b600082821c905092915050565b600061357f60001984600802613561565b1980831691505092915050565b6000613598838361356e565b9150826002028217905092915050565b6135b18261281c565b67ffffffffffffffff8111156135ca576135c961336d565b5b6135d482546133cb565b6135df82828561351b565b600060209050601f8311600181146136125760008415613600578287015190505b61360a858261358c565b865550613672565b601f198416613620866133fc565b60005b8281101561364857848901518255600182019150602085019450602081019050613623565b868310156136655784890151613661601f89168261356e565b8355505b6001600288020188555050505b505050505050565b613683816123bb565b82525050565b82818337600083830152505050565b60006136a48385612aa0565b93506136b1838584613689565b6136ba83612862565b840190509392505050565b60006080820190506136da600083018861367a565b6136e7602083018761367a565b6136f46040830186612cf0565b8181036060830152613707818486613698565b90509695505050505050565b7f496e76616c696420656e64706f696e7420696e64657800000000000000000000600082015250565b6000613749601683613284565b915061375482613713565b602082019050919050565b600060208201905081810360008301526137788161373c565b9050919050565b7f4e487b7100000000000000000000000000000000000000000000000000000000600052603260045260246000fd5b7f436f6e7472616374206973207061757365640000000000000000000000000000600082015250565b60006137e4601283613284565b91506137ef826137ae565b602082019050919050565b60006020820190508181036000830152613813816137d7565b9050919050565b600081905092915050565b6000613831838561381a565b935061383e838584613689565b82840190509392505050565b6000613857828486613825565b91508190509392505050565b600061386e826124b9565b9050919050565b61387e81613863565b811461388957600080fd5b50565b60008135905061389b81613875565b92915050565b6000602082840312156138b7576138b66123b1565b5b60006138c58482850161388c565b91505092915050565b7f7375636365737300000000000000000000000000000000000000000000000000600082015250565b6000613904600783613284565b915061390f826138ce565b602082019050919050565b60006139268385613284565b9350613933838584613689565b61393c83612862565b840190509392505050565b60006060820190508181036000830152613960816138f7565b9050818103602083015261397581868861391a565b9050818103604083015261398a818486613698565b905095945050505050565b60006040820190506139aa600083018661367a565b81810360208301526139bd818486613698565b9050949350505050565b600082905092915050565b6139dc83836139c7565b67ffffffffffffffff8111156139f5576139f461336d565b5b6139ff82546133cb565b613a0a82828561351b565b6000601f831160018114613a395760008415613a27578287013590505b613a31858261358c565b865550613a99565b601f198416613a47866133fc565b60005b82811015613a6f57848901358255600182019150602085019450602081019050613a4a565b86831015613a8c5784890135613a88601f89168261356e565b8355505b6001600288020188555050505b50505050505050565b60006020820190508181036000830152613abd81848661391a565b90509392505050565b600060208284031215613adc57613adb6123b1565b5b6000613aea84828501612502565b91505092915050565b7f4e487b7100000000000000000000000000000000000000000000000000000000600052601160045260246000fd5b6000613b2d8261237d565b9150613b388361237d565b9250828203905081811115613b5057613b4f613af3565b5b92915050565b7f4e487b7100000000000000000000000000000000000000000000000000000000600052601260045260246000fd5b6000613b908261237d565b9150613b9b8361237d565b925082613bab57613baa613b56565b5b828204905092915050565b60008160601b9050919050565b6000613bce82613bb6565b9050919050565b6000613be082613bc3565b9050919050565b613bf8613bf3826124d9565b613bd5565b82525050565b60008160f81b9050919050565b6000613c1682613bfe565b9050919050565b613c2e613c29826123bb565b613c0b565b82525050565b6000819050919050565b613c4f613c4a8261237d565b613c34565b82525050565b6000613c618286613be7565b601482019150613c718285613c1d565b600182019150613c818284613c3e565b602082019150819050949350505050565b6000613c9d8261237d565b9150613ca88361237d565b925082613cb857613cb7613b56565b5b828206905092915050565b6000613cce8261237d565b9150613cd98361237d565b9250828202613ce78161237d565b91508282048414831517613cfe57613cfd613af3565b5b509291505056fea26469706673582212207ac2440c353ab0825475fef629195d00352dbb7e78492610b0ef922224f7679e64736f6c634300081c0033",
  "linkReferences": {},
  "deployedLinkReferences": {}
}