{
  "_format": "hh-sol-artifact-1",
  "contractName": "RecoveryManager",
  "sourceName": "contracts/RecoveryManager.sol",
  "abi": [
    {
      "inputs": [],
      "stateMutability": "nonpayable",
      "type": "constructor"
    },
    {
      "anonymous": false,
      "inputs": [
        {
          "indexed": true,
          "internalType": "address",
          "name": "user",
          "type": "address"
        },
        {
          "indexed": true,
          "internalType": "bytes32",
          "name": "resourceId",
          "type": "bytes32"
        },
        {
          "indexed": false,
          "internalType": "address",
          "name": "grantee",
          "type": "address"
        }
      ],
      "name": "AccessGranted",
      "type": "event"
    },
    {
      "anonymous": false,
      "inputs": [
        {
          "indexed": true,
          "internalType": "address",
          "name": "user",
          "type": "address"
        },
        {
          "indexed": true,
          "internalType": "bytes32",
          "name": "resourceId",
          "type": "bytes32"
        },
        {
          "indexed": false,
          "internalType": "address",
          "name": "revokee",
          "type": "address"
        }
      ],
      "name": "AccessRevoked",
      "type": "event"
    },
    {
      "anonymous": false,
      "inputs": [
        {
          "indexed": true,
          "internalType": "address",
          "name": "user",
          "type": "address"
        },
        {
          "indexed": true,
          "internalType": "bytes32",
          "name": "walletId",
          "type": "bytes32"
        },
        {
          "indexed": false,
          "internalType": "uint8",
          "name": "chainType",
          "type": "uint8"
        },
        {
          "indexed": false,
          "internalType": "uint256",
          "name": "newBalance",
          "type": "uint256"
        }
      ],
      "name": "ChainBalanceUpdated",
      "type": "event"
    },
    {
      "anonymous": false,
      "inputs": [
        {
          "indexed": true,
          "internalType": "address",
          "name": "user",
          "type": "address"
        },
        {
          "indexed": true,
          "internalType": "bytes32",
          "name": "operationId",
          "type": "bytes32"
        },
        {
          "indexed": false,
          "internalType": "bool",
          "name": "success",
          "type": "bool"
        }
      ],
      "name": "CrossChainOperationCompleted",
      "type": "event"
    },
    {
      "anonymous": false,
      "inputs": [
        {
          "indexed": true,
          "internalType": "address",
          "name": "user",
          "type": "address"
        },
        {
          "indexed": true,
          "internalType": "bytes32",
          "name": "operationId",
          "type": "bytes32"
        },
        {
          "indexed": false,
          "internalType": "uint8",
          "name": "sourceChain",
          "type": "uint8"
        },
        {
          "indexed": false,
          "internalType": "uint8",
          "name": "targetChain",
          "type": "uint8"
        }
      ],
      "name": "CrossChainOperationStarted",
      "type": "event"
    },
    {
      "anonymous": false,
      "inputs": [
        {
          "indexed": true,
          "internalType": "address",
          "name": "user",
          "type": "address"
        },
        {
          "indexed": true,
          "internalType": "bytes32",
          "name": "deviceId",
          "type": "bytes32"
        },
        {
          "indexed": false,
          "internalType": "address",
          "name": "deviceAddress",
          "type": "address"
        }
      ],
      "name": "DeviceAuthorized",
      "type": "event"
    },
    {
      "anonymous": false,
      "inputs": [
        {
          "indexed": true,
          "internalType": "address",
          "name": "user",
          "type": "address"
        },
        {
          "indexed": true,
          "internalType": "bytes32",
          "name": "deviceId",
          "type": "bytes32"
        },
        {
          "indexed": false,
          "internalType": "string",
          "name": "deviceName",
          "type": "string"
        }
      ],
      "name": "DeviceRegistered",
      "type": "event"
    },
    {
      "anonymous": false,
      "inputs": [
        {
          "indexed": true,
          "internalType": "address",
          "name": "user",
          "type": "address"
        },
        {
          "indexed": true,
          "internalType": "bytes32",
          "name": "deviceId",
          "type": "bytes32"
        },
        {
          "indexed": false,
          "internalType": "uint256",
          "name": "timestamp",
          "type": "uint256"
        }
      ],
      "name": "DeviceRevoked",
      "type": "event"
    },
    {
      "anonymous": false,
      "inputs": [
        {
          "indexed": true,
          "internalType": "address",
          "name": "admin",
          "type": "address"
        },
        {
          "indexed": false,
          "internalType": "string",
          "name": "reason",
          "type": "string"
        },
        {
          "indexed": false,
          "internalType": "uint256",
          "name": "timestamp",
          "type": "uint256"
        }
      ],
      "name": "EmergencyShutdown",
      "type": "event"
    },
    {
      "anonymous": false,
      "inputs": [
        {
          "indexed": true,
          "internalType": "address",
          "name": "user",
          "type": "address"
        },
        {
          "indexed": false,
          "internalType": "uint8",
          "name": "eventType",
          "type": "uint8"
        },
        {
          "indexed": false,
          "internalType": "bytes",
          "name": "data",
          "type": "bytes"
        }
      ],
      "name": "GenericVaultEvent",
      "type": "event"
    },
    {
      "anonymous": false,
      "inputs": [
        {
          "indexed": true,
          "internalType": "address",
          "name": "user",
          "type": "address"
        },
        {
          "indexed": true,
          "internalType": "address",
          "name": "guardian",
          "type": "address"
        },
        {
          "indexed": false,
          "internalType": "string",
          "name": "name",
          "type": "string"
        }
      ],
      "name": "GuardianAdded",
      "type": "event"
    },
    {
      "anonymous": false,
      "inputs": [
        {
          "indexed": true,
          "internalType": "address",
          "name": "user",
          "type": "address"
        },
        {
          "indexed": true,
          "internalType": "bytes32",
          "name": "recoveryId",
          "type": "bytes32"
        },
        {
          "indexed": true,
          "internalType": "address",
          "name": "guardian",
          "type": "address"
        }
      ],
      "name": "GuardianApproved",
      "type": "event"
    },
    {
      "anonymous": false,
      "inputs": [
        {
          "indexed": true,
          "internalType": "address",
          "name": "user",
          "type": "address"
        },
        {
          "indexed": true,
          "internalType": "address",
          "name": "guardian",
          "type": "address"
        }
      ],
      "name": "GuardianRemoved",
      "type": "event"
    },
    {
      "anonymous": false,
      "inputs": [
        {
          "indexed": true,
          "internalType": "address",
          "name": "user",
          "type": "address"
        },
        {
          "indexed": true,
          "internalType": "bytes32",
          "name": "recoveryId",
          "type": "bytes32"
        },
        {
          "indexed": false,
          "internalType": "uint256",
          "name": "timestamp",
          "type": "uint256"
        }
      ],
      "name": "RecoveryCompleted",
      "type": "event"
    },
    {
      "anonymous": false,
      "inputs": [
        {
          "indexed": true,
          "internalType": "address",
          "name": "user",
          "type": "address"
        },
        {
          "indexed": true,
          "internalType": "bytes32",
          "name": "recoveryId",
          "type": "bytes32"
        },
        {
          "indexed": false,
          "internalType": "uint256",
          "name": "threshold",
          "type": "uint256"
        }
      ],
      "name": "RecoveryInitiated",
      "type": "event"
    },
    {
      "anonymous": false,
      "inputs": [
        {
          "indexed": true,
          "internalType": "address",
          "name": "user",
          "type": "address"
        },
        {
          "indexed": true,
          "internalType": "bytes32",
          "name": "shareId",
          "type": "bytes32"
        },
        {
          "indexed": false,
          "internalType": "uint256",
          "name": "threshold",
          "type": "uint256"
        }
      ],
      "name": "RecoveryShareCreated",
      "type": "event"
    },
    {
      "anonymous": false,
      "inputs": [
        {
          "indexed": true,
          "internalType": "address",
          "name": "user",
          "type": "address"
        },
        {
          "indexed": false,
          "internalType": "uint8",
          "name": "alertType",
          "type": "uint8"
        },
        {
          "indexed": false,
          "internalType": "string",
          "name": "description",
          "type": "string"
        },
        {
          "indexed": false,
          "internalType": "uint256",
          "name": "timestamp",
          "type": "uint256"
        }
      ],
      "name": "SecurityAlert",
      "type": "event"
    },
    {
      "anonymous": false,
      "inputs": [
        {
          "indexed": false,
          "internalType": "uint256",
          "name": "timestamp",
          "type": "uint256"
        },
        {
          "indexed": false,
          "internalType": "bool",
          "name": "healthy",
          "type": "bool"
        },
        {
          "indexed": false,
          "internalType": "string",
          "name": "details",
          "type": "string"
        }
      ],
      "name": "SystemHealthCheck",
      "type": "event"
    },
    {
      "anonymous": false,
      "inputs": [
        {
          "indexed": true,
          "internalType": "address",
          "name": "admin",
          "type": "address"
        },
        {
          "indexed": false,
          "internalType": "uint256",
          "name": "timestamp",
          "type": "uint256"
        }
      ],
      "name": "SystemRecovery",
      "type": "event"
    },
    {
      "anonymous": false,
      "inputs": [
        {
          "indexed": true,
          "internalType": "address",
          "name": "user",
          "type": "address"
        },
        {
          "indexed": true,
          "internalType": "bytes32",
          "name": "walletId",
          "type": "bytes32"
        },
        {
          "indexed": false,
          "internalType": "bytes32",
          "name": "txHash",
          "type": "bytes32"
        },
        {
          "indexed": false,
          "internalType": "uint8",
          "name": "chainType",
          "type": "uint8"
        }
      ],
      "name": "TransactionSigned",
      "type": "event"
    },
    {
      "anonymous": false,
      "inputs": [
        {
          "indexed": true,
          "internalType": "address",
          "name": "user",
          "type": "address"
        },
        {
          "indexed": false,
          "internalType": "address",
          "name": "unauthorized",
          "type": "address"
        },
        {
          "indexed": false,
          "internalType": "string",
          "name": "resource",
          "type": "string"
        }
      ],
      "name": "UnauthorizedAccess",
      "type": "event"
    },
    {
      "anonymous": false,
      "inputs": [
        {
          "indexed": true,
          "internalType": "address",
          "name": "user",
          "type": "address"
        },
        {
          "indexed": false,
          "internalType": "uint8",
          "name": "flowType",
          "type": "uint8"
        },
        {
          "indexed": false,
          "internalType": "uint8",
          "name": "step",
          "type": "uint8"
        },
        {
          "indexed": false,
          "internalType": "bool",
          "name": "success",
          "type": "bool"
        },
        {
          "indexed": false,
          "internalType": "bytes",
          "name": "data",
          "type": "bytes"
        }
      ],
      "name": "UserFlowEvent",
      "type": "event"
    },
    {
      "inputs": [
        {
          "internalType": "address",
          "name": "guardianAddress",
          "type": "address"
        },
        {
          "internalType": "string",
          "name": "name",
          "type": "string"
        },
        {
          "internalType": "bytes32",
          "name": "contactHash",
          "type": "bytes32"
        }
      ],
      "name": "addGuardian",
      "outputs": [],
      "stateMutability": "nonpayable",
      "type": "function"
    },
    {
      "inputs": [
        {
          "internalType": "bytes32",
          "name": "recoveryId",
          "type": "bytes32"
        }
      ],
      "name": "approveRecovery",
      "outputs": [],
      "stateMutability": "nonpayable",
      "type": "function"
    },
    {
      "inputs": [
        {
          "internalType": "bytes32",
          "name": "recoveryId",
          "type": "bytes32"
        }
      ],
      "name": "cancelRecovery",
      "outputs": [],
      "stateMutability": "nonpayable",
      "type": "function"
    },
    {
      "inputs": [
        {
          "internalType": "uint256",
          "name": "threshold",
          "type": "uint256"
        },
        {
          "internalType": "bytes[]",
          "name": "shareData",
          "type": "bytes[]"
        }
      ],
      "name": "createRecoveryShares",
      "outputs": [
        {
          "internalType": "bytes32[]",
          "name": "shareIds",
          "type": "bytes32[]"
        }
      ],
      "stateMutability": "nonpayable",
      "type": "function"
    },
    {
      "inputs": [],
      "name": "defaultRecoveryPeriod",
      "outputs": [
        {
          "internalType": "uint256",
          "name": "",
          "type": "uint256"
        }
      ],
      "stateMutability": "view",
      "type": "function"
    },
    {
      "inputs": [
        {
          "internalType": "address",
          "name": "user",
          "type": "address"
        },
        {
          "internalType": "address",
          "name": "newOwner",
          "type": "address"
        },
        {
          "internalType": "string",
          "name": "reason",
          "type": "string"
        }
      ],
      "name": "emergencyRecovery",
      "outputs": [],
      "stateMutability": "nonpayable",
      "type": "function"
    },
    {
      "inputs": [
        {
          "internalType": "address",
          "name": "user",
          "type": "address"
        },
        {
          "internalType": "uint8",
          "name": "flowType",
          "type": "uint8"
        },
        {
          "internalType": "uint8",
          "name": "step",
          "type": "uint8"
        },
        {
          "internalType": "bool",
          "name": "success",
          "type": "bool"
        },
        {
          "internalType": "bytes",
          "name": "data",
          "type": "bytes"
        }
      ],
      "name": "emitUserFlowEvent",
      "outputs": [],
      "stateMutability": "nonpayable",
      "type": "function"
    },
    {
      "inputs": [
        {
          "internalType": "address",
          "name": "user",
          "type": "address"
        },
        {
          "internalType": "uint8",
          "name": "eventType",
          "type": "uint8"
        },
        {
          "internalType": "bytes",
          "name": "data",
          "type": "bytes"
        }
      ],
      "name": "emitVaultEvent",
      "outputs": [],
      "stateMutability": "nonpayable",
      "type": "function"
    },
    {
      "inputs": [
        {
          "internalType": "bytes32",
          "name": "recoveryId",
          "type": "bytes32"
        }
      ],
      "name": "getRecoveryRequest",
      "outputs": [
        {
          "internalType": "address",
          "name": "user",
          "type": "address"
        },
        {
          "internalType": "enum RecoveryManager.RecoveryStatus",
          "name": "status",
          "type": "uint8"
        },
        {
          "internalType": "uint256",
          "name": "currentApprovals",
          "type": "uint256"
        },
        {
          "internalType": "uint256",
          "name": "requiredApprovals",
          "type": "uint256"
        },
        {
          "internalType": "uint256",
          "name": "expiresAt",
          "type": "uint256"
        }
      ],
      "stateMutability": "view",
      "type": "function"
    },
    {
      "inputs": [
        {
          "internalType": "address",
          "name": "user",
          "type": "address"
        }
      ],
      "name": "getUserGuardians",
      "outputs": [
        {
          "components": [
            {
              "internalType": "address",
              "name": "guardianAddress",
              "type": "address"
            },
            {
              "internalType": "string",
              "name": "name",
              "type": "string"
            },
            {
              "internalType": "bytes32",
              "name": "contactHash",
              "type": "bytes32"
            },
            {
              "internalType": "bool",
              "name": "isActive",
              "type": "bool"
            },
            {
              "internalType": "uint256",
              "name": "addedAt",
              "type": "uint256"
            },
            {
              "internalType": "uint256",
              "name": "lastVerified",
              "type": "uint256"
            }
          ],
          "internalType": "struct RecoveryManager.Guardian[]",
          "name": "guardians",
          "type": "tuple[]"
        }
      ],
      "stateMutability": "view",
      "type": "function"
    },
    {
      "inputs": [
        {
          "internalType": "address",
          "name": "user",
          "type": "address"
        }
      ],
      "name": "getUserRecoveryRequests",
      "outputs": [
        {
          "internalType": "bytes32[]",
          "name": "recoveryIds",
          "type": "bytes32[]"
        }
      ],
      "stateMutability": "view",
      "type": "function"
    },
    {
      "inputs": [
        {
          "internalType": "uint256",
          "name": "threshold",
          "type": "uint256"
        },
        {
          "internalType": "bytes",
          "name": "encryptedRecoveryData",
          "type": "bytes"
        }
      ],
      "name": "initiateRecovery",
      "outputs": [
        {
          "internalType": "bytes32",
          "name": "recoveryId",
          "type": "bytes32"
        }
      ],
      "stateMutability": "nonpayable",
      "type": "function"
    },
    {
      "inputs": [],
      "name": "isPaused",
      "outputs": [
        {
          "internalType": "bool",
          "name": "",
          "type": "bool"
        }
      ],
      "stateMutability": "view",
      "type": "function"
    },
    {
      "inputs": [],
      "name": "maxGuardians",
      "outputs": [
        {
          "internalType": "uint256",
          "name": "",
          "type": "uint256"
        }
      ],
      "stateMutability": "view",
      "type": "function"
    },
    {
      "inputs": [],
      "name": "minGuardians",
      "outputs": [
        {
          "internalType": "uint256",
          "name": "",
          "type": "uint256"
        }
      ],
      "stateMutability": "view",
      "type": "function"
    },
    {
      "inputs": [],
      "name": "minThreshold",
      "outputs": [
        {
          "internalType": "uint256",
          "name": "",
          "type": "uint256"
        }
      ],
      "stateMutability": "view",
      "type": "function"
    },
    {
      "inputs": [],
      "name": "owner",
      "outputs": [
        {
          "internalType": "address",
          "name": "",
          "type": "address"
        }
      ],
      "stateMutability": "view",
      "type": "function"
    },
    {
      "inputs": [],
      "name": "pause",
      "outputs": [],
      "stateMutability": "nonpayable",
      "type": "function"
    },
    {
      "inputs": [
        {
          "internalType": "bytes32[]",
          "name": "shareIds",
          "type": "bytes32[]"
        },
        {
          "internalType": "bytes[]",
          "name": "shareProofs",
          "type": "bytes[]"
        }
      ],
      "name": "reconstructFromShares",
      "outputs": [
        {
          "internalType": "bool",
          "name": "success",
          "type": "bool"
        },
        {
          "internalType": "bytes",
          "name": "reconstructedData",
          "type": "bytes"
        }
      ],
      "stateMutability": "view",
      "type": "function"
    },
    {
      "inputs": [
        {
          "internalType": "address",
          "name": "guardianAddress",
          "type": "address"
        }
      ],
      "name": "removeGuardian",
      "outputs": [],
      "stateMutability": "nonpayable",
      "type": "function"
    },
    {
      "inputs": [
        {
          "internalType": "uint256",
          "name": "minGuard",
          "type": "uint256"
        },
        {
          "internalType": "uint256",
          "name": "maxGuard",
          "type": "uint256"
        }
      ],
      "name": "setGuardianLimits",
      "outputs": [],
      "stateMutability": "nonpayable",
      "type": "function"
    },
    {
      "inputs": [
        {
          "internalType": "uint256",
          "name": "period",
          "type": "uint256"
        }
      ],
      "name": "setRecoveryPeriod",
      "outputs": [],
      "stateMutability": "nonpayable",
      "type": "function"
    },
    {
      "inputs": [],
      "name": "unpause",
      "outputs": [],
      "stateMutability": "nonpayable",
      "type": "function"
    }
  ],
  "bytecode": "0x608060405262093a806006556002600755600a6008556002600955348015602557600080fd5b5033600560006101000a81548173ffffffffffffffffffffffffffffffffffffffff021916908373ffffffffffffffffffffffffffffffffffffffff1602179055506000600560146101000a81548160ff021916908315150217905550614c84806100916000396000f3fe608060405234801561001057600080fd5b506004361061014d5760003560e01c80638456cb59116100c3578063b0d6acf51161007c578063b0d6acf514610352578063b187bd261461036e578063c85501bb1461038c578063cd4376cc146103aa578063f924ba50146103db578063fad83a6e1461040b5761014d565b80638456cb59146102b6578063879b621d146102c05780638be04352146102dc5780638da5cb5b146102fa578063a6883f9214610318578063aeeb9405146103345761014d565b8063484cc1d511610115578063484cc1d5146101e25780635b3da030146101fe5780635ea3ec761461021a578063631fec7f1461024e578063714041561461026a578063731664f1146102865761014d565b80631afda1d5146101525780632bd52c201461016e5780632d6f5ca71461018a5780633f4ba83a146101a85780633fce9dfd146101b2575b600080fd5b61016c60048036038101906101679190612d41565b61043b565b005b61018860048036038101906101839190612e7c565b61099a565b005b6101926109f8565b60405161019f9190612f2f565b60405180910390f35b6101b06109fe565b005b6101cc60048036038101906101c79190612f4a565b610aab565b6040516101d9919061318e565b60405180910390f35b6101fc60048036038101906101f791906131b0565b610d30565b005b610218600480360381019061021391906131dd565b6111d6565b005b610234600480360381019061022f91906131b0565b61144f565b6040516102459594939291906132d7565b60405180910390f35b610268600480360381019061026391906131b0565b6116ca565b005b610284600480360381019061027f9190612f4a565b6118e2565b005b6102a0600480360381019061029b9190612f4a565b611b7a565b6040516102ad91906133d9565b60405180910390f35b6102be611cd7565b005b6102da60048036038101906102d59190613427565b611d84565b005b6102e4611e26565b6040516102f19190612f2f565b60405180910390f35b610302611e2c565b60405161030f9190613467565b60405180910390f35b610332600480360381019061032d9190613482565b611e52565b005b61033c611eaa565b6040516103499190612f2f565b60405180910390f35b61036c600480360381019061036791906134f6565b611eb0565b005b610376611f4a565b6040516103839190613532565b60405180910390f35b610394611f5d565b6040516103a19190612f2f565b60405180910390f35b6103c460048036038101906103bf91906135f9565b611f63565b6040516103d29291906136cf565b60405180910390f35b6103f560048036038101906103f091906136ff565b612244565b60405161040291906133d9565b60405180910390f35b6104256004803603810190610420919061375f565b61267d565b60405161043291906137ce565b60405180910390f35b600560149054906101000a900460ff161561048b576040517f08c379a000000000000000000000000000000000000000000000000000000000815260040161048290613846565b60405180910390fd5b600073ffffffffffffffffffffffffffffffffffffffff168473ffffffffffffffffffffffffffffffffffffffff16036104fa576040517f08c379a00000000000000000000000000000000000000000000000000000000081526004016104f1906138b2565b60405180910390fd5b3373ffffffffffffffffffffffffffffffffffffffff168473ffffffffffffffffffffffffffffffffffffffff1603610568576040517f08c379a000000000000000000000000000000000000000000000000000000000815260040161055f9061391e565b60405180910390fd5b600083839050116105ae576040517f08c379a00000000000000000000000000000000000000000000000000000000081526004016105a59061398a565b60405180910390fd5b600854600260003373ffffffffffffffffffffffffffffffffffffffff1673ffffffffffffffffffffffffffffffffffffffff1681526020019081526020016000208054905010610634576040517f08c379a000000000000000000000000000000000000000000000000000000000815260040161062b906139f6565b60405180910390fd5b6000600260003373ffffffffffffffffffffffffffffffffffffffff1673ffffffffffffffffffffffffffffffffffffffff168152602001908152602001600020905060005b8180549050811015610745578573ffffffffffffffffffffffffffffffffffffffff168282815481106106b0576106af613a16565b5b906000526020600020906006020160000160009054906101000a900473ffffffffffffffffffffffffffffffffffffffff1673ffffffffffffffffffffffffffffffffffffffff1603610738576040517f08c379a000000000000000000000000000000000000000000000000000000000815260040161072f90613a91565b60405180910390fd5b808060010191505061067a565b50806040518060c001604052808773ffffffffffffffffffffffffffffffffffffffff16815260200186868080601f016020809104026020016040519081016040528093929190818152602001838380828437600081840152601f19601f82011690508083019250505050505050815260200184815260200160011515815260200142815260200142815250908060018154018082558091505060019003906000526020600020906006020160009091909190915060008201518160000160006101000a81548173ffffffffffffffffffffffffffffffffffffffff021916908373ffffffffffffffffffffffffffffffffffffffff16021790555060208201518160010190816108569190613cec565b506040820151816002015560608201518160030160006101000a81548160ff0219169083151502179055506080820151816004015560a0820151816005015550506001600460003373ffffffffffffffffffffffffffffffffffffffff1673ffffffffffffffffffffffffffffffffffffffff16815260200190815260200160002060008773ffffffffffffffffffffffffffffffffffffffff1673ffffffffffffffffffffffffffffffffffffffff16815260200190815260200160002060006101000a81548160ff0219169083151502179055508473ffffffffffffffffffffffffffffffffffffffff163373ffffffffffffffffffffffffffffffffffffffff167f40278370259ce7e85805e65bbb9aac2f0493221da56f79a32ded59b933985545868660405161098b929190613dfa565b60405180910390a35050505050565b8573ffffffffffffffffffffffffffffffffffffffff167fb0d9397422ee1b6f417b7f3f131979847eca1707c81590563aaf0a0b07471a1786868686866040516109e8959493929190613e5a565b60405180910390a2505050505050565b60075481565b600560009054906101000a900473ffffffffffffffffffffffffffffffffffffffff1673ffffffffffffffffffffffffffffffffffffffff163373ffffffffffffffffffffffffffffffffffffffff1614610a8e576040517f08c379a0000000000000000000000000000000000000000000000000000000008152600401610a8590613ef4565b60405180910390fd5b6000600560146101000a81548160ff021916908315150217905550565b60603373ffffffffffffffffffffffffffffffffffffffff168273ffffffffffffffffffffffffffffffffffffffff161480610b345750600560009054906101000a900473ffffffffffffffffffffffffffffffffffffffff1673ffffffffffffffffffffffffffffffffffffffff163373ffffffffffffffffffffffffffffffffffffffff16145b610b73576040517f08c379a0000000000000000000000000000000000000000000000000000000008152600401610b6a90613ef4565b60405180910390fd5b600260008373ffffffffffffffffffffffffffffffffffffffff1673ffffffffffffffffffffffffffffffffffffffff168152602001908152602001600020805480602002602001604051908101604052809291908181526020016000905b82821015610d2557838290600052602060002090600602016040518060c00160405290816000820160009054906101000a900473ffffffffffffffffffffffffffffffffffffffff1673ffffffffffffffffffffffffffffffffffffffff1673ffffffffffffffffffffffffffffffffffffffff168152602001600182018054610c5b90613b0f565b80601f0160208091040260200160405190810160405280929190818152602001828054610c8790613b0f565b8015610cd45780601f10610ca957610100808354040283529160200191610cd4565b820191906000526020600020905b815481529060010190602001808311610cb757829003601f168201915b50505050508152602001600282015481526020016003820160009054906101000a900460ff161515151581526020016004820154815260200160058201548152505081526020019060010190610bd2565b505050509050919050565b80600080828152602001908152602001600020600b0160009054906101000a900460ff16610d93576040517f08c379a0000000000000000000000000000000000000000000000000000000008152600401610d8a90613f60565b60405180910390fd5b600560149054906101000a900460ff1615610de3576040517f08c379a0000000000000000000000000000000000000000000000000000000008152600401610dda90613846565b60405180910390fd5b600080600084815260200190815260200160002090508060090154421115610e40576040517f08c379a0000000000000000000000000000000000000000000000000000000008152600401610e3790613fcc565b60405180910390fd5b60006005811115610e5457610e53613260565b5b8160010160159054906101000a900460ff166005811115610e7857610e77613260565b5b14610eb8576040517f08c379a0000000000000000000000000000000000000000000000000000000008152600401610eaf90614038565b60405180910390fd5b6000805b8260050180549050811015610f54573373ffffffffffffffffffffffffffffffffffffffff16836005018281548110610ef857610ef7613a16565b5b9060005260206000200160009054906101000a900473ffffffffffffffffffffffffffffffffffffffff1673ffffffffffffffffffffffffffffffffffffffff1603610f475760019150610f54565b8080600101915050610ebc565b5080610f95576040517f08c379a0000000000000000000000000000000000000000000000000000000008152600401610f8c906140a4565b60405180910390fd5b8160060160003373ffffffffffffffffffffffffffffffffffffffff1673ffffffffffffffffffffffffffffffffffffffff16815260200190815260200160002060009054906101000a900460ff1615611024576040517f08c379a000000000000000000000000000000000000000000000000000000000815260040161101b90614110565b60405180910390fd5b60018260060160003373ffffffffffffffffffffffffffffffffffffffff1673ffffffffffffffffffffffffffffffffffffffff16815260200190815260200160002060006101000a81548160ff0219169083151502179055508160040160008154809291906110939061415f565b91905055503373ffffffffffffffffffffffffffffffffffffffff16848360010160009054906101000a900473ffffffffffffffffffffffffffffffffffffffff1673ffffffffffffffffffffffffffffffffffffffff167f1c896b1e5733b96088b92e070b3572e541250491d84e3d7dcd43b4540ccc304860405160405180910390a481600301548260040154106111d05760028260010160156101000a81548160ff0219169083600581111561114e5761114d613260565b5b02179055504282600a0181905550838260010160009054906101000a900473ffffffffffffffffffffffffffffffffffffffff1673ffffffffffffffffffffffffffffffffffffffff167fe2ccdccbdaa7b3b6f02ce101976316e75a28750d32f7b4b2c4a1fd18639ec3ba426040516111c79190612f2f565b60405180910390a35b50505050565b600560009054906101000a900473ffffffffffffffffffffffffffffffffffffffff1673ffffffffffffffffffffffffffffffffffffffff163373ffffffffffffffffffffffffffffffffffffffff1614611266576040517f08c379a000000000000000000000000000000000000000000000000000000000815260040161125d90613ef4565b60405180910390fd5b600560149054906101000a900460ff16156112b6576040517f08c379a00000000000000000000000000000000000000000000000000000000081526004016112ad90613846565b60405180910390fd5b600073ffffffffffffffffffffffffffffffffffffffff168373ffffffffffffffffffffffffffffffffffffffff1603611325576040517f08c379a000000000000000000000000000000000000000000000000000000000815260040161131c906141f3565b60405180910390fd5b600084844260405160200161133c939291906142d3565b604051602081830303815290604052805190602001209050808573ffffffffffffffffffffffffffffffffffffffff167fae18bb2515dd5b82567138a4ce199d1b8198a4c0f54c5706ca34205d763f3061600060405161139c9190614356565b60405180910390a3808573ffffffffffffffffffffffffffffffffffffffff167fe2ccdccbdaa7b3b6f02ce101976316e75a28750d32f7b4b2c4a1fd18639ec3ba426040516113eb9190612f2f565b60405180910390a38473ffffffffffffffffffffffffffffffffffffffff167fbef255c9f25efe09810981f7ab252968d2ad9885b9dc0ce9b6b750a59a430678600385854260405161144094939291906143ac565b60405180910390a25050505050565b600080600080600085600080828152602001908152602001600020600b0160009054906101000a900460ff166114ba576040517f08c379a00000000000000000000000000000000000000000000000000000000081526004016114b190613f60565b60405180910390fd5b600080600089815260200190815260200160002090503373ffffffffffffffffffffffffffffffffffffffff168160010160009054906101000a900473ffffffffffffffffffffffffffffffffffffffff1673ffffffffffffffffffffffffffffffffffffffff1614806115d85750600460008260010160009054906101000a900473ffffffffffffffffffffffffffffffffffffffff1673ffffffffffffffffffffffffffffffffffffffff1673ffffffffffffffffffffffffffffffffffffffff16815260200190815260200160002060003373ffffffffffffffffffffffffffffffffffffffff1673ffffffffffffffffffffffffffffffffffffffff16815260200190815260200160002060009054906101000a900460ff165b806116305750600560009054906101000a900473ffffffffffffffffffffffffffffffffffffffff1673ffffffffffffffffffffffffffffffffffffffff163373ffffffffffffffffffffffffffffffffffffffff16145b61166f576040517f08c379a000000000000000000000000000000000000000000000000000000000815260040161166690613ef4565b60405180910390fd5b8060010160009054906101000a900473ffffffffffffffffffffffffffffffffffffffff168160010160159054906101000a900460ff1682600401548360030154846009015496509650965096509650505091939590929450565b80600080828152602001908152602001600020600b0160009054906101000a900460ff1661172d576040517f08c379a000000000000000000000000000000000000000000000000000000000815260040161172490613f60565b60405180910390fd5b813373ffffffffffffffffffffffffffffffffffffffff1660008083815260200190815260200160002060010160009054906101000a900473ffffffffffffffffffffffffffffffffffffffff1673ffffffffffffffffffffffffffffffffffffffff16146117d1576040517f08c379a00000000000000000000000000000000000000000000000000000000081526004016117c890614438565b60405180910390fd5b600560149054906101000a900460ff1615611821576040517f08c379a000000000000000000000000000000000000000000000000000000000815260040161181890613846565b60405180910390fd5b600080600085815260200190815260200160002090506000600581111561184b5761184a613260565b5b8160010160159054906101000a900460ff16600581111561186f5761186e613260565b5b146118af576040517f08c379a00000000000000000000000000000000000000000000000000000000081526004016118a690614038565b60405180910390fd5b60048160010160156101000a81548160ff021916908360058111156118d7576118d6613260565b5b021790555050505050565b600560149054906101000a900460ff1615611932576040517f08c379a000000000000000000000000000000000000000000000000000000000815260040161192990613846565b60405180910390fd5b6000600260003373ffffffffffffffffffffffffffffffffffffffff1673ffffffffffffffffffffffffffffffffffffffff168152602001908152602001600020905060005b8180549050811015611b3b578273ffffffffffffffffffffffffffffffffffffffff168282815481106119ae576119ad613a16565b5b906000526020600020906006020160000160009054906101000a900473ffffffffffffffffffffffffffffffffffffffff1673ffffffffffffffffffffffffffffffffffffffff1603611b2e576000828281548110611a1057611a0f613a16565b5b906000526020600020906006020160030160006101000a81548160ff0219169083151502179055506000600460003373ffffffffffffffffffffffffffffffffffffffff1673ffffffffffffffffffffffffffffffffffffffff16815260200190815260200160002060008573ffffffffffffffffffffffffffffffffffffffff1673ffffffffffffffffffffffffffffffffffffffff16815260200190815260200160002060006101000a81548160ff0219169083151502179055508273ffffffffffffffffffffffffffffffffffffffff163373ffffffffffffffffffffffffffffffffffffffff167fee943cdb81826d5909c559c6b1ae6908fcaf2dbc16c4b730346736b486283e8b60405160405180910390a35050611b77565b8080600101915050611978565b506040517f08c379a0000000000000000000000000000000000000000000000000000000008152600401611b6e906144a4565b60405180910390fd5b50565b60603373ffffffffffffffffffffffffffffffffffffffff168273ffffffffffffffffffffffffffffffffffffffff161480611c035750600560009054906101000a900473ffffffffffffffffffffffffffffffffffffffff1673ffffffffffffffffffffffffffffffffffffffff163373ffffffffffffffffffffffffffffffffffffffff16145b611c42576040517f08c379a0000000000000000000000000000000000000000000000000000000008152600401611c3990613ef4565b60405180910390fd5b600160008373ffffffffffffffffffffffffffffffffffffffff1673ffffffffffffffffffffffffffffffffffffffff168152602001908152602001600020805480602002602001604051908101604052809291908181526020018280548015611ccb57602002820191906000526020600020905b815481526020019060010190808311611cb7575b50505050509050919050565b600560009054906101000a900473ffffffffffffffffffffffffffffffffffffffff1673ffffffffffffffffffffffffffffffffffffffff163373ffffffffffffffffffffffffffffffffffffffff1614611d67576040517f08c379a0000000000000000000000000000000000000000000000000000000008152600401611d5e90613ef4565b60405180910390fd5b6001600560146101000a81548160ff021916908315150217905550565b600560009054906101000a900473ffffffffffffffffffffffffffffffffffffffff1673ffffffffffffffffffffffffffffffffffffffff163373ffffffffffffffffffffffffffffffffffffffff1614611e14576040517f08c379a0000000000000000000000000000000000000000000000000000000008152600401611e0b90613ef4565b60405180910390fd5b81600781905550806008819055505050565b60085481565b600560009054906101000a900473ffffffffffffffffffffffffffffffffffffffff1681565b8373ffffffffffffffffffffffffffffffffffffffff167f41bd02e6a181ed3b5c47c66b0d50da614b18b3346bd2520c43a2ace581007dab848484604051611e9c939291906144c4565b60405180910390a250505050565b60065481565b600560009054906101000a900473ffffffffffffffffffffffffffffffffffffffff1673ffffffffffffffffffffffffffffffffffffffff163373ffffffffffffffffffffffffffffffffffffffff1614611f40576040517f08c379a0000000000000000000000000000000000000000000000000000000008152600401611f3790613ef4565b60405180910390fd5b8060068190555050565b600560149054906101000a900460ff1681565b60095481565b60006060600560149054906101000a900460ff1615611fb7576040517f08c379a0000000000000000000000000000000000000000000000000000000008152600401611fae90613846565b60405180910390fd5b838390508686905014611fff576040517f08c379a0000000000000000000000000000000000000000000000000000000008152600401611ff690614542565b60405180910390fd5b60008686905011612045576040517f08c379a000000000000000000000000000000000000000000000000000000000815260040161203c906145ae565b60405180910390fd5b6000600360003373ffffffffffffffffffffffffffffffffffffffff1673ffffffffffffffffffffffffffffffffffffffff168152602001908152602001600020905060008060005b898990508110156121eb5760005b84805490508110156121dd578a8a838181106120bb576120ba613a16565b5b905060200201358582815481106120d5576120d4613a16565b5b906000526020600020906007020160000154148015612122575084818154811061210257612101613a16565b5b906000526020600020906007020160060160009054906101000a900460ff165b156121d05784818154811061213a57612139613a16565b5b90600052602060002090600702016003015489898481811061215f5761215e613a16565b5b905060200281019061217191906145dd565b60405161217f929190614670565b6040518091039020036121cb5783806121979061415f565b945050600083036121ca578481815481106121b5576121b4613a16565b5b90600052602060002090600702016004015492505b5b6121dd565b808060010191505061209c565b50808060010191505061208e565b50808210612221574260405160200161220491906146d5565b60405160208183030381529060405293506001945050505061223b565b600060405180602001604052806000815250945094505050505b94509492505050565b6060600560149054906101000a900460ff1615612296576040517f08c379a000000000000000000000000000000000000000000000000000000000815260040161228d90613846565b60405180910390fd5b6000841180156122a95750828290508411155b6122e8576040517f08c379a00000000000000000000000000000000000000000000000000000000081526004016122df90614747565b60405180910390fd5b600854838390501115612330576040517f08c379a0000000000000000000000000000000000000000000000000000000008152600401612327906147b3565b60405180910390fd5b8282905067ffffffffffffffff81111561234d5761234c613ab1565b5b60405190808252806020026020018201604052801561237b5781602001602082028036833780820191505090505b50905060005b838390508110156126755760003382426123d160106040518060400160405280600e81526020017f73686172652d6372656174696f6e000000000000000000000000000000000000815250612b4f565b6040516020016123e49493929190614804565b604051602081830303815290604052805190602001209050600360003373ffffffffffffffffffffffffffffffffffffffff1673ffffffffffffffffffffffffffffffffffffffff1681526020019081526020016000206040518060e001604052808381526020013373ffffffffffffffffffffffffffffffffffffffff16815260200187878681811061247b5761247a613a16565b5b905060200281019061248d91906145dd565b8080601f016020809104026020016040519081016040528093929190818152602001838380828437600081840152601f19601f8201169050808301925050505050505081526020018787868181106124e8576124e7613a16565b5b90506020028101906124fa91906145dd565b604051612508929190614670565b604051809103902081526020018881526020014281526020016001151581525090806001815401808255809150506001900390600052602060002090600702016000909190919091506000820151816000015560208201518160010160006101000a81548173ffffffffffffffffffffffffffffffffffffffff021916908373ffffffffffffffffffffffffffffffffffffffff16021790555060408201518160020190816125b791906148a9565b50606082015181600301556080820151816004015560a0820151816005015560c08201518160060160006101000a81548160ff02191690831515021790555050508083838151811061260c5761260b613a16565b5b602002602001018181525050803373ffffffffffffffffffffffffffffffffffffffff167f052694847795dd8e2d364e4dee3ab382dcafb80b00c33f8969cf537c600b9fde8860405161265f9190612f2f565b60405180910390a3508080600101915050612381565b509392505050565b6000600560149054906101000a900460ff16156126cf576040517f08c379a00000000000000000000000000000000000000000000000000000000081526004016126c690613846565b60405180910390fd5b600954841015612714576040517f08c379a000000000000000000000000000000000000000000000000000000000815260040161270b906149c7565b60405180910390fd5b6000600260003373ffffffffffffffffffffffffffffffffffffffff1673ffffffffffffffffffffffffffffffffffffffff16815260200190815260200160002090506000805b82805490508110156127ba5782818154811061277a57612779613a16565b5b906000526020600020906006020160030160009054906101000a900460ff16156127ad5781806127a99061415f565b9250505b808060010191505061275b565b50858110156127fe576040517f08c379a00000000000000000000000000000000000000000000000000000000081526004016127f590614a33565b60405180910390fd5b334261284060206040518060400160405280600d81526020017f7265636f766572792d696e697400000000000000000000000000000000000000815250612b4f565b60405160200161285293929190614a53565b60405160208183030381529060405280519060200120925060008060008581526020019081526020016000209050838160000181905550338160010160006101000a81548173ffffffffffffffffffffffffffffffffffffffff021916908373ffffffffffffffffffffffffffffffffffffffff16021790555060008160010160146101000a81548160ff021916908360038111156128f4576128f3613260565b5b021790555060008160010160156101000a81548160ff0219169083600581111561292157612920613260565b5b0217905550868160020181905550868160030181905550600081600401819055508585826007019182612955929190614a97565b504281600801819055506006544261296d9190614b67565b8160090181905550600181600b0160006101000a81548160ff02191690831515021790555060005b8380549050811015612a8f578381815481106129b4576129b3613a16565b5b906000526020600020906006020160030160009054906101000a900460ff1615612a8257816005018482815481106129ef576129ee613a16565b5b906000526020600020906006020160000160009054906101000a900473ffffffffffffffffffffffffffffffffffffffff169080600181540180825580915050600190039060005260206000200160009091909190916101000a81548173ffffffffffffffffffffffffffffffffffffffff021916908373ffffffffffffffffffffffffffffffffffffffff1602179055505b8080600101915050612995565b50600160003373ffffffffffffffffffffffffffffffffffffffff1673ffffffffffffffffffffffffffffffffffffffff168152602001908152602001600020849080600181540180825580915050600190039060005260206000200160009091909190915055833373ffffffffffffffffffffffffffffffffffffffff167fae18bb2515dd5b82567138a4ce199d1b8198a4c0f54c5706ca34205d763f306189604051612b3d9190612f2f565b60405180910390a35050509392505050565b606060008073010000000000000000000000000000000000000173ffffffffffffffffffffffffffffffffffffffff168585604051602001612b92929190614b9b565b604051602081830303815290604052604051612bae9190614bcb565b600060405180830381855afa9150503d8060008114612be9576040519150601f19603f3d011682016040523d82523d6000602084013e612bee565b606091505b509150915081612c33576040517f08c379a0000000000000000000000000000000000000000000000000000000008152600401612c2a90614c2e565b60405180910390fd5b809250505092915050565b600080fd5b600080fd5b600073ffffffffffffffffffffffffffffffffffffffff82169050919050565b6000612c7382612c48565b9050919050565b612c8381612c68565b8114612c8e57600080fd5b50565b600081359050612ca081612c7a565b92915050565b600080fd5b600080fd5b600080fd5b60008083601f840112612ccb57612cca612ca6565b5b8235905067ffffffffffffffff811115612ce857612ce7612cab565b5b602083019150836001820283011115612d0457612d03612cb0565b5b9250929050565b6000819050919050565b612d1e81612d0b565b8114612d2957600080fd5b50565b600081359050612d3b81612d15565b92915050565b60008060008060608587031215612d5b57612d5a612c3e565b5b6000612d6987828801612c91565b945050602085013567ffffffffffffffff811115612d8a57612d89612c43565b5b612d9687828801612cb5565b93509350506040612da987828801612d2c565b91505092959194509250565b600060ff82169050919050565b612dcb81612db5565b8114612dd657600080fd5b50565b600081359050612de881612dc2565b92915050565b60008115159050919050565b612e0381612dee565b8114612e0e57600080fd5b50565b600081359050612e2081612dfa565b92915050565b60008083601f840112612e3c57612e3b612ca6565b5b8235905067ffffffffffffffff811115612e5957612e58612cab565b5b602083019150836001820283011115612e7557612e74612cb0565b5b9250929050565b60008060008060008060a08789031215612e9957612e98612c3e565b5b6000612ea789828a01612c91565b9650506020612eb889828a01612dd9565b9550506040612ec989828a01612dd9565b9450506060612eda89828a01612e11565b935050608087013567ffffffffffffffff811115612efb57612efa612c43565b5b612f0789828a01612e26565b92509250509295509295509295565b6000819050919050565b612f2981612f16565b82525050565b6000602082019050612f446000830184612f20565b92915050565b600060208284031215612f6057612f5f612c3e565b5b6000612f6e84828501612c91565b91505092915050565b600081519050919050565b600082825260208201905092915050565b6000819050602082019050919050565b612fac81612c68565b82525050565b600081519050919050565b600082825260208201905092915050565b60005b83811015612fec578082015181840152602081019050612fd1565b60008484015250505050565b6000601f19601f8301169050919050565b600061301482612fb2565b61301e8185612fbd565b935061302e818560208601612fce565b61303781612ff8565b840191505092915050565b61304b81612d0b565b82525050565b61305a81612dee565b82525050565b61306981612f16565b82525050565b600060c0830160008301516130876000860182612fa3565b506020830151848203602086015261309f8282613009565b91505060408301516130b46040860182613042565b5060608301516130c76060860182613051565b5060808301516130da6080860182613060565b5060a08301516130ed60a0860182613060565b508091505092915050565b6000613104838361306f565b905092915050565b6000602082019050919050565b600061312482612f77565b61312e8185612f82565b93508360208202850161314085612f93565b8060005b8581101561317c578484038952815161315d85826130f8565b94506131688361310c565b925060208a01995050600181019050613144565b50829750879550505050505092915050565b600060208201905081810360008301526131a88184613119565b905092915050565b6000602082840312156131c6576131c5612c3e565b5b60006131d484828501612d2c565b91505092915050565b600080600080606085870312156131f7576131f6612c3e565b5b600061320587828801612c91565b945050602061321687828801612c91565b935050604085013567ffffffffffffffff81111561323757613236612c43565b5b61324387828801612cb5565b925092505092959194509250565b61325a81612c68565b82525050565b7f4e487b7100000000000000000000000000000000000000000000000000000000600052602160045260246000fd5b600681106132a05761329f613260565b5b50565b60008190506132b18261328f565b919050565b60006132c1826132a3565b9050919050565b6132d1816132b6565b82525050565b600060a0820190506132ec6000830188613251565b6132f960208301876132c8565b6133066040830186612f20565b6133136060830185612f20565b6133206080830184612f20565b9695505050505050565b600081519050919050565b600082825260208201905092915050565b6000819050602082019050919050565b60006133628383613042565b60208301905092915050565b6000602082019050919050565b60006133868261332a565b6133908185613335565b935061339b83613346565b8060005b838110156133cc5781516133b38882613356565b97506133be8361336e565b92505060018101905061339f565b5085935050505092915050565b600060208201905081810360008301526133f3818461337b565b905092915050565b61340481612f16565b811461340f57600080fd5b50565b600081359050613421816133fb565b92915050565b6000806040838503121561343e5761343d612c3e565b5b600061344c85828601613412565b925050602061345d85828601613412565b9150509250929050565b600060208201905061347c6000830184613251565b92915050565b6000806000806060858703121561349c5761349b612c3e565b5b60006134aa87828801612c91565b94505060206134bb87828801612dd9565b935050604085013567ffffffffffffffff8111156134dc576134db612c43565b5b6134e887828801612e26565b925092505092959194509250565b60006020828403121561350c5761350b612c3e565b5b600061351a84828501613412565b91505092915050565b61352c81612dee565b82525050565b60006020820190506135476000830184613523565b92915050565b60008083601f84011261356357613562612ca6565b5b8235905067ffffffffffffffff8111156135805761357f612cab565b5b60208301915083602082028301111561359c5761359b612cb0565b5b9250929050565b60008083601f8401126135b9576135b8612ca6565b5b8235905067ffffffffffffffff8111156135d6576135d5612cab565b5b6020830191508360208202830111156135f2576135f1612cb0565b5b9250929050565b6000806000806040858703121561361357613612612c3e565b5b600085013567ffffffffffffffff81111561363157613630612c43565b5b61363d8782880161354d565b9450945050602085013567ffffffffffffffff8111156136605761365f612c43565b5b61366c878288016135a3565b925092505092959194509250565b600081519050919050565b600082825260208201905092915050565b60006136a18261367a565b6136ab8185613685565b93506136bb818560208601612fce565b6136c481612ff8565b840191505092915050565b60006040820190506136e46000830185613523565b81810360208301526136f68184613696565b90509392505050565b60008060006040848603121561371857613717612c3e565b5b600061372686828701613412565b935050602084013567ffffffffffffffff81111561374757613746612c43565b5b613753868287016135a3565b92509250509250925092565b60008060006040848603121561377857613777612c3e565b5b600061378686828701613412565b935050602084013567ffffffffffffffff8111156137a7576137a6612c43565b5b6137b386828701612e26565b92509250509250925092565b6137c881612d0b565b82525050565b60006020820190506137e360008301846137bf565b92915050565b600082825260208201905092915050565b7f436f6e7472616374206973207061757365640000000000000000000000000000600082015250565b60006138306012836137e9565b915061383b826137fa565b602082019050919050565b6000602082019050818103600083015261385f81613823565b9050919050565b7f496e76616c696420677561726469616e20616464726573730000000000000000600082015250565b600061389c6018836137e9565b91506138a782613866565b602082019050919050565b600060208201905081810360008301526138cb8161388f565b9050919050565b7f43616e6e6f74206164642073656c6620617320677561726469616e0000000000600082015250565b6000613908601b836137e9565b9150613913826138d2565b602082019050919050565b60006020820190508181036000830152613937816138fb565b9050919050565b7f477561726469616e206e616d6520726571756972656400000000000000000000600082015250565b60006139746016836137e9565b915061397f8261393e565b602082019050919050565b600060208201905081810360008301526139a381613967565b9050919050565b7f546f6f206d616e7920677561726469616e730000000000000000000000000000600082015250565b60006139e06012836137e9565b91506139eb826139aa565b602082019050919050565b60006020820190508181036000830152613a0f816139d3565b9050919050565b7f4e487b7100000000000000000000000000000000000000000000000000000000600052603260045260246000fd5b7f477561726469616e20616c726561647920657869737473000000000000000000600082015250565b6000613a7b6017836137e9565b9150613a8682613a45565b602082019050919050565b60006020820190508181036000830152613aaa81613a6e565b9050919050565b7f4e487b7100000000000000000000000000000000000000000000000000000000600052604160045260246000fd5b7f4e487b7100000000000000000000000000000000000000000000000000000000600052602260045260246000fd5b60006002820490506001821680613b2757607f821691505b602082108103613b3a57613b39613ae0565b5b50919050565b60008190508160005260206000209050919050565b60006020601f8301049050919050565b600082821b905092915050565b600060088302613ba27fffffffffffffffffffffffffffffffffffffffffffffffffffffffffffffffff82613b65565b613bac8683613b65565b95508019841693508086168417925050509392505050565b6000819050919050565b6000613be9613be4613bdf84612f16565b613bc4565b612f16565b9050919050565b6000819050919050565b613c0383613bce565b613c17613c0f82613bf0565b848454613b72565b825550505050565b600090565b613c2c613c1f565b613c37818484613bfa565b505050565b5b81811015613c5b57613c50600082613c24565b600181019050613c3d565b5050565b601f821115613ca057613c7181613b40565b613c7a84613b55565b81016020851015613c89578190505b613c9d613c9585613b55565b830182613c3c565b50505b505050565b600082821c905092915050565b6000613cc360001984600802613ca5565b1980831691505092915050565b6000613cdc8383613cb2565b9150826002028217905092915050565b613cf582612fb2565b67ffffffffffffffff811115613d0e57613d0d613ab1565b5b613d188254613b0f565b613d23828285613c5f565b600060209050601f831160018114613d565760008415613d44578287015190505b613d4e8582613cd0565b865550613db6565b601f198416613d6486613b40565b60005b82811015613d8c57848901518255600182019150602085019450602081019050613d67565b86831015613da95784890151613da5601f891682613cb2565b8355505b6001600288020188555050505b505050505050565b82818337600083830152505050565b6000613dd983856137e9565b9350613de6838584613dbe565b613def83612ff8565b840190509392505050565b60006020820190508181036000830152613e15818486613dcd565b90509392505050565b613e2781612db5565b82525050565b6000613e398385613685565b9350613e46838584613dbe565b613e4f83612ff8565b840190509392505050565b6000608082019050613e6f6000830188613e1e565b613e7c6020830187613e1e565b613e896040830186613523565b8181036060830152613e9c818486613e2d565b90509695505050505050565b7f4e6f7420617574686f72697a6564000000000000000000000000000000000000600082015250565b6000613ede600e836137e9565b9150613ee982613ea8565b602082019050919050565b60006020820190508181036000830152613f0d81613ed1565b9050919050565b7f5265636f76657279207265717565737420646f6573206e6f7420657869737400600082015250565b6000613f4a601f836137e9565b9150613f5582613f14565b602082019050919050565b60006020820190508181036000830152613f7981613f3d565b9050919050565b7f5265636f76657279207265717565737420657870697265640000000000000000600082015250565b6000613fb66018836137e9565b9150613fc182613f80565b602082019050919050565b60006020820190508181036000830152613fe581613fa9565b9050919050565b7f5265636f76657279206e6f742070656e64696e67000000000000000000000000600082015250565b60006140226014836137e9565b915061402d82613fec565b602082019050919050565b6000602082019050818103600083015261405181614015565b9050919050565b7f4e6f7420616e20617574686f72697a656420677561726469616e000000000000600082015250565b600061408e601a836137e9565b915061409982614058565b602082019050919050565b600060208201905081810360008301526140bd81614081565b9050919050565b7f416c726561647920617070726f76656400000000000000000000000000000000600082015250565b60006140fa6010836137e9565b9150614105826140c4565b602082019050919050565b60006020820190508181036000830152614129816140ed565b9050919050565b7f4e487b7100000000000000000000000000000000000000000000000000000000600052601160045260246000fd5b600061416a82612f16565b91507fffffffffffffffffffffffffffffffffffffffffffffffffffffffffffffffff820361419c5761419b614130565b5b600182019050919050565b7f496e76616c6964206e6577206f776e6572000000000000000000000000000000600082015250565b60006141dd6011836137e9565b91506141e8826141a7565b602082019050919050565b6000602082019050818103600083015261420c816141d0565b9050919050565b60008160601b9050919050565b600061422b82614213565b9050919050565b600061423d82614220565b9050919050565b61425561425082612c68565b614232565b82525050565b6000819050919050565b61427661427182612f16565b61425b565b82525050565b600081905092915050565b7f656d657267656e63790000000000000000000000000000000000000000000000600082015250565b60006142bd60098361427c565b91506142c882614287565b600982019050919050565b60006142df8286614244565b6014820191506142ef8285614244565b6014820191506142ff8284614265565b60208201915061430e826142b0565b9150819050949350505050565b6000819050919050565b600061434061433b6143368461431b565b613bc4565b612f16565b9050919050565b61435081614325565b82525050565b600060208201905061436b6000830184614347565b92915050565b6000819050919050565b600061439661439161438c84614371565b613bc4565b612db5565b9050919050565b6143a68161437b565b82525050565b60006060820190506143c1600083018761439d565b81810360208301526143d4818587613dcd565b90506143e36040830184612f20565b95945050505050565b7f4e6f742072657175657374206f776e6572000000000000000000000000000000600082015250565b60006144226011836137e9565b915061442d826143ec565b602082019050919050565b6000602082019050818103600083015261445181614415565b9050919050565b7f477561726469616e206e6f7420666f756e640000000000000000000000000000600082015250565b600061448e6012836137e9565b915061449982614458565b602082019050919050565b600060208201905081810360008301526144bd81614481565b9050919050565b60006040820190506144d96000830186613e1e565b81810360208301526144ec818486613e2d565b9050949350505050565b7f4172726179206c656e677468206d69736d617463680000000000000000000000600082015250565b600061452c6015836137e9565b9150614537826144f6565b602082019050919050565b6000602082019050818103600083015261455b8161451f565b9050919050565b7f4e6f207368617265732070726f76696465640000000000000000000000000000600082015250565b60006145986012836137e9565b91506145a382614562565b602082019050919050565b600060208201905081810360008301526145c78161458b565b9050919050565b600080fd5b600080fd5b600080fd5b600080833560016020038436030381126145fa576145f96145ce565b5b80840192508235915067ffffffffffffffff82111561461c5761461b6145d3565b5b602083019250600182023603831315614638576146376145d8565b5b509250929050565b600081905092915050565b60006146578385614640565b9350614664838584613dbe565b82840190509392505050565b600061467d82848661464b565b91508190509392505050565b7f5245434f4e53545255435445445f5345435245545f0000000000000000000000600082015250565b60006146bf60158361427c565b91506146ca82614689565b601582019050919050565b60006146e0826146b2565b91506146ec8284614265565b60208201915081905092915050565b7f496e76616c6964207468726573686f6c64000000000000000000000000000000600082015250565b60006147316011836137e9565b915061473c826146fb565b602082019050919050565b6000602082019050818103600083015261476081614724565b9050919050565b7f546f6f206d616e79207368617265730000000000000000000000000000000000600082015250565b600061479d600f836137e9565b91506147a882614767565b602082019050919050565b600060208201905081810360008301526147cc81614790565b9050919050565b60006147de8261367a565b6147e88185614640565b93506147f8818560208601612fce565b80840191505092915050565b60006148108287614244565b6014820191506148208286614265565b6020820191506148308285614265565b60208201915061484082846147d3565b915081905095945050505050565b60008190508160005260206000209050919050565b601f8211156148a4576148758161484e565b61487e84613b55565b8101602085101561488d578190505b6148a161489985613b55565b830182613c3c565b50505b505050565b6148b28261367a565b67ffffffffffffffff8111156148cb576148ca613ab1565b5b6148d58254613b0f565b6148e0828285614863565b600060209050601f8311600181146149135760008415614901578287015190505b61490b8582613cd0565b865550614973565b601f1984166149218661484e565b60005b8281101561494957848901518255600182019150602085019450602081019050614924565b868310156149665784890151614962601f891682613cb2565b8355505b6001600288020188555050505b505050505050565b7f5468726573686f6c6420746f6f206c6f77000000000000000000000000000000600082015250565b60006149b16011836137e9565b91506149bc8261497b565b602082019050919050565b600060208201905081810360008301526149e0816149a4565b9050919050565b7f4e6f7420656e6f7567682061637469766520677561726469616e730000000000600082015250565b6000614a1d601b836137e9565b9150614a28826149e7565b602082019050919050565b60006020820190508181036000830152614a4c81614a10565b9050919050565b6000614a5f8286614244565b601482019150614a6f8285614265565b602082019150614a7f82846147d3565b9150819050949350505050565b600082905092915050565b614aa18383614a8c565b67ffffffffffffffff811115614aba57614ab9613ab1565b5b614ac48254613b0f565b614acf828285614863565b6000601f831160018114614afe5760008415614aec578287013590505b614af68582613cd0565b865550614b5e565b601f198416614b0c8661484e565b60005b82811015614b3457848901358255600182019150602085019450602081019050614b0f565b86831015614b515784890135614b4d601f891682613cb2565b8355505b6001600288020188555050505b50505050505050565b6000614b7282612f16565b9150614b7d83612f16565b9250828201905080821115614b9557614b94614130565b5b92915050565b6000604082019050614bb06000830185612f20565b8181036020830152614bc28184613696565b90509392505050565b6000614bd782846147d3565b915081905092915050565b7f72616e646f6d42797465733a206661696c656400000000000000000000000000600082015250565b6000614c186013836137e9565b9150614c2382614be2565b602082019050919050565b60006020820190508181036000830152614c4781614c0b565b905091905056fea2646970667358221220a8c72d5e26033dbefbb9ef1ab0bc78e590607d9035ac6c98d0fb58fae3b1472a64736f6c634300081c0033",
  "linkReferences": {},
  "deployedLinkReferences": {}
}