{
  "_format": "hh-sol-artifact-1",
  "contractName": "WalletVault",
  "sourceName": "contracts/WalletVault.sol",
  "abi": [
    {
      "inputs": [],
      "stateMutability": "nonpayable",
      "type": "constructor"
    },
    {
      "anonymous": false,
      "inputs": [
        {
          "indexed": true,
          "internalType": "address",
          "name": "user",
          "type": "address"
        },
        {
          "indexed": true,
          "internalType": "bytes32",
          "name": "resourceId",
          "type": "bytes32"
        },
        {
          "indexed": false,
          "internalType": "address",
          "name": "grantee",
          "type": "address"
        }
      ],
      "name": "AccessGranted",
      "type": "event"
    },
    {
      "anonymous": false,
      "inputs": [
        {
          "indexed": true,
          "internalType": "address",
          "name": "user",
          "type": "address"
        },
        {
          "indexed": true,
          "internalType": "bytes32",
          "name": "resourceId",
          "type": "bytes32"
        },
        {
          "indexed": false,
          "internalType": "address",
          "name": "revokee",
          "type": "address"
        }
      ],
      "name": "AccessRevoked",
      "type": "event"
    },
    {
      "anonymous": false,
      "inputs": [
        {
          "indexed": true,
          "internalType": "address",
          "name": "wallet",
          "type": "address"
        },
        {
          "indexed": true,
          "internalType": "uint8",
          "name": "chainType",
          "type": "uint8"
        },
        {
          "indexed": false,
          "internalType": "uint256",
          "name": "balance",
          "type": "uint256"
        }
      ],
      "name": "BalanceFetched",
      "type": "event"
    },
    {
      "anonymous": false,
      "inputs": [
        {
          "indexed": true,
          "internalType": "address",
          "name": "user",
          "type": "address"
        },
        {
          "indexed": true,
          "internalType": "bytes32",
          "name": "walletId",
          "type": "bytes32"
        },
        {
          "indexed": false,
          "internalType": "uint256",
          "name": "totalValue",
          "type": "uint256"
        }
      ],
      "name": "BalancesFetched",
      "type": "event"
    },
    {
      "anonymous": false,
      "inputs": [
        {
          "indexed": true,
          "internalType": "address",
          "name": "user",
          "type": "address"
        },
        {
          "indexed": true,
          "internalType": "bytes32",
          "name": "walletId",
          "type": "bytes32"
        },
        {
          "indexed": false,
          "internalType": "uint8",
          "name": "chainType",
          "type": "uint8"
        },
        {
          "indexed": false,
          "internalType": "uint256",
          "name": "newBalance",
          "type": "uint256"
        }
      ],
      "name": "ChainBalanceUpdated",
      "type": "event"
    },
    {
      "anonymous": false,
      "inputs": [
        {
          "indexed": true,
          "internalType": "uint8",
          "name": "chainType",
          "type": "uint8"
        },
        {
          "indexed": false,
          "internalType": "string",
          "name": "rpcUrl",
          "type": "string"
        }
      ],
      "name": "ChainConfigUpdated",
      "type": "event"
    },
    {
      "anonymous": false,
      "inputs": [
        {
          "indexed": true,
          "internalType": "address",
          "name": "user",
          "type": "address"
        },
        {
          "indexed": true,
          "internalType": "bytes32",
          "name": "operationId",
          "type": "bytes32"
        },
        {
          "indexed": false,
          "internalType": "bool",
          "name": "success",
          "type": "bool"
        }
      ],
      "name": "CrossChainOperationCompleted",
      "type": "event"
    },
    {
      "anonymous": false,
      "inputs": [
        {
          "indexed": true,
          "internalType": "address",
          "name": "user",
          "type": "address"
        },
        {
          "indexed": true,
          "internalType": "bytes32",
          "name": "operationId",
          "type": "bytes32"
        },
        {
          "indexed": false,
          "internalType": "uint8",
          "name": "sourceChain",
          "type": "uint8"
        },
        {
          "indexed": false,
          "internalType": "uint8",
          "name": "targetChain",
          "type": "uint8"
        }
      ],
      "name": "CrossChainOperationStarted",
      "type": "event"
    },
    {
      "anonymous": false,
      "inputs": [
        {
          "indexed": true,
          "internalType": "address",
          "name": "user",
          "type": "address"
        },
        {
          "indexed": true,
          "internalType": "bytes32",
          "name": "deviceId",
          "type": "bytes32"
        },
        {
          "indexed": false,
          "internalType": "address",
          "name": "deviceAddress",
          "type": "address"
        }
      ],
      "name": "DeviceAuthorized",
      "type": "event"
    },
    {
      "anonymous": false,
      "inputs": [
        {
          "indexed": true,
          "internalType": "address",
          "name": "user",
          "type": "address"
        },
        {
          "indexed": true,
          "internalType": "bytes32",
          "name": "deviceId",
          "type": "bytes32"
        },
        {
          "indexed": false,
          "internalType": "string",
          "name": "deviceName",
          "type": "string"
        }
      ],
      "name": "DeviceRegistered",
      "type": "event"
    },
    {
      "anonymous": false,
      "inputs": [
        {
          "indexed": true,
          "internalType": "address",
          "name": "user",
          "type": "address"
        },
        {
          "indexed": true,
          "internalType": "bytes32",
          "name": "deviceId",
          "type": "bytes32"
        },
        {
          "indexed": false,
          "internalType": "uint256",
          "name": "timestamp",
          "type": "uint256"
        }
      ],
      "name": "DeviceRevoked",
      "type": "event"
    },
    {
      "anonymous": false,
      "inputs": [
        {
          "indexed": true,
          "internalType": "address",
          "name": "admin",
          "type": "address"
        },
        {
          "indexed": false,
          "internalType": "string",
          "name": "reason",
          "type": "string"
        },
        {
          "indexed": false,
          "internalType": "uint256",
          "name": "timestamp",
          "type": "uint256"
        }
      ],
      "name": "EmergencyShutdown",
      "type": "event"
    },
    {
      "anonymous": false,
      "inputs": [
        {
          "indexed": true,
          "internalType": "address",
          "name": "user",
          "type": "address"
        },
        {
          "indexed": false,
          "internalType": "uint8",
          "name": "eventType",
          "type": "uint8"
        },
        {
          "indexed": false,
          "internalType": "bytes",
          "name": "data",
          "type": "bytes"
        }
      ],
      "name": "GenericVaultEvent",
      "type": "event"
    },
    {
      "anonymous": false,
      "inputs": [
        {
          "indexed": true,
          "internalType": "address",
          "name": "user",
          "type": "address"
        },
        {
          "indexed": false,
          "internalType": "uint8",
          "name": "alertType",
          "type": "uint8"
        },
        {
          "indexed": false,
          "internalType": "string",
          "name": "description",
          "type": "string"
        },
        {
          "indexed": false,
          "internalType": "uint256",
          "name": "timestamp",
          "type": "uint256"
        }
      ],
      "name": "SecurityAlert",
      "type": "event"
    },
    {
      "anonymous": false,
      "inputs": [
        {
          "indexed": false,
          "internalType": "uint256",
          "name": "timestamp",
          "type": "uint256"
        },
        {
          "indexed": false,
          "internalType": "bool",
          "name": "healthy",
          "type": "bool"
        },
        {
          "indexed": false,
          "internalType": "string",
          "name": "details",
          "type": "string"
        }
      ],
      "name": "SystemHealthCheck",
      "type": "event"
    },
    {
      "anonymous": false,
      "inputs": [
        {
          "indexed": true,
          "internalType": "address",
          "name": "admin",
          "type": "address"
        },
        {
          "indexed": false,
          "internalType": "uint256",
          "name": "timestamp",
          "type": "uint256"
        }
      ],
      "name": "SystemRecovery",
      "type": "event"
    },
    {
      "anonymous": false,
      "inputs": [
        {
          "indexed": true,
          "internalType": "address",
          "name": "user",
          "type": "address"
        },
        {
          "indexed": true,
          "internalType": "bytes32",
          "name": "walletId",
          "type": "bytes32"
        },
        {
          "indexed": false,
          "internalType": "bytes32",
          "name": "txHash",
          "type": "bytes32"
        },
        {
          "indexed": false,
          "internalType": "uint8",
          "name": "chainType",
          "type": "uint8"
        }
      ],
      "name": "TransactionSigned",
      "type": "event"
    },
    {
      "anonymous": false,
      "inputs": [
        {
          "indexed": true,
          "internalType": "address",
          "name": "user",
          "type": "address"
        },
        {
          "indexed": true,
          "internalType": "bytes32",
          "name": "walletId",
          "type": "bytes32"
        },
        {
          "indexed": false,
          "internalType": "bytes32",
          "name": "txHash",
          "type": "bytes32"
        }
      ],
      "name": "TransactionSigned",
      "type": "event"
    },
    {
      "anonymous": false,
      "inputs": [
        {
          "indexed": true,
          "internalType": "address",
          "name": "user",
          "type": "address"
        },
        {
          "indexed": false,
          "internalType": "address",
          "name": "unauthorized",
          "type": "address"
        },
        {
          "indexed": false,
          "internalType": "string",
          "name": "resource",
          "type": "string"
        }
      ],
      "name": "UnauthorizedAccess",
      "type": "event"
    },
    {
      "anonymous": false,
      "inputs": [
        {
          "indexed": true,
          "internalType": "address",
          "name": "user",
          "type": "address"
        },
        {
          "indexed": false,
          "internalType": "uint8",
          "name": "flowType",
          "type": "uint8"
        },
        {
          "indexed": false,
          "internalType": "uint8",
          "name": "step",
          "type": "uint8"
        },
        {
          "indexed": false,
          "internalType": "bool",
          "name": "success",
          "type": "bool"
        },
        {
          "indexed": false,
          "internalType": "bytes",
          "name": "data",
          "type": "bytes"
        }
      ],
      "name": "UserFlowEvent",
      "type": "event"
    },
    {
      "anonymous": false,
      "inputs": [
        {
          "indexed": true,
          "internalType": "address",
          "name": "user",
          "type": "address"
        },
        {
          "indexed": true,
          "internalType": "bytes32",
          "name": "walletId",
          "type": "bytes32"
        },
        {
          "indexed": false,
          "internalType": "string",
          "name": "name",
          "type": "string"
        },
        {
          "indexed": false,
          "internalType": "uint256",
          "name": "timestamp",
          "type": "uint256"
        }
      ],
      "name": "WalletImported",
      "type": "event"
    },
    {
      "inputs": [
        {
          "internalType": "address[]",
          "name": "walletAddresses",
          "type": "address[]"
        },
        {
          "internalType": "uint8[]",
          "name": "chainTypes",
          "type": "uint8[]"
        }
      ],
      "name": "batchGetBalances",
      "outputs": [
        {
          "internalType": "uint256[][]",
          "name": "balances",
          "type": "uint256[][]"
        }
      ],
      "stateMutability": "view",
      "type": "function"
    },
    {
      "inputs": [
        {
          "internalType": "bytes32",
          "name": "walletId",
          "type": "bytes32"
        },
        {
          "internalType": "uint8[]",
          "name": "chainTypes",
          "type": "uint8[]"
        }
      ],
      "name": "deriveKeysFromSeed",
      "outputs": [
        {
          "internalType": "address[]",
          "name": "addresses",
          "type": "address[]"
        }
      ],
      "stateMutability": "nonpayable",
      "type": "function"
    },
    {
      "inputs": [
        {
          "internalType": "address",
          "name": "user",
          "type": "address"
        },
        {
          "internalType": "uint8",
          "name": "flowType",
          "type": "uint8"
        },
        {
          "internalType": "uint8",
          "name": "step",
          "type": "uint8"
        },
        {
          "internalType": "bool",
          "name": "success",
          "type": "bool"
        },
        {
          "internalType": "bytes",
          "name": "data",
          "type": "bytes"
        }
      ],
      "name": "emitUserFlowEvent",
      "outputs": [],
      "stateMutability": "nonpayable",
      "type": "function"
    },
    {
      "inputs": [
        {
          "internalType": "address",
          "name": "user",
          "type": "address"
        },
        {
          "internalType": "uint8",
          "name": "eventType",
          "type": "uint8"
        },
        {
          "internalType": "bytes",
          "name": "data",
          "type": "bytes"
        }
      ],
      "name": "emitVaultEvent",
      "outputs": [],
      "stateMutability": "nonpayable",
      "type": "function"
    },
    {
      "inputs": [
        {
          "internalType": "uint8",
          "name": "chainType",
          "type": "uint8"
        },
        {
          "internalType": "string",
          "name": "method",
          "type": "string"
        },
        {
          "internalType": "bytes",
          "name": "params",
          "type": "bytes"
        }
      ],
      "name": "executeChainRPC",
      "outputs": [
        {
          "internalType": "bytes",
          "name": "result",
          "type": "bytes"
        }
      ],
      "stateMutability": "view",
      "type": "function"
    },
    {
      "inputs": [
        {
          "internalType": "bytes32",
          "name": "walletId",
          "type": "bytes32"
        }
      ],
      "name": "fetchWalletBalances",
      "outputs": [
        {
          "components": [
            {
              "internalType": "uint8",
              "name": "chainType",
              "type": "uint8"
            },
            {
              "internalType": "string",
              "name": "tokenSymbol",
              "type": "string"
            },
            {
              "internalType": "uint256",
              "name": "balance",
              "type": "uint256"
            },
            {
              "internalType": "uint256",
              "name": "usdValue",
              "type": "uint256"
            }
          ],
          "internalType": "struct IMultiChainRPC.ChainBalance[]",
          "name": "balances",
          "type": "tuple[]"
        }
      ],
      "stateMutability": "view",
      "type": "function"
    },
    {
      "inputs": [],
      "name": "getAllChains",
      "outputs": [
        {
          "components": [
            {
              "internalType": "uint8",
              "name": "chainType",
              "type": "uint8"
            },
            {
              "internalType": "string",
              "name": "name",
              "type": "string"
            },
            {
              "internalType": "string",
              "name": "rpcUrl",
              "type": "string"
            },
            {
              "internalType": "uint256",
              "name": "chainId",
              "type": "uint256"
            },
            {
              "internalType": "bool",
              "name": "isActive",
              "type": "bool"
            }
          ],
          "internalType": "struct IMultiChainRPC.ChainConfig[]",
          "name": "configs",
          "type": "tuple[]"
        }
      ],
      "stateMutability": "view",
      "type": "function"
    },
    {
      "inputs": [
        {
          "internalType": "uint8",
          "name": "chainType",
          "type": "uint8"
        }
      ],
      "name": "getChainConfig",
      "outputs": [
        {
          "components": [
            {
              "internalType": "uint8",
              "name": "chainType",
              "type": "uint8"
            },
            {
              "internalType": "string",
              "name": "name",
              "type": "string"
            },
            {
              "internalType": "string",
              "name": "rpcUrl",
              "type": "string"
            },
            {
              "internalType": "uint256",
              "name": "chainId",
              "type": "uint256"
            },
            {
              "internalType": "bool",
              "name": "isActive",
              "type": "bool"
            }
          ],
          "internalType": "struct IMultiChainRPC.ChainConfig",
          "name": "config",
          "type": "tuple"
        }
      ],
      "stateMutability": "view",
      "type": "function"
    },
    {
      "inputs": [
        {
          "internalType": "bytes32",
          "name": "walletId",
          "type": "bytes32"
        },
        {
          "internalType": "uint8",
          "name": "chainType",
          "type": "uint8"
        }
      ],
      "name": "getDerivedAddress",
      "outputs": [
        {
          "internalType": "address",
          "name": "derivedAddress",
          "type": "address"
        }
      ],
      "stateMutability": "view",
      "type": "function"
    },
    {
      "inputs": [
        {
          "internalType": "address",
          "name": "wallet",
          "type": "address"
        },
        {
          "internalType": "uint8[]",
          "name": "chains",
          "type": "uint8[]"
        }
      ],
      "name": "getMultiChainBalances",
      "outputs": [
        {
          "components": [
            {
              "internalType": "uint8",
              "name": "chainType",
              "type": "uint8"
            },
            {
              "internalType": "string",
              "name": "tokenSymbol",
              "type": "string"
            },
            {
              "internalType": "uint256",
              "name": "balance",
              "type": "uint256"
            },
            {
              "internalType": "uint256",
              "name": "usdValue",
              "type": "uint256"
            }
          ],
          "internalType": "struct IMultiChainRPC.ChainBalance[]",
          "name": "balances",
          "type": "tuple[]"
        }
      ],
      "stateMutability": "view",
      "type": "function"
    },
    {
      "inputs": [
        {
          "internalType": "address",
          "name": "wallet",
          "type": "address"
        },
        {
          "internalType": "uint8",
          "name": "chainType",
          "type": "uint8"
        }
      ],
      "name": "getNativeBalance",
      "outputs": [
        {
          "internalType": "uint256",
          "name": "balance",
          "type": "uint256"
        }
      ],
      "stateMutability": "view",
      "type": "function"
    },
    {
      "inputs": [
        {
          "internalType": "address",
          "name": "user",
          "type": "address"
        }
      ],
      "name": "getUserWallets",
      "outputs": [
        {
          "internalType": "bytes32[]",
          "name": "",
          "type": "bytes32[]"
        }
      ],
      "stateMutability": "view",
      "type": "function"
    },
    {
      "inputs": [
        {
          "internalType": "bytes32",
          "name": "walletId",
          "type": "bytes32"
        }
      ],
      "name": "getWalletInfo",
      "outputs": [
        {
          "internalType": "string",
          "name": "name",
          "type": "string"
        },
        {
          "internalType": "uint8[]",
          "name": "chainTypes",
          "type": "uint8[]"
        },
        {
          "internalType": "bool",
          "name": "isActive",
          "type": "bool"
        }
      ],
      "stateMutability": "view",
      "type": "function"
    },
    {
      "inputs": [
        {
          "internalType": "bytes",
          "name": "encryptedSeed",
          "type": "bytes"
        },
        {
          "internalType": "string",
          "name": "walletName",
          "type": "string"
        }
      ],
      "name": "importSeedPhrase",
      "outputs": [
        {
          "internalType": "bytes32",
          "name": "walletId",
          "type": "bytes32"
        }
      ],
      "stateMutability": "nonpayable",
      "type": "function"
    },
    {
      "inputs": [],
      "name": "isPaused",
      "outputs": [
        {
          "internalType": "bool",
          "name": "",
          "type": "bool"
        }
      ],
      "stateMutability": "view",
      "type": "function"
    },
    {
      "inputs": [],
      "name": "owner",
      "outputs": [
        {
          "internalType": "address",
          "name": "",
          "type": "address"
        }
      ],
      "stateMutability": "view",
      "type": "function"
    },
    {
      "inputs": [],
      "name": "pause",
      "outputs": [],
      "stateMutability": "nonpayable",
      "type": "function"
    },
    {
      "inputs": [
        {
          "internalType": "bytes32",
          "name": "walletId",
          "type": "bytes32"
        },
        {
          "internalType": "uint8",
          "name": "chainType",
          "type": "uint8"
        },
        {
          "internalType": "bytes32",
          "name": "txHash",
          "type": "bytes32"
        },
        {
          "internalType": "bytes",
          "name": "txData",
          "type": "bytes"
        }
      ],
      "name": "signTransaction",
      "outputs": [
        {
          "internalType": "bytes",
          "name": "signature",
          "type": "bytes"
        }
      ],
      "stateMutability": "nonpayable",
      "type": "function"
    },
    {
      "inputs": [],
      "name": "unpause",
      "outputs": [],
      "stateMutability": "nonpayable",
      "type": "function"
    },
    {
      "inputs": [
        {
          "internalType": "uint8",
          "name": "chainType",
          "type": "uint8"
        },
        {
          "internalType": "string",
          "name": "rpcUrl",
          "type": "string"
        }
      ],
      "name": "updateChainRPC",
      "outputs": [],
      "stateMutability": "nonpayable",
      "type": "function"
    },
    {
      "inputs": [
        {
          "internalType": "bytes32",
          "name": "walletId",
          "type": "bytes32"
        },
        {
          "internalType": "string",
          "name": "name",
          "type": "string"
        },
        {
          "internalType": "bool",
          "name": "isActive",
          "type": "bool"
        }
      ],
      "name": "updateWalletMetadata",
      "outputs": [],
      "stateMutability": "nonpayable",
      "type": "function"
    }
  ],
  "bytecode": "0x608060405234801561001057600080fd5b5033600460006101000a81548173ffffffffffffffffffffffffffffffffffffffff021916908373ffffffffffffffffffffffffffffffffffffffff1602179055506000600460146101000a81548160ff02191690831515021790555061007b61008060201b60201c565b6107fb565b6040518060a00160405280600160ff1681526020016040518060400160405280600881526020017f457468657265756d00000000000000000000000000000000000000000000000081525081526020016040518060400160405280601881526020017f68747470733a2f2f6574682e6c6c616d617270632e636f6d00000000000000008152508152602001600181526020016001151581525060026000600160ff1660ff16815260200190815260200160002060008201518160000160006101000a81548160ff021916908360ff16021790555060208201518160010190816101699190610729565b50604082015181600201908161017f9190610729565b506060820151816003015560808201518160040160006101000a81548160ff0219169083151502179055509050506003600190806001815401808255809150506001900390600052602060002090602091828204019190069091909190916101000a81548160ff021916908360ff1602179055506040518060a00160405280600260ff1681526020016040518060400160405280600781526020017f506f6c79676f6e0000000000000000000000000000000000000000000000000081525081526020016040518060400160405280601c81526020017f68747470733a2f2f706f6c79676f6e2e6c6c616d617270632e636f6d000000008152508152602001608981526020016001151581525060026000600260ff1660ff16815260200190815260200160002060008201518160000160006101000a81548160ff021916908360ff16021790555060208201518160010190816102dc9190610729565b5060408201518160020190816102f29190610729565b506060820151816003015560808201518160040160006101000a81548160ff0219169083151502179055509050506003600290806001815401808255809150506001900390600052602060002090602091828204019190069091909190916101000a81548160ff021916908360ff1602179055506040518060a00160405280600360ff1681526020016040518060400160405280600381526020017f425343000000000000000000000000000000000000000000000000000000000081525081526020016040518060400160405280601881526020017f68747470733a2f2f6273632e6c6c616d617270632e636f6d00000000000000008152508152602001603881526020016001151581525060026000600360ff1660ff16815260200190815260200160002060008201518160000160006101000a81548160ff021916908360ff160217905550602082015181600101908161044f9190610729565b5060408201518160020190816104659190610729565b506060820151816003015560808201518160040160006101000a81548160ff021916908315150217905550905050600380806001815401808255809150506001900390600052602060002090602091828204019190069091909190916101000a81548160ff021916908360ff160217905550565b600081519050919050565b7f4e487b7100000000000000000000000000000000000000000000000000000000600052604160045260246000fd5b7f4e487b7100000000000000000000000000000000000000000000000000000000600052602260045260246000fd5b6000600282049050600182168061055a57607f821691505b60208210810361056d5761056c610513565b5b50919050565b60008190508160005260206000209050919050565b60006020601f8301049050919050565b600082821b905092915050565b6000600883026105d57fffffffffffffffffffffffffffffffffffffffffffffffffffffffffffffffff82610598565b6105df8683610598565b95508019841693508086168417925050509392505050565b6000819050919050565b6000819050919050565b600061062661062161061c846105f7565b610601565b6105f7565b9050919050565b6000819050919050565b6106408361060b565b61065461064c8261062d565b8484546105a5565b825550505050565b600090565b61066961065c565b610674818484610637565b505050565b5b818110156106985761068d600082610661565b60018101905061067a565b5050565b601f8211156106dd576106ae81610573565b6106b784610588565b810160208510156106c6578190505b6106da6106d285610588565b830182610679565b50505b505050565b600082821c905092915050565b6000610700600019846008026106e2565b1980831691505092915050565b600061071983836106ef565b9150826002028217905092915050565b610732826104d9565b67ffffffffffffffff81111561074b5761074a6104e4565b5b6107558254610542565b61076082828561069c565b600060209050601f8311600181146107935760008415610781578287015190505b61078b858261070d565b8655506107f3565b601f1984166107a186610573565b60005b828110156107c9578489015182556001820191506020850194506020810190506107a4565b868310156107e657848901516107e2601f8916826106ef565b8355505b6001600288020188555050505b505050505050565b614be58061080a6000396000f3fe608060405234801561001057600080fd5b50600436106101375760003560e01c80638da5cb5b116100b8578063b027e3101161007c578063b027e31014610362578063b187bd2614610392578063ca5dfc47146103b0578063d42c45a4146103e0578063e0890f8c146103fc578063eb13257b1461042c57610137565b80638da5cb5b146102aa57806397518e1a146102c85780639a109af7146102f85780639ca220dd14610328578063a6883f921461034657610137565b8063658907e1116100ff578063658907e1146101e05780636cbae157146102105780636e241ab1146102405780638425fd94146102705780638456cb59146102a057610137565b80632bd52c201461013c5780633bb50d7c146101585780633f4ba83a1461018a57806344a362301461019457806353519af2146101b0575b600080fd5b61015660048036038101906101519190612bd5565b61045c565b005b610172600480360381019061016d9190612ca5565b6104ba565b60405161018193929190612e2f565b60405180910390f35b6101926107ae565b005b6101ae60048036038101906101a99190612eca565b61085b565b005b6101ca60048036038101906101c59190612f3e565b610aae565b6040516101d79190612f8d565b60405180910390f35b6101fa60048036038101906101f59190612fa8565b610cb2565b6040516102079190613085565b60405180910390f35b61022a600480360381019061022591906130a7565b611027565b6040516102379190613192565b60405180910390f35b61025a6004803603810190610255919061320a565b6110be565b60405161026791906133f2565b60405180910390f35b61028a60048036038101906102859190613414565b611295565b60405161029791906134a4565b60405180910390f35b6102a8611590565b005b6102b261163d565b6040516102bf9190612f8d565b60405180910390f35b6102e260048036038101906102dd9190612ca5565b611663565b6040516102ef91906133f2565b60405180910390f35b610312600480360381019061030d91906134bf565b611a41565b60405161031f9190613085565b60405180910390f35b610330611add565b60405161033d91906136a2565b60405180910390f35b610360600480360381019061035b91906136c4565b611d36565b005b61037c60048036038101906103779190613738565b611d8e565b6040516103899190613856565b60405180910390f35b61039a61224c565b6040516103a79190613878565b60405180910390f35b6103ca60048036038101906103c59190613893565b61225f565b6040516103d791906138e2565b60405180910390f35b6103fa60048036038101906103f591906138fd565b612320565b005b610416600480360381019061041191906139b3565b61241e565b6040516104239190613ba5565b60405180910390f35b61044660048036038101906104419190613bc7565b612620565b6040516104539190613c71565b60405180910390f35b8573ffffffffffffffffffffffffffffffffffffffff167fb0d9397422ee1b6f417b7f3f131979847eca1707c81590563aaf0a0b07471a1786868686866040516104aa959493929190613cde565b60405180910390a2505050505050565b606080600083600073ffffffffffffffffffffffffffffffffffffffff1660008083815260200190815260200160002060000160009054906101000a900473ffffffffffffffffffffffffffffffffffffffff1673ffffffffffffffffffffffffffffffffffffffff1603610564576040517f08c379a000000000000000000000000000000000000000000000000000000000815260040161055b90613d78565b60405180910390fd5b60008082815260200190815260200160002060050160009054906101000a900460ff166105c6576040517f08c379a00000000000000000000000000000000000000000000000000000000081526004016105bd90613de4565b60405180910390fd5b843373ffffffffffffffffffffffffffffffffffffffff1660008083815260200190815260200160002060000160009054906101000a900473ffffffffffffffffffffffffffffffffffffffff1673ffffffffffffffffffffffffffffffffffffffff161461066a576040517f08c379a000000000000000000000000000000000000000000000000000000000815260040161066190613e50565b60405180910390fd5b6000806000888152602001908152602001600020905080600101816004018260050160009054906101000a900460ff168280546106a690613e9f565b80601f01602080910402602001604051908101604052809291908181526020018280546106d290613e9f565b801561071f5780601f106106f45761010080835404028352916020019161071f565b820191906000526020600020905b81548152906001019060200180831161070257829003601f168201915b505050505092508180548060200260200160405190810160405280929190818152602001828054801561079757602002820191906000526020600020906000905b82829054906101000a900460ff1660ff16815260200190600101906020826000010492830192600103820291508084116107605790505b505050505091509550955095505050509193909250565b600460009054906101000a900473ffffffffffffffffffffffffffffffffffffffff1673ffffffffffffffffffffffffffffffffffffffff163373ffffffffffffffffffffffffffffffffffffffff161461083e576040517f08c379a000000000000000000000000000000000000000000000000000000000815260040161083590613f1c565b60405180910390fd5b6000600460146101000a81548160ff021916908315150217905550565b83600073ffffffffffffffffffffffffffffffffffffffff1660008083815260200190815260200160002060000160009054906101000a900473ffffffffffffffffffffffffffffffffffffffff1673ffffffffffffffffffffffffffffffffffffffff1603610900576040517f08c379a00000000000000000000000000000000000000000000000000000000081526004016108f790613d78565b60405180910390fd5b60008082815260200190815260200160002060050160009054906101000a900460ff16610962576040517f08c379a000000000000000000000000000000000000000000000000000000000815260040161095990613de4565b60405180910390fd5b843373ffffffffffffffffffffffffffffffffffffffff1660008083815260200190815260200160002060000160009054906101000a900473ffffffffffffffffffffffffffffffffffffffff1673ffffffffffffffffffffffffffffffffffffffff1614610a06576040517f08c379a00000000000000000000000000000000000000000000000000000000081526004016109fd90613e50565b60405180910390fd5b600460149054906101000a900460ff1615610a56576040517f08c379a0000000000000000000000000000000000000000000000000000000008152600401610a4d90613f88565b60405180910390fd5b600080600088815260200190815260200160002090508585826001019182610a7f92919061418e565b50838160050160006101000a81548160ff02191690831515021790555042816007018190555050505050505050565b600082600073ffffffffffffffffffffffffffffffffffffffff1660008083815260200190815260200160002060000160009054906101000a900473ffffffffffffffffffffffffffffffffffffffff1673ffffffffffffffffffffffffffffffffffffffff1603610b55576040517f08c379a0000000000000000000000000000000000000000000000000000000008152600401610b4c90613d78565b60405180910390fd5b60008082815260200190815260200160002060050160009054906101000a900460ff16610bb7576040517f08c379a0000000000000000000000000000000000000000000000000000000008152600401610bae90613de4565b60405180910390fd5b833373ffffffffffffffffffffffffffffffffffffffff1660008083815260200190815260200160002060000160009054906101000a900473ffffffffffffffffffffffffffffffffffffffff1673ffffffffffffffffffffffffffffffffffffffff1614610c5b576040517f08c379a0000000000000000000000000000000000000000000000000000000008152600401610c5290613e50565b60405180910390fd5b60008086815260200190815260200160002060030160008560ff1660ff16815260200190815260200160002060009054906101000a900473ffffffffffffffffffffffffffffffffffffffff169250505092915050565b606085600073ffffffffffffffffffffffffffffffffffffffff1660008083815260200190815260200160002060000160009054906101000a900473ffffffffffffffffffffffffffffffffffffffff1673ffffffffffffffffffffffffffffffffffffffff1603610d59576040517f08c379a0000000000000000000000000000000000000000000000000000000008152600401610d5090613d78565b60405180910390fd5b60008082815260200190815260200160002060050160009054906101000a900460ff16610dbb576040517f08c379a0000000000000000000000000000000000000000000000000000000008152600401610db290613de4565b60405180910390fd5b863373ffffffffffffffffffffffffffffffffffffffff1660008083815260200190815260200160002060000160009054906101000a900473ffffffffffffffffffffffffffffffffffffffff1673ffffffffffffffffffffffffffffffffffffffff1614610e5f576040517f08c379a0000000000000000000000000000000000000000000000000000000008152600401610e5690613e50565b60405180910390fd5b600460149054906101000a900460ff1615610eaf576040517f08c379a0000000000000000000000000000000000000000000000000000000008152600401610ea690613f88565b60405180910390fd5b60008060008a81526020019081526020016000209050600073ffffffffffffffffffffffffffffffffffffffff168160030160008a60ff1660ff16815260200190815260200160002060009054906101000a900473ffffffffffffffffffffffffffffffffffffffff1673ffffffffffffffffffffffffffffffffffffffff1603610f6f576040517f08c379a0000000000000000000000000000000000000000000000000000000008152600401610f66906142aa565b60405180910390fd5b80600201878787604051602001610f8994939291906143b3565b60405160208183030381529060405280519060200120601b604051602001610fb2929190614420565b6040516020818303038152906040529350428160070181905550883373ffffffffffffffffffffffffffffffffffffffff167f224f539d17e8943f07abfc2da485cec1cc8a138bb5e1abe4993b0727137cbef38960405161101391906134a4565b60405180910390a350505095945050505050565b6060600160008373ffffffffffffffffffffffffffffffffffffffff1673ffffffffffffffffffffffffffffffffffffffff1681526020019081526020016000208054806020026020016040519081016040528092919081815260200182805480156110b257602002820191906000526020600020905b81548152602001906001019080831161109e575b50505050509050919050565b60608282905067ffffffffffffffff8111156110dd576110dc613fb3565b5b60405190808252806020026020018201604052801561111657816020015b611103612a38565b8152602001906001900390816110fb5790505b50905060005b8383905081101561128d57600084848381811061113c5761113b61444c565b5b90506020020160208101906111519190613bc7565b9050600260008260ff1660ff16815260200190815260200160002060040160009054906101000a900460ff166111bc576040517f08c379a00000000000000000000000000000000000000000000000000000000081526004016111b3906144c7565b60405180910390fd5b6000674563918244f400008783610e10426111d79190614545565b6040516020016111e9939291906145df565b6040516020818303038152906040528051906020012060001c61120c919061461c565b905060405180608001604052808360ff16815260200161122b846127b9565b8152602001828152602001670de0b6b3a7640000611248856128da565b84611253919061464d565b61125d9190614545565b8152508484815181106112735761127261444c565b5b60200260200101819052505050808060010191505061111c565b509392505050565b6000600460149054906101000a900460ff16156112e7576040517f08c379a00000000000000000000000000000000000000000000000000000000081526004016112de90613f88565b60405180910390fd5b600a600160003373ffffffffffffffffffffffffffffffffffffffff1673ffffffffffffffffffffffffffffffffffffffff168152602001908152602001600020805490501061136c576040517f08c379a0000000000000000000000000000000000000000000000000000000008152600401611363906146db565b60405180910390fd5b600083839050116113b2576040517f08c379a00000000000000000000000000000000000000000000000000000000081526004016113a990614747565b60405180910390fd5b33426113f460206040518060400160405280600f81526020017f77616c6c65742d6372656174696f6e0000000000000000000000000000000000815250612949565b60405160200161140693929190614798565b60405160208183030381529060405280519060200120905060008060008381526020019081526020016000209050338160000160006101000a81548173ffffffffffffffffffffffffffffffffffffffff021916908373ffffffffffffffffffffffffffffffffffffffff160217905550838382600101918261148a92919061418e565b50858582600201918261149e929190614822565b5060018160050160006101000a81548160ff021916908315150217905550428160060181905550428160070181905550600160003373ffffffffffffffffffffffffffffffffffffffff1673ffffffffffffffffffffffffffffffffffffffff168152602001908152602001600020829080600181540180825580915050600190039060005260206000200160009091909190915055813373ffffffffffffffffffffffffffffffffffffffff167fc59e9acdcf0030353df284bc7ac7386e5143ad76c9198a0cc7a4e661dd6a9ab486864260405161157f9392919061491f565b60405180910390a350949350505050565b600460009054906101000a900473ffffffffffffffffffffffffffffffffffffffff1673ffffffffffffffffffffffffffffffffffffffff163373ffffffffffffffffffffffffffffffffffffffff1614611620576040517f08c379a000000000000000000000000000000000000000000000000000000000815260040161161790613f1c565b60405180910390fd5b6001600460146101000a81548160ff021916908315150217905550565b600460009054906101000a900473ffffffffffffffffffffffffffffffffffffffff1681565b606081600073ffffffffffffffffffffffffffffffffffffffff1660008083815260200190815260200160002060000160009054906101000a900473ffffffffffffffffffffffffffffffffffffffff1673ffffffffffffffffffffffffffffffffffffffff160361170a576040517f08c379a000000000000000000000000000000000000000000000000000000000815260040161170190613d78565b60405180910390fd5b60008082815260200190815260200160002060050160009054906101000a900460ff1661176c576040517f08c379a000000000000000000000000000000000000000000000000000000000815260040161176390613de4565b60405180910390fd5b823373ffffffffffffffffffffffffffffffffffffffff1660008083815260200190815260200160002060000160009054906101000a900473ffffffffffffffffffffffffffffffffffffffff1673ffffffffffffffffffffffffffffffffffffffff1614611810576040517f08c379a000000000000000000000000000000000000000000000000000000000815260040161180790613e50565b60405180910390fd5b6000806000868152602001908152602001600020905060008160040180548060200260200160405190810160405280929190818152602001828054801561189c57602002820191906000526020600020906000905b82829054906101000a900460ff1660ff16815260200190600101906020826000010492830192600103820291508084116118655790505b50505050509050805167ffffffffffffffff8111156118be576118bd613fb3565b5b6040519080825280602002602001820160405280156118f757816020015b6118e4612a38565b8152602001906001900390816118dc5790505b50945060005b8151811015611a3757600082828151811061191b5761191a61444c565b5b6020026020010151905060008460030160008360ff1660ff16815260200190815260200160002060009054906101000a900473ffffffffffffffffffffffffffffffffffffffff1690506000678ac7230489e800008284610e10426119809190614545565b604051602001611992939291906145df565b6040516020818303038152906040528051906020012060001c6119b5919061461c565b905060405180608001604052808460ff1681526020016119d4856127b9565b8152602001828152602001670de0b6b3a76400006119f1866128da565b846119fc919061464d565b611a069190614545565b815250898581518110611a1c57611a1b61444c565b5b602002602001018190525050505080806001019150506118fd565b5050505050919050565b6060600260008760ff1660ff16815260200190815260200160002060040160009054906101000a900460ff16611aac576040517f08c379a0000000000000000000000000000000000000000000000000000000008152600401611aa3906144c7565b60405180910390fd5b84848484604051602001611ac3949392919061499d565b604051602081830303815290604052905095945050505050565b606060038054905067ffffffffffffffff811115611afe57611afd613fb3565b5b604051908082528060200260200182016040528015611b3757816020015b611b24612a63565b815260200190600190039081611b1c5790505b50905060005b600380549050811015611d32576002600060038381548110611b6257611b6161444c565b5b90600052602060002090602091828204019190069054906101000a900460ff1660ff1660ff1681526020019081526020016000206040518060a00160405290816000820160009054906101000a900460ff1660ff1660ff168152602001600182018054611bce90613e9f565b80601f0160208091040260200160405190810160405280929190818152602001828054611bfa90613e9f565b8015611c475780601f10611c1c57610100808354040283529160200191611c47565b820191906000526020600020905b815481529060010190602001808311611c2a57829003601f168201915b50505050508152602001600282018054611c6090613e9f565b80601f0160208091040260200160405190810160405280929190818152602001828054611c8c90613e9f565b8015611cd95780601f10611cae57610100808354040283529160200191611cd9565b820191906000526020600020905b815481529060010190602001808311611cbc57829003601f168201915b50505050508152602001600382015481526020016004820160009054906101000a900460ff161515151581525050828281518110611d1a57611d1961444c565b5b60200260200101819052508080600101915050611b3d565b5090565b8373ffffffffffffffffffffffffffffffffffffffff167f41bd02e6a181ed3b5c47c66b0d50da614b18b3346bd2520c43a2ace581007dab848484604051611d80939291906149eb565b60405180910390a250505050565b606083600073ffffffffffffffffffffffffffffffffffffffff1660008083815260200190815260200160002060000160009054906101000a900473ffffffffffffffffffffffffffffffffffffffff1673ffffffffffffffffffffffffffffffffffffffff1603611e35576040517f08c379a0000000000000000000000000000000000000000000000000000000008152600401611e2c90613d78565b60405180910390fd5b60008082815260200190815260200160002060050160009054906101000a900460ff16611e97576040517f08c379a0000000000000000000000000000000000000000000000000000000008152600401611e8e90613de4565b60405180910390fd5b843373ffffffffffffffffffffffffffffffffffffffff1660008083815260200190815260200160002060000160009054906101000a900473ffffffffffffffffffffffffffffffffffffffff1673ffffffffffffffffffffffffffffffffffffffff1614611f3b576040517f08c379a0000000000000000000000000000000000000000000000000000000008152600401611f3290613e50565b60405180910390fd5b600460149054906101000a900460ff1615611f8b576040517f08c379a0000000000000000000000000000000000000000000000000000000008152600401611f8290613f88565b60405180910390fd5b600080600088815260200190815260200160002090508585905067ffffffffffffffff811115611fbe57611fbd613fb3565b5b604051908082528060200260200182016040528015611fec5781602001602082028036833780820191505090505b50935060005b868690508110156122385760008787838181106120125761201161444c565b5b90506020020160208101906120279190613bc7565b9050600260008260ff1660ff16815260200190815260200160002060040160009054906101000a900460ff16612092576040517f08c379a0000000000000000000000000000000000000000000000000000000008152600401612089906144c7565b60405180910390fd5b60008360020182426040516020016120ac93929190614a1d565b6040516020818303038152906040528051906020012060001c9050808460030160008460ff1660ff16815260200190815260200160002060006101000a81548173ffffffffffffffffffffffffffffffffffffffff021916908373ffffffffffffffffffffffffffffffffffffffff160217905550808784815181106121355761213461444c565b5b602002602001019073ffffffffffffffffffffffffffffffffffffffff16908173ffffffffffffffffffffffffffffffffffffffff16815250506000805b85600401805490508110156121da578360ff1686600401828154811061219c5761219b61444c565b5b90600052602060002090602091828204019190069054906101000a900460ff1660ff16036121cd57600191506121da565b8080600101915050612173565b508061222857846004018390806001815401808255809150506001900390600052602060002090602091828204019190069091909190916101000a81548160ff021916908360ff1602179055505b5050508080600101915050611ff2565b504281600701819055505050509392505050565b600460149054906101000a900460ff1681565b6000600260008360ff1660ff16815260200190815260200160002060040160009054906101000a900460ff166122ca576040517f08c379a00000000000000000000000000000000000000000000000000000000081526004016122c1906144c7565b60405180910390fd5b674563918244f400008383610e10426122e39190614545565b6040516020016122f5939291906145df565b6040516020818303038152906040528051906020012060001c612318919061461c565b905092915050565b600460009054906101000a900473ffffffffffffffffffffffffffffffffffffffff1673ffffffffffffffffffffffffffffffffffffffff163373ffffffffffffffffffffffffffffffffffffffff16146123b0576040517f08c379a00000000000000000000000000000000000000000000000000000000081526004016123a790613f1c565b60405180910390fd5b8181600260008660ff1660ff16815260200190815260200160002060020191826123db92919061418e565b508260ff167f54a7d1f56c0f5b0dbe7e9d1e407e84f7d168d76851519e926b179f5a98dbd4b48383604051612411929190614a56565b60405180910390a2505050565b60608484905067ffffffffffffffff81111561243d5761243c613fb3565b5b60405190808252806020026020018201604052801561247057816020015b606081526020019060019003908161245b5790505b50905060005b85859050811015612617578383905067ffffffffffffffff81111561249e5761249d613fb3565b5b6040519080825280602002602001820160405280156124cc5781602001602082028036833780820191505090505b508282815181106124e0576124df61444c565b5b602002602001018190525060005b84849050811015612609573073ffffffffffffffffffffffffffffffffffffffff1663ca5dfc478888858181106125285761252761444c565b5b905060200201602081019061253d91906130a7565b8787858181106125505761254f61444c565b5b90506020020160208101906125659190613bc7565b6040518363ffffffff1660e01b8152600401612582929190614a7a565b602060405180830381865afa15801561259f573d6000803e3d6000fd5b505050506040513d601f19601f820116820180604052508101906125c39190614acf565b8383815181106125d6576125d561444c565b5b602002602001015182815181106125f0576125ef61444c565b5b60200260200101818152505080806001019150506124ee565b508080600101915050612476565b50949350505050565b612628612a63565b600260008360ff1660ff1681526020019081526020016000206040518060a00160405290816000820160009054906101000a900460ff1660ff1660ff16815260200160018201805461267990613e9f565b80601f01602080910402602001604051908101604052809291908181526020018280546126a590613e9f565b80156126f25780601f106126c7576101008083540402835291602001916126f2565b820191906000526020600020905b8154815290600101906020018083116126d557829003601f168201915b5050505050815260200160028201805461270b90613e9f565b80601f016020809104026020016040519081016040528092919081815260200182805461273790613e9f565b80156127845780601f1061275957610100808354040283529160200191612784565b820191906000526020600020905b81548152906001019060200180831161276757829003601f168201915b50505050508152602001600382015481526020016004820160009054906101000a900460ff1615151515815250509050919050565b6060600160ff168260ff1603612806576040518060400160405280600381526020017f455448000000000000000000000000000000000000000000000000000000000081525090506128d5565b600260ff168260ff1603612851576040518060400160405280600581526020017f4d4154494300000000000000000000000000000000000000000000000000000081525090506128d5565b600360ff168260ff160361289c576040518060400160405280600381526020017f424e42000000000000000000000000000000000000000000000000000000000081525090506128d5565b6040518060400160405280600781526020017f554e4b4e4f574e0000000000000000000000000000000000000000000000000081525090505b919050565b6000600160ff168260ff16036128fb5768a2a15d09519be000009050612944565b600260ff168260ff160361291957670de0b6b3a76400009050612944565b600360ff168260ff160361293857681043561a88293000009050612944565b670de0b6b3a764000090505b919050565b606060008073010000000000000000000000000000000000000173ffffffffffffffffffffffffffffffffffffffff16858560405160200161298c929190614afc565b6040516020818303038152906040526040516129a89190614b2c565b600060405180830381855afa9150503d80600081146129e3576040519150601f19603f3d011682016040523d82523d6000602084013e6129e8565b606091505b509150915081612a2d576040517f08c379a0000000000000000000000000000000000000000000000000000000008152600401612a2490614b8f565b60405180910390fd5b809250505092915050565b6040518060800160405280600060ff1681526020016060815260200160008152602001600081525090565b6040518060a00160405280600060ff1681526020016060815260200160608152602001600081526020016000151581525090565b600080fd5b600080fd5b600073ffffffffffffffffffffffffffffffffffffffff82169050919050565b6000612acc82612aa1565b9050919050565b612adc81612ac1565b8114612ae757600080fd5b50565b600081359050612af981612ad3565b92915050565b600060ff82169050919050565b612b1581612aff565b8114612b2057600080fd5b50565b600081359050612b3281612b0c565b92915050565b60008115159050919050565b612b4d81612b38565b8114612b5857600080fd5b50565b600081359050612b6a81612b44565b92915050565b600080fd5b600080fd5b600080fd5b60008083601f840112612b9557612b94612b70565b5b8235905067ffffffffffffffff811115612bb257612bb1612b75565b5b602083019150836001820283011115612bce57612bcd612b7a565b5b9250929050565b60008060008060008060a08789031215612bf257612bf1612a97565b5b6000612c0089828a01612aea565b9650506020612c1189828a01612b23565b9550506040612c2289828a01612b23565b9450506060612c3389828a01612b5b565b935050608087013567ffffffffffffffff811115612c5457612c53612a9c565b5b612c6089828a01612b7f565b92509250509295509295509295565b6000819050919050565b612c8281612c6f565b8114612c8d57600080fd5b50565b600081359050612c9f81612c79565b92915050565b600060208284031215612cbb57612cba612a97565b5b6000612cc984828501612c90565b91505092915050565b600081519050919050565b600082825260208201905092915050565b60005b83811015612d0c578082015181840152602081019050612cf1565b60008484015250505050565b6000601f19601f8301169050919050565b6000612d3482612cd2565b612d3e8185612cdd565b9350612d4e818560208601612cee565b612d5781612d18565b840191505092915050565b600081519050919050565b600082825260208201905092915050565b6000819050602082019050919050565b612d9781612aff565b82525050565b6000612da98383612d8e565b60208301905092915050565b6000602082019050919050565b6000612dcd82612d62565b612dd78185612d6d565b9350612de283612d7e565b8060005b83811015612e13578151612dfa8882612d9d565b9750612e0583612db5565b925050600181019050612de6565b5085935050505092915050565b612e2981612b38565b82525050565b60006060820190508181036000830152612e498186612d29565b90508181036020830152612e5d8185612dc2565b9050612e6c6040830184612e20565b949350505050565b60008083601f840112612e8a57612e89612b70565b5b8235905067ffffffffffffffff811115612ea757612ea6612b75565b5b602083019150836001820283011115612ec357612ec2612b7a565b5b9250929050565b60008060008060608587031215612ee457612ee3612a97565b5b6000612ef287828801612c90565b945050602085013567ffffffffffffffff811115612f1357612f12612a9c565b5b612f1f87828801612e74565b93509350506040612f3287828801612b5b565b91505092959194509250565b60008060408385031215612f5557612f54612a97565b5b6000612f6385828601612c90565b9250506020612f7485828601612b23565b9150509250929050565b612f8781612ac1565b82525050565b6000602082019050612fa26000830184612f7e565b92915050565b600080600080600060808688031215612fc457612fc3612a97565b5b6000612fd288828901612c90565b9550506020612fe388828901612b23565b9450506040612ff488828901612c90565b935050606086013567ffffffffffffffff81111561301557613014612a9c565b5b61302188828901612b7f565b92509250509295509295909350565b600081519050919050565b600082825260208201905092915050565b600061305782613030565b613061818561303b565b9350613071818560208601612cee565b61307a81612d18565b840191505092915050565b6000602082019050818103600083015261309f818461304c565b905092915050565b6000602082840312156130bd576130bc612a97565b5b60006130cb84828501612aea565b91505092915050565b600081519050919050565b600082825260208201905092915050565b6000819050602082019050919050565b61310981612c6f565b82525050565b600061311b8383613100565b60208301905092915050565b6000602082019050919050565b600061313f826130d4565b61314981856130df565b9350613154836130f0565b8060005b8381101561318557815161316c888261310f565b975061317783613127565b925050600181019050613158565b5085935050505092915050565b600060208201905081810360008301526131ac8184613134565b905092915050565b60008083601f8401126131ca576131c9612b70565b5b8235905067ffffffffffffffff8111156131e7576131e6612b75565b5b60208301915083602082028301111561320357613202612b7a565b5b9250929050565b60008060006040848603121561322357613222612a97565b5b600061323186828701612aea565b935050602084013567ffffffffffffffff81111561325257613251612a9c565b5b61325e868287016131b4565b92509250509250925092565b600081519050919050565b600082825260208201905092915050565b6000819050602082019050919050565b600082825260208201905092915050565b60006132b282612cd2565b6132bc8185613296565b93506132cc818560208601612cee565b6132d581612d18565b840191505092915050565b6000819050919050565b6132f3816132e0565b82525050565b60006080830160008301516133116000860182612d8e565b506020830151848203602086015261332982826132a7565b915050604083015161333e60408601826132ea565b50606083015161335160608601826132ea565b508091505092915050565b600061336883836132f9565b905092915050565b6000602082019050919050565b60006133888261326a565b6133928185613275565b9350836020820285016133a485613286565b8060005b858110156133e057848403895281516133c1858261335c565b94506133cc83613370565b925060208a019950506001810190506133a8565b50829750879550505050505092915050565b6000602082019050818103600083015261340c818461337d565b905092915050565b6000806000806040858703121561342e5761342d612a97565b5b600085013567ffffffffffffffff81111561344c5761344b612a9c565b5b61345887828801612b7f565b9450945050602085013567ffffffffffffffff81111561347b5761347a612a9c565b5b61348787828801612e74565b925092505092959194509250565b61349e81612c6f565b82525050565b60006020820190506134b96000830184613495565b92915050565b6000806000806000606086880312156134db576134da612a97565b5b60006134e988828901612b23565b955050602086013567ffffffffffffffff81111561350a57613509612a9c565b5b61351688828901612e74565b9450945050604086013567ffffffffffffffff81111561353957613538612a9c565b5b61354588828901612b7f565b92509250509295509295909350565b600081519050919050565b600082825260208201905092915050565b6000819050602082019050919050565b61358981612b38565b82525050565b600060a0830160008301516135a76000860182612d8e565b50602083015184820360208601526135bf82826132a7565b915050604083015184820360408601526135d982826132a7565b91505060608301516135ee60608601826132ea565b5060808301516136016080860182613580565b508091505092915050565b6000613618838361358f565b905092915050565b6000602082019050919050565b600061363882613554565b613642818561355f565b93508360208202850161365485613570565b8060005b858110156136905784840389528151613671858261360c565b945061367c83613620565b925060208a01995050600181019050613658565b50829750879550505050505092915050565b600060208201905081810360008301526136bc818461362d565b905092915050565b600080600080606085870312156136de576136dd612a97565b5b60006136ec87828801612aea565b94505060206136fd87828801612b23565b935050604085013567ffffffffffffffff81111561371e5761371d612a9c565b5b61372a87828801612b7f565b925092505092959194509250565b60008060006040848603121561375157613750612a97565b5b600061375f86828701612c90565b935050602084013567ffffffffffffffff8111156137805761377f612a9c565b5b61378c868287016131b4565b92509250509250925092565b600081519050919050565b600082825260208201905092915050565b6000819050602082019050919050565b6137cd81612ac1565b82525050565b60006137df83836137c4565b60208301905092915050565b6000602082019050919050565b600061380382613798565b61380d81856137a3565b9350613818836137b4565b8060005b8381101561384957815161383088826137d3565b975061383b836137eb565b92505060018101905061381c565b5085935050505092915050565b6000602082019050818103600083015261387081846137f8565b905092915050565b600060208201905061388d6000830184612e20565b92915050565b600080604083850312156138aa576138a9612a97565b5b60006138b885828601612aea565b92505060206138c985828601612b23565b9150509250929050565b6138dc816132e0565b82525050565b60006020820190506138f760008301846138d3565b92915050565b60008060006040848603121561391657613915612a97565b5b600061392486828701612b23565b935050602084013567ffffffffffffffff81111561394557613944612a9c565b5b61395186828701612e74565b92509250509250925092565b60008083601f84011261397357613972612b70565b5b8235905067ffffffffffffffff8111156139905761398f612b75565b5b6020830191508360208202830111156139ac576139ab612b7a565b5b9250929050565b600080600080604085870312156139cd576139cc612a97565b5b600085013567ffffffffffffffff8111156139eb576139ea612a9c565b5b6139f78782880161395d565b9450945050602085013567ffffffffffffffff811115613a1a57613a19612a9c565b5b613a26878288016131b4565b925092505092959194509250565b600081519050919050565b600082825260208201905092915050565b6000819050602082019050919050565b600081519050919050565b600082825260208201905092915050565b6000819050602082019050919050565b6000613a9883836132ea565b60208301905092915050565b6000602082019050919050565b6000613abc82613a60565b613ac68185613a6b565b9350613ad183613a7c565b8060005b83811015613b02578151613ae98882613a8c565b9750613af483613aa4565b925050600181019050613ad5565b5085935050505092915050565b6000613b1b8383613ab1565b905092915050565b6000602082019050919050565b6000613b3b82613a34565b613b458185613a3f565b935083602082028501613b5785613a50565b8060005b85811015613b935784840389528151613b748582613b0f565b9450613b7f83613b23565b925060208a01995050600181019050613b5b565b50829750879550505050505092915050565b60006020820190508181036000830152613bbf8184613b30565b905092915050565b600060208284031215613bdd57613bdc612a97565b5b6000613beb84828501612b23565b91505092915050565b600060a083016000830151613c0c6000860182612d8e565b5060208301518482036020860152613c2482826132a7565b91505060408301518482036040860152613c3e82826132a7565b9150506060830151613c5360608601826132ea565b506080830151613c666080860182613580565b508091505092915050565b60006020820190508181036000830152613c8b8184613bf4565b905092915050565b613c9c81612aff565b82525050565b82818337600083830152505050565b6000613cbd838561303b565b9350613cca838584613ca2565b613cd383612d18565b840190509392505050565b6000608082019050613cf36000830188613c93565b613d006020830187613c93565b613d0d6040830186612e20565b8181036060830152613d20818486613cb1565b90509695505050505050565b7f57616c6c657420646f6573206e6f742065786973740000000000000000000000600082015250565b6000613d62601583612cdd565b9150613d6d82613d2c565b602082019050919050565b60006020820190508181036000830152613d9181613d55565b9050919050565b7f57616c6c6574206973206e6f7420616374697665000000000000000000000000600082015250565b6000613dce601483612cdd565b9150613dd982613d98565b602082019050919050565b60006020820190508181036000830152613dfd81613dc1565b9050919050565b7f4e6f742077616c6c6574206f776e657200000000000000000000000000000000600082015250565b6000613e3a601083612cdd565b9150613e4582613e04565b602082019050919050565b60006020820190508181036000830152613e6981613e2d565b9050919050565b7f4e487b7100000000000000000000000000000000000000000000000000000000600052602260045260246000fd5b60006002820490506001821680613eb757607f821691505b602082108103613eca57613ec9613e70565b5b50919050565b7f4e6f7420617574686f72697a6564000000000000000000000000000000000000600082015250565b6000613f06600e83612cdd565b9150613f1182613ed0565b602082019050919050565b60006020820190508181036000830152613f3581613ef9565b9050919050565b7f436f6e7472616374206973207061757365640000000000000000000000000000600082015250565b6000613f72601283612cdd565b9150613f7d82613f3c565b602082019050919050565b60006020820190508181036000830152613fa181613f65565b9050919050565b600082905092915050565b7f4e487b7100000000000000000000000000000000000000000000000000000000600052604160045260246000fd5b60008190508160005260206000209050919050565b60006020601f8301049050919050565b600082821b905092915050565b6000600883026140447fffffffffffffffffffffffffffffffffffffffffffffffffffffffffffffffff82614007565b61404e8683614007565b95508019841693508086168417925050509392505050565b6000819050919050565b600061408b614086614081846132e0565b614066565b6132e0565b9050919050565b6000819050919050565b6140a583614070565b6140b96140b182614092565b848454614014565b825550505050565b600090565b6140ce6140c1565b6140d981848461409c565b505050565b5b818110156140fd576140f26000826140c6565b6001810190506140df565b5050565b601f8211156141425761411381613fe2565b61411c84613ff7565b8101602085101561412b578190505b61413f61413785613ff7565b8301826140de565b50505b505050565b600082821c905092915050565b600061416560001984600802614147565b1980831691505092915050565b600061417e8383614154565b9150826002028217905092915050565b6141988383613fa8565b67ffffffffffffffff8111156141b1576141b0613fb3565b5b6141bb8254613e9f565b6141c6828285614101565b6000601f8311600181146141f557600084156141e3578287013590505b6141ed8582614172565b865550614255565b601f19841661420386613fe2565b60005b8281101561422b57848901358255600182019150602085019450602081019050614206565b868310156142485784890135614244601f891682614154565b8355505b6001600288020188555050505b50505050505050565b7f41646472657373206e6f74206465726976656420666f7220636861696e000000600082015250565b6000614294601d83612cdd565b915061429f8261425e565b602082019050919050565b600060208201905081810360008301526142c381614287565b9050919050565b600081905092915050565b60008190508160005260206000209050919050565b600081546142f781613e9f565b61430181866142ca565b9450600182166000811461431c576001811461433157614364565b60ff1983168652811515820286019350614364565b61433a856142d5565b60005b8381101561435c5781548189015260018201915060208101905061433d565b838801955050505b50505092915050565b6000819050919050565b61438861438382612c6f565b61436d565b82525050565b600061439a83856142ca565b93506143a7838584613ca2565b82840190509392505050565b60006143bf82876142ea565b91506143cb8286614377565b6020820191506143dc82848661438e565b915081905095945050505050565b60008160f81b9050919050565b6000614402826143ea565b9050919050565b61441a61441582612aff565b6143f7565b82525050565b600061442c8285614377565b60208201915061443c8284614409565b6001820191508190509392505050565b7f4e487b7100000000000000000000000000000000000000000000000000000000600052603260045260246000fd5b7f436861696e206e6f7420737570706f7274656400000000000000000000000000600082015250565b60006144b1601383612cdd565b91506144bc8261447b565b602082019050919050565b600060208201905081810360008301526144e0816144a4565b9050919050565b7f4e487b7100000000000000000000000000000000000000000000000000000000600052601260045260246000fd5b7f4e487b7100000000000000000000000000000000000000000000000000000000600052601160045260246000fd5b6000614550826132e0565b915061455b836132e0565b92508261456b5761456a6144e7565b5b828204905092915050565b60008160601b9050919050565b600061458e82614576565b9050919050565b60006145a082614583565b9050919050565b6145b86145b382612ac1565b614595565b82525050565b6000819050919050565b6145d96145d4826132e0565b6145be565b82525050565b60006145eb82866145a7565b6014820191506145fb8285614409565b60018201915061460b82846145c8565b602082019150819050949350505050565b6000614627826132e0565b9150614632836132e0565b925082614642576146416144e7565b5b828206905092915050565b6000614658826132e0565b9150614663836132e0565b9250828202614671816132e0565b9150828204841483151761468857614687614516565b5b5092915050565b7f546f6f206d616e792077616c6c65747300000000000000000000000000000000600082015250565b60006146c5601083612cdd565b91506146d08261468f565b602082019050919050565b600060208201905081810360008301526146f4816146b8565b9050919050565b7f57616c6c6574206e616d65207265717569726564000000000000000000000000600082015250565b6000614731601483612cdd565b915061473c826146fb565b602082019050919050565b6000602082019050818103600083015261476081614724565b9050919050565b600061477282613030565b61477c81856142ca565b935061478c818560208601612cee565b80840191505092915050565b60006147a482866145a7565b6014820191506147b482856145c8565b6020820191506147c48284614767565b9150819050949350505050565b600082905092915050565b601f82111561481d576147ee816142d5565b6147f784613ff7565b81016020851015614806578190505b61481a61481285613ff7565b8301826140de565b50505b505050565b61482c83836147d1565b67ffffffffffffffff81111561484557614844613fb3565b5b61484f8254613e9f565b61485a8282856147dc565b6000601f8311600181146148895760008415614877578287013590505b6148818582614172565b8655506148e9565b601f198416614897866142d5565b60005b828110156148bf5784890135825560018201915060208501945060208101905061489a565b868310156148dc57848901356148d8601f891682614154565b8355505b6001600288020188555050505b50505050505050565b60006148fe8385612cdd565b935061490b838584613ca2565b61491483612d18565b840190509392505050565b6000604082019050818103600083015261493a8185876148f2565b905061494960208301846138d3565b949350505050565b7f6d6f636b5f7270635f726573756c740000000000000000000000000000000000600082015250565b6000614987600f83612cdd565b915061499282614951565b602082019050919050565b600060608201905081810360008301526149b68161497a565b905081810360208301526149cb8186886148f2565b905081810360408301526149e0818486613cb1565b905095945050505050565b6000604082019050614a006000830186613c93565b8181036020830152614a13818486613cb1565b9050949350505050565b6000614a2982866142ea565b9150614a358285614409565b600182019150614a4582846145c8565b602082019150819050949350505050565b60006020820190508181036000830152614a718184866148f2565b90509392505050565b6000604082019050614a8f6000830185612f7e565b614a9c6020830184613c93565b9392505050565b614aac816132e0565b8114614ab757600080fd5b50565b600081519050614ac981614aa3565b92915050565b600060208284031215614ae557614ae4612a97565b5b6000614af384828501614aba565b91505092915050565b6000604082019050614b1160008301856138d3565b8181036020830152614b23818461304c565b90509392505050565b6000614b388284614767565b915081905092915050565b7f72616e646f6d42797465733a206661696c656400000000000000000000000000600082015250565b6000614b79601383612cdd565b9150614b8482614b43565b602082019050919050565b60006020820190508181036000830152614ba881614b6c565b905091905056fea2646970667358221220671b82f2a9b4a6853a17f4f359e850e08b95ecf32010dbc575c83b4611a2244364736f6c634300081c0033",
  "linkReferences": {},
  "deployedLinkReferences": {}
}